{
  "contractName": "DoraMarketplace",
  "abi": [
    {
      "anonymous": false,
      "inputs": [
        {
          "indexed": false,
          "internalType": "string",
          "name": "TxType",
          "type": "string"
        },
        {
          "indexed": false,
          "internalType": "address",
          "name": "owner",
          "type": "address"
        },
        {
          "indexed": false,
          "internalType": "uint256",
          "name": "tokenId",
          "type": "uint256"
        }
      ],
      "name": "MarketTransaction",
      "type": "event"
    },
    {
      "anonymous": false,
      "inputs": [
        {
          "indexed": true,
          "internalType": "address",
          "name": "previousOwner",
          "type": "address"
        },
        {
          "indexed": true,
          "internalType": "address",
          "name": "newOwner",
          "type": "address"
        }
      ],
      "name": "OwnershipTransferred",
      "type": "event"
    },
    {
      "inputs": [],
      "name": "owner",
      "outputs": [
        {
          "internalType": "address",
          "name": "",
          "type": "address"
        }
      ],
      "stateMutability": "view",
      "type": "function",
      "constant": true
    },
    {
      "inputs": [],
      "name": "renounceOwnership",
      "outputs": [],
      "stateMutability": "nonpayable",
      "type": "function"
    },
    {
      "inputs": [
        {
          "internalType": "address",
          "name": "newOwner",
          "type": "address"
        }
      ],
      "name": "transferOwnership",
      "outputs": [],
      "stateMutability": "nonpayable",
      "type": "function"
    },
    {
      "inputs": [
        {
          "internalType": "address",
          "name": "_doraContractAddress",
          "type": "address"
        }
      ],
      "name": "setDoraContract",
      "outputs": [],
      "stateMutability": "nonpayable",
      "type": "function"
    },
    {
      "inputs": [],
      "name": "getContractAddress",
      "outputs": [
        {
          "internalType": "address",
          "name": "",
          "type": "address"
        }
      ],
      "stateMutability": "view",
      "type": "function",
      "constant": true
    },
    {
      "inputs": [
        {
          "internalType": "uint256",
          "name": "_tokenId",
          "type": "uint256"
        }
      ],
      "name": "getOffer",
      "outputs": [
        {
          "internalType": "address",
          "name": "seller",
          "type": "address"
        },
        {
          "internalType": "uint256",
          "name": "price",
          "type": "uint256"
        },
        {
          "internalType": "uint256",
          "name": "index",
          "type": "uint256"
        },
        {
          "internalType": "uint256",
          "name": "tokenId",
          "type": "uint256"
        },
        {
          "internalType": "bool",
          "name": "active",
          "type": "bool"
        }
      ],
      "stateMutability": "view",
      "type": "function",
      "constant": true
    },
    {
      "inputs": [],
      "name": "getAllTokenOnSale",
      "outputs": [
        {
          "internalType": "uint256[]",
          "name": "",
          "type": "uint256[]"
        }
      ],
      "stateMutability": "view",
      "type": "function",
      "constant": true
    },
    {
      "inputs": [
        {
          "internalType": "uint256",
          "name": "_price",
          "type": "uint256"
        },
        {
          "internalType": "uint256",
          "name": "_tokenId",
          "type": "uint256"
        }
      ],
      "name": "setOffer",
      "outputs": [],
      "stateMutability": "nonpayable",
      "type": "function"
    },
    {
      "inputs": [
        {
          "internalType": "uint256",
          "name": "_tokenId",
          "type": "uint256"
        }
      ],
      "name": "removeOffer",
      "outputs": [],
      "stateMutability": "nonpayable",
      "type": "function"
    },
    {
      "inputs": [
        {
          "internalType": "uint256",
          "name": "_tokenId",
          "type": "uint256"
        }
      ],
      "name": "buyDoraemon",
      "outputs": [],
      "stateMutability": "payable",
      "type": "function",
      "payable": true
    }
  ],
  "bytecode": "0x608060405234801561001057600080fd5b5060006100216100c460201b60201c565b9050806000806101000a81548173ffffffffffffffffffffffffffffffffffffffff021916908373ffffffffffffffffffffffffffffffffffffffff1602179055508073ffffffffffffffffffffffffffffffffffffffff16600073ffffffffffffffffffffffffffffffffffffffff167f8be0079c531659141344cd1fd0a4f28419497f9722a3daafe3b4186f6b6457e060405160405180910390a3506100cc565b600033905090565b61235c806100db6000396000f3fe6080604052600436106100915760003560e01c8063715018a611610059578063715018a6146101725780638da5cb5b14610189578063941b055b146101b457806395a0f9c7146101dd578063f2fde38b1461020657610091565b806307b183371461009657806332a2c5d0146100b257806336ca541c146100dd5780634579268a1461010657806349b3709f14610147575b600080fd5b6100b060048036038101906100ab9190611757565b61022f565b005b3480156100be57600080fd5b506100c76103f2565b6040516100d49190611ab3565b60405180910390f35b3480156100e957600080fd5b5061010460048036038101906100ff9190611705565b610476565b005b34801561011257600080fd5b5061012d60048036038101906101289190611757565b610536565b60405161013e959493929190611b05565b60405180910390f35b34801561015357600080fd5b5061015c610612565b6040516101699190611b58565b60405180910390f35b34801561017e57600080fd5b50610187610749565b005b34801561019557600080fd5b5061019e610883565b6040516101ab9190611ab3565b60405180910390f35b3480156101c057600080fd5b506101db60048036038101906101d69190611780565b6108ac565b005b3480156101e957600080fd5b5061020460048036038101906101ff9190611757565b610b55565b005b34801561021257600080fd5b5061022d60048036038101906102289190611705565b610c70565b005b6000600360008381526020019081526020016000206040518060a00160405290816000820160009054906101000a900473ffffffffffffffffffffffffffffffffffffffff1673ffffffffffffffffffffffffffffffffffffffff1673ffffffffffffffffffffffffffffffffffffffff1681526020016001820154815260200160028201548152602001600382015481526020016004820160009054906101000a900460ff161515151581525050905034816020015114610326576040517f08c379a000000000000000000000000000000000000000000000000000000000815260040161031d90611b9a565b60405180910390fd5b3373ffffffffffffffffffffffffffffffffffffffff16816000015173ffffffffffffffffffffffffffffffffffffffff161415610399576040517f08c379a000000000000000000000000000000000000000000000000000000000815260040161039090611d2e565b60405180910390fd5b6001151581608001511515146103e4576040517f08c379a00000000000000000000000000000000000000000000000000000000081526004016103db90611c92565b60405180910390fd5b6103ee8233610e19565b5050565b60006103fc611064565b73ffffffffffffffffffffffffffffffffffffffff1661041a610883565b73ffffffffffffffffffffffffffffffffffffffff1614610470576040517f08c379a000000000000000000000000000000000000000000000000000000000815260040161046790611cb2565b60405180910390fd5b30905090565b61047e611064565b73ffffffffffffffffffffffffffffffffffffffff1661049c610883565b73ffffffffffffffffffffffffffffffffffffffff16146104f2576040517f08c379a00000000000000000000000000000000000000000000000000000000081526004016104e990611cb2565b60405180910390fd5b80600160006101000a81548173ffffffffffffffffffffffffffffffffffffffff021916908373ffffffffffffffffffffffffffffffffffffffff16021790555050565b600080600080600080600360008881526020019081526020016000209050600115158160040160009054906101000a900460ff161515146105ac576040517f08c379a00000000000000000000000000000000000000000000000000000000081526004016105a390611b7a565b60405180910390fd5b8060000160009054906101000a900473ffffffffffffffffffffffffffffffffffffffff169550858160010154955085826002015495508583600301549550858460040160009054906101000a900460ff16955095509550955095505091939590929450565b60606000600280549050905060008167ffffffffffffffff811115610660577f4e487b7100000000000000000000000000000000000000000000000000000000600052604160045260246000fd5b60405190808252806020026020018201604052801561068e5781602001602082028036833780820191505090505b50905060005b8281101561074057600281815481106106d6577f4e487b7100000000000000000000000000000000000000000000000000000000600052603260045260246000fd5b906000526020600020906005020160030154828281518110610721577f4e487b7100000000000000000000000000000000000000000000000000000000600052603260045260246000fd5b602002602001018181525050808061073890611e9a565b915050610694565b50809250505090565b610751611064565b73ffffffffffffffffffffffffffffffffffffffff1661076f610883565b73ffffffffffffffffffffffffffffffffffffffff16146107c5576040517f08c379a00000000000000000000000000000000000000000000000000000000081526004016107bc90611cb2565b60405180910390fd5b600073ffffffffffffffffffffffffffffffffffffffff1660008054906101000a900473ffffffffffffffffffffffffffffffffffffffff1673ffffffffffffffffffffffffffffffffffffffff167f8be0079c531659141344cd1fd0a4f28419497f9722a3daafe3b4186f6b6457e060405160405180910390a360008060006101000a81548173ffffffffffffffffffffffffffffffffffffffff021916908373ffffffffffffffffffffffffffffffffffffffff160217905550565b60008060009054906101000a900473ffffffffffffffffffffffffffffffffffffffff16905090565b600160009054906101000a900473ffffffffffffffffffffffffffffffffffffffff1673ffffffffffffffffffffffffffffffffffffffff16636352211e826040518263ffffffff1660e01b81526004016109079190611dae565b60206040518083038186803b15801561091f57600080fd5b505afa158015610933573d6000803e3d6000fd5b505050506040513d601f19601f82011682018060405250810190610957919061172e565b73ffffffffffffffffffffffffffffffffffffffff163373ffffffffffffffffffffffffffffffffffffffff16146109c4576040517f08c379a00000000000000000000000000000000000000000000000000000000081526004016109bb90611d4e565b60405180910390fd5b600015156003600083815260200190815260200160002060040160009054906101000a900460ff16151514610a2e576040517f08c379a0000000000000000000000000000000000000000000000000000000008152600401610a2590611bda565b60405180910390fd5b600160009054906101000a900473ffffffffffffffffffffffffffffffffffffffff1673ffffffffffffffffffffffffffffffffffffffff1663081812fc826040518263ffffffff1660e01b8152600401610a899190611dae565b60206040518083038186803b158015610aa157600080fd5b505afa158015610ab5573d6000803e3d6000fd5b505050506040513d601f19601f82011682018060405250810190610ad9919061172e565b73ffffffffffffffffffffffffffffffffffffffff163073ffffffffffffffffffffffffffffffffffffffff1614610b46576040517f08c379a0000000000000000000000000000000000000000000000000000000008152600401610b3d90611d8e565b60405180910390fd5b610b5182823361106c565b5050565b6003600082815260200190815260200160002060000160009054906101000a900473ffffffffffffffffffffffffffffffffffffffff1673ffffffffffffffffffffffffffffffffffffffff163373ffffffffffffffffffffffffffffffffffffffff1614610bf9576040517f08c379a0000000000000000000000000000000000000000000000000000000008152600401610bf090611d6e565b60405180910390fd5b600115156003600083815260200190815260200160002060040160009054906101000a900460ff16151514610c63576040517f08c379a0000000000000000000000000000000000000000000000000000000008152600401610c5a90611bfa565b60405180910390fd5b610c6d813361124f565b50565b610c78611064565b73ffffffffffffffffffffffffffffffffffffffff16610c96610883565b73ffffffffffffffffffffffffffffffffffffffff1614610cec576040517f08c379a0000000000000000000000000000000000000000000000000000000008152600401610ce390611cb2565b60405180910390fd5b600073ffffffffffffffffffffffffffffffffffffffff168173ffffffffffffffffffffffffffffffffffffffff161415610d5c576040517f08c379a0000000000000000000000000000000000000000000000000000000008152600401610d5390611bba565b60405180910390fd5b8073ffffffffffffffffffffffffffffffffffffffff1660008054906101000a900473ffffffffffffffffffffffffffffffffffffffff1673ffffffffffffffffffffffffffffffffffffffff167f8be0079c531659141344cd1fd0a4f28419497f9722a3daafe3b4186f6b6457e060405160405180910390a3806000806101000a81548173ffffffffffffffffffffffffffffffffffffffff021916908373ffffffffffffffffffffffffffffffffffffffff16021790555050565b6000600360008481526020019081526020016000206040518060a00160405290816000820160009054906101000a900473ffffffffffffffffffffffffffffffffffffffff1673ffffffffffffffffffffffffffffffffffffffff1673ffffffffffffffffffffffffffffffffffffffff1681526020016001820154815260200160028201548152602001600382015481526020016004820160009054906101000a900460ff161515151581525050905060008160000151905060008260200151905060008273ffffffffffffffffffffffffffffffffffffffff1682604051610f0290611a9e565b60006040518083038185875af1925050503d8060008114610f3f576040519150601f19603f3d011682016040523d82523d6000602084013e610f44565b606091505b5050905080610f88576040517f08c379a0000000000000000000000000000000000000000000000000000000008152600401610f7f90611d0e565b60405180910390fd5b600160009054906101000a900473ffffffffffffffffffffffffffffffffffffffff1673ffffffffffffffffffffffffffffffffffffffff166342842e0e8487896040518463ffffffff1660e01b8152600401610fe793929190611ace565b600060405180830381600087803b15801561100157600080fd5b505af1158015611015573d6000803e3d6000fd5b50505050611023868461124f565b7fd99e4fad9ad6313b1feb588fa8e605e3a9873172f2024330c35dd2b4041a43868587604051611054929190611c56565b60405180910390a1505050505050565b600033905090565b60006040518060a001604052808373ffffffffffffffffffffffffffffffffffffffff16815260200185815260200160016002805490506110ad9190611e1e565b8152602001848152602001600115158152509050600281908060018154018082558091505060019003906000526020600020906005020160009091909190915060008201518160000160006101000a81548173ffffffffffffffffffffffffffffffffffffffff021916908373ffffffffffffffffffffffffffffffffffffffff16021790555060208201518160010155604082015181600201556060820151816003015560808201518160040160006101000a81548160ff0219169083151502179055505050806003600085815260200190815260200160002060008201518160000160006101000a81548173ffffffffffffffffffffffffffffffffffffffff021916908373ffffffffffffffffffffffffffffffffffffffff16021790555060208201518160010155604082015181600201556060820151816003015560808201518160040160006101000a81548160ff0219169083151502179055509050507fd99e4fad9ad6313b1feb588fa8e605e3a9873172f2024330c35dd2b4041a43868284604051611241929190611c1a565b60405180910390a150505050565b6000600360008481526020019081526020016000206002015490506000600160028054905061127e9190611e1e565b9050600081111561157a57600281815481106112c3577f4e487b7100000000000000000000000000000000000000000000000000000000600052603260045260246000fd5b90600052602060002090600502016002838154811061130b577f4e487b7100000000000000000000000000000000000000000000000000000000600052603260045260246000fd5b90600052602060002090600502016000820160009054906101000a900473ffffffffffffffffffffffffffffffffffffffff168160000160006101000a81548173ffffffffffffffffffffffffffffffffffffffff021916908373ffffffffffffffffffffffffffffffffffffffff1602179055506001820154816001015560028201548160020155600382015481600301556004820160009054906101000a900460ff168160040160006101000a81548160ff0219169083151502179055509050508160028381548110611409577f4e487b7100000000000000000000000000000000000000000000000000000000600052603260045260246000fd5b90600052602060002090600502016002018190555060028281548110611458577f4e487b7100000000000000000000000000000000000000000000000000000000600052603260045260246000fd5b906000526020600020906005020160036000600285815481106114a4577f4e487b7100000000000000000000000000000000000000000000000000000000600052603260045260246000fd5b90600052602060002090600502016003015481526020019081526020016000206000820160009054906101000a900473ffffffffffffffffffffffffffffffffffffffff168160000160006101000a81548173ffffffffffffffffffffffffffffffffffffffff021916908373ffffffffffffffffffffffffffffffffffffffff1602179055506001820154816001015560028201548160020155600382015481600301556004820160009054906101000a900460ff168160040160006101000a81548160ff0219169083151502179055509050505b60028054806115b2577f4e487b7100000000000000000000000000000000000000000000000000000000600052603160045260246000fd5b6001900381819060005260206000209060050201600080820160006101000a81549073ffffffffffffffffffffffffffffffffffffffff02191690556001820160009055600282016000905560038201600090556004820160006101000a81549060ff02191690555050905560036000838152602001908152602001600020600080820160006101000a81549073ffffffffffffffffffffffffffffffffffffffff02191690556001820160009055600282016000905560038201600090556004820160006101000a81549060ff021916905550507fd99e4fad9ad6313b1feb588fa8e605e3a9873172f2024330c35dd2b4041a438683856040516116b8929190611cd2565b60405180910390a150505050565b6000813590506116d5816122f8565b92915050565b6000815190506116ea816122f8565b92915050565b6000813590506116ff8161230f565b92915050565b60006020828403121561171757600080fd5b6000611725848285016116c6565b91505092915050565b60006020828403121561174057600080fd5b600061174e848285016116db565b91505092915050565b60006020828403121561176957600080fd5b6000611777848285016116f0565b91505092915050565b6000806040838503121561179357600080fd5b60006117a1858286016116f0565b92505060206117b2858286016116f0565b9150509250929050565b60006117c88383611a80565b60208301905092915050565b6117dd81611e52565b82525050565b60006117ee82611dd9565b6117f88185611df1565b935061180383611dc9565b8060005b8381101561183457815161181b88826117bc565b975061182683611de4565b925050600181019050611807565b5085935050505092915050565b61184a81611e64565b82525050565b600061185d603483611e0d565b915061186882611f12565b604082019050919050565b6000611880601b83611e0d565b915061188b82611f61565b602082019050919050565b60006118a3602683611e0d565b91506118ae82611f8a565b604082019050919050565b60006118c6602983611e0d565b91506118d182611fd9565b604082019050919050565b60006118e9602d83611e0d565b91506118f482612028565b604082019050919050565b600061190c600c83611e0d565b915061191782612077565b602082019050919050565b600061192f600383611e0d565b915061193a826120a0565b602082019050919050565b6000611952602683611e0d565b915061195d826120c9565b604082019050919050565b6000611975602083611e0d565b915061198082612118565b602082019050919050565b6000611998600c83611e0d565b91506119a382612141565b602082019050919050565b60006119bb602f83611e0d565b91506119c68261216a565b604082019050919050565b60006119de600083611e02565b91506119e9826121b9565b600082019050919050565b6000611a01602683611e0d565b9150611a0c826121bc565b604082019050919050565b6000611a24603083611e0d565b9150611a2f8261220b565b604082019050919050565b6000611a47603b83611e0d565b9150611a528261225a565b604082019050919050565b6000611a6a603b83611e0d565b9150611a75826122a9565b604082019050919050565b611a8981611e90565b82525050565b611a9881611e90565b82525050565b6000611aa9826119d1565b9150819050919050565b6000602082019050611ac860008301846117d4565b92915050565b6000606082019050611ae360008301866117d4565b611af060208301856117d4565b611afd6040830184611a8f565b949350505050565b600060a082019050611b1a60008301886117d4565b611b276020830187611a8f565b611b346040830186611a8f565b611b416060830185611a8f565b611b4e6080830184611841565b9695505050505050565b60006020820190508181036000830152611b7281846117e3565b905092915050565b60006020820190508181036000830152611b9381611850565b9050919050565b60006020820190508181036000830152611bb381611873565b9050919050565b60006020820190508181036000830152611bd381611896565b9050919050565b60006020820190508181036000830152611bf3816118b9565b9050919050565b60006020820190508181036000830152611c13816118dc565b9050919050565b60006060820190508181036000830152611c33816118ff565b9050611c4260208301856117d4565b611c4f6040830184611a8f565b9392505050565b60006060820190508181036000830152611c6f81611922565b9050611c7e60208301856117d4565b611c8b6040830184611a8f565b9392505050565b60006020820190508181036000830152611cab81611945565b9050919050565b60006020820190508181036000830152611ccb81611968565b9050919050565b60006060820190508181036000830152611ceb8161198b565b9050611cfa60208301856117d4565b611d076040830184611a8f565b9392505050565b60006020820190508181036000830152611d27816119ae565b9050919050565b60006020820190508181036000830152611d47816119f4565b9050919050565b60006020820190508181036000830152611d6781611a17565b9050919050565b60006020820190508181036000830152611d8781611a3a565b9050919050565b60006020820190508181036000830152611da781611a5d565b9050919050565b6000602082019050611dc36000830184611a8f565b92915050565b6000819050602082019050919050565b600081519050919050565b6000602082019050919050565b600082825260208201905092915050565b600081905092915050565b600082825260208201905092915050565b6000611e2982611e90565b9150611e3483611e90565b925082821015611e4757611e46611ee3565b5b828203905092915050565b6000611e5d82611e70565b9050919050565b60008115159050919050565b600073ffffffffffffffffffffffffffffffffffffffff82169050919050565b6000819050919050565b6000611ea582611e90565b91507fffffffffffffffffffffffffffffffffffffffffffffffffffffffffffffffff821415611ed857611ed7611ee3565b5b600182019050919050565b7f4e487b7100000000000000000000000000000000000000000000000000000000600052601160045260246000fd5b7f4d61726b6574706c6163653a205468657265206973206e6f206163746976652060008201527f6f6666657220666f72207468697320746f6b656e000000000000000000000000602082015250565b7f4d61726b6574706c6163653a20496e636f72726563742066756e640000000000600082015250565b7f4f776e61626c653a206e6577206f776e657220697320746865207a65726f206160008201527f6464726573730000000000000000000000000000000000000000000000000000602082015250565b7f4d61726b6574706c6163653a2054686520746f6b656e20697320616c7265616460008201527f79206f6e2073616c650000000000000000000000000000000000000000000000602082015250565b7f4d61726b6574706c6163653a2054686520746f6b656e20697320616c7265616460008201527f79206e6f74206f6e2073616c6500000000000000000000000000000000000000602082015250565b7f437265617465206f666665720000000000000000000000000000000000000000600082015250565b7f4275790000000000000000000000000000000000000000000000000000000000600082015250565b7f4d61726b6574706c6163653a2054686520746f6b656e206973206e6f7420666f60008201527f722073656c6c0000000000000000000000000000000000000000000000000000602082015250565b7f4f776e61626c653a2063616c6c6572206973206e6f7420746865206f776e6572600082015250565b7f52656d6f7665206f666665720000000000000000000000000000000000000000600082015250565b7f4d61726b6574706c6163653a204661696c656420746f2073656e642066756e6460008201527f7320746f207468652073656c6c65720000000000000000000000000000000000602082015250565b50565b7f4d61726b6574706c6163653a2043616e6e6f7420627920796f7572206f776e2060008201527f746f6b656e210000000000000000000000000000000000000000000000000000602082015250565b7f4d61726b6574706c6163653a20596f7520617265206e6f7420746865206f776e60008201527f6572206f66207468697320746f6b656e00000000000000000000000000000000602082015250565b7f4d61726b6574706c6163653a204f6e6c79207468652073656c6c6572206f662060008201527f7468697320746f6b656e2063616e2072656d6f7665206f666665720000000000602082015250565b7f4d61726b6574706c6163653a205468697320636f6e74726163742069736e277460008201527f20616e206f70657261746f7220666f72207468697320746f6b656e0000000000602082015250565b61230181611e52565b811461230c57600080fd5b50565b61231881611e90565b811461232357600080fd5b5056fea2646970667358221220c43839d5003d47fe57948997bcbfaf5835537d26f8129c6baf82b126d6078d9364736f6c63430008040033",
  "immutableReferences": {},
  "source": "// SPDX-License-Identifier: MIT\npragma solidity ^0.8.0;\n\nimport \"./Doracontract.sol\";\nimport \"../node_modules/@openzeppelin/contracts/access/Ownable.sol\";\nimport \"./IDoraMarketplace.sol\";\n\ncontract DoraMarketplace is Ownable, IDoraMarketPlace {\n  Doracontract private _DoraContract;\n\n  struct Offer {\n    address seller;\n    uint256 price;\n    uint256 index;\n    uint256 tokenId;\n    bool active;\n  }\n\n  Offer[] offers;\n  mapping(uint256 => Offer) tokenIdToOffer;\n\n  function setDoraContract(address _doraContractAddress) external override onlyOwner {\n    _DoraContract = Doracontract(_doraContractAddress);\n  }\n\n  function getContractAddress() external view onlyOwner returns(address){\n    return address(this);\n  }\n  \n  function getOffer(uint256 _tokenId) external override view returns ( address seller, uint256 price, uint256 index, uint256 tokenId, bool active){\n    Offer storage offer = tokenIdToOffer[_tokenId];\n    require(offer.active == true, \"Marketplace: There is no active offer for this token\");\n    return (\n      seller = offer.seller,\n      price = offer.price,\n      index = offer.index,\n      tokenId = offer.tokenId,\n      active = offer.active\n    );\n  }\n\n  function getAllTokenOnSale() external override view returns(uint256[] memory){\n    uint256 numOfOffers = offers.length;\n    uint256[] memory listOfOffers = new uint256[](numOfOffers);\n    for(uint i = 0; i < numOfOffers; i++){\n      listOfOffers[i] = offers[i].tokenId;\n    }\n    return listOfOffers;\n  }\n\n  function setOffer(uint256 _price, uint256 _tokenId) external override {\n    require(msg.sender == _DoraContract.ownerOf(_tokenId), \"Marketplace: You are not the owner of this token\");\n    require(tokenIdToOffer[_tokenId].active == false, \"Marketplace: The token is already on sale\");\n    require(address(this) == _DoraContract.getApproved(_tokenId), \"Marketplace: This contract isn't an operator for this token\");\n    _setOffer(_price, _tokenId, msg.sender);\n  }\n\n  function removeOffer(uint256 _tokenId) external override {\n    require(msg.sender == tokenIdToOffer[_tokenId].seller, \"Marketplace: Only the seller of this token can remove offer\");\n    require(tokenIdToOffer[_tokenId].active == true, \"Marketplace: The token is already not on sale\");\n    _removeOffer(_tokenId, msg.sender);\n  }\n\n  function buyDoraemon(uint256 _tokenId) external override payable {\n    Offer memory targetToken = tokenIdToOffer[_tokenId];\n    require(targetToken.price == msg.value, \"Marketplace: Incorrect fund\" );\n    require(targetToken.seller != msg.sender, \"Marketplace: Cannot by your own token!\");\n    require(targetToken.active == true, \"Marketplace: The token is not for sell\");\n    _buyDoraemon(_tokenId, msg.sender);\n  }\n\n  function _setOffer(uint256 _price, uint256 _tokenId, address _seller) internal {\n    Offer memory newOffer = Offer({\n      seller: _seller,\n      price: _price,\n      index: offers.length - 1,\n      tokenId: _tokenId,\n      active: true\n    });\n    offers.push(newOffer);\n    tokenIdToOffer[_tokenId] = newOffer;\n    emit MarketTransaction(\"Create offer\", _seller, _tokenId);\n  }\n\n  function _removeOffer(uint256 _tokenId, address _seller) internal {\n    uint256 targetIndex = tokenIdToOffer[_tokenId].index;\n    uint256 lastIndex = offers.length - 1;\n    if(lastIndex > 0){\n      offers[targetIndex] = offers[lastIndex];\n      offers[targetIndex].index = targetIndex;\n      tokenIdToOffer[offers[targetIndex].tokenId] = offers[targetIndex];\n    }\n    offers.pop();\n    delete tokenIdToOffer[targetIndex];\n    emit MarketTransaction(\"Remove offer\", _seller, _tokenId);\n  }\n\n  function _buyDoraemon(uint256 _tokenId, address _buyer) internal {\n    Offer memory targetToken = tokenIdToOffer[_tokenId];\n    address seller = targetToken.seller;\n    uint256 price = targetToken.price;\n    (bool success, ) = payable(seller).call{value: price}(\"\");\n    require(success, \"Marketplace: Failed to send funds to the seller\");\n    _DoraContract.safeTransferFrom(seller, _buyer, _tokenId);\n    _removeOffer(_tokenId, seller);\n    emit MarketTransaction(\"Buy\", _buyer, _tokenId);\n  }\n}",
  "sourcePath": "/Users/riomain/code/blockchain/academy/nftgame/doraemon/contracts/DoraMarketplace.sol",
  "compiler": {
    "name": "solc",
    "version": "0.8.4+commit.c7e474f2.Emscripten.clang"
  },
  "schemaVersion": "3.3.4",
  "updatedAt": "2021-05-23T08:58:38.055Z",
  "networkType": "ethereum",
  "devdoc": {
    "kind": "dev",
    "methods": {
      "owner()": {
        "details": "Returns the address of the current owner."
      },
      "renounceOwnership()": {
        "details": "Leaves the contract without owner. It will not be possible to call `onlyOwner` functions anymore. Can only be called by the current owner. NOTE: Renouncing ownership will leave the contract without an owner, thereby removing any functionality that is only available to the owner."
      },
      "transferOwnership(address)": {
        "details": "Transfers ownership of the contract to a new account (`newOwner`). Can only be called by the current owner."
      }
    },
    "version": 1
  },
  "userdoc": {
    "kind": "user",
    "methods": {
      "buyDoraemon(uint256)": {
        "notice": "Executes the purchase of _tokenId. Sends the funds to the seller and transfers the token using transferFrom in Kittycontract. Emits the MarketTransaction event with txType \"Buy\". Requirement: The msg.value needs to equal the price of _tokenId Requirement: There must be an active offer for _tokenId"
      },
      "getAllTokenOnSale()": {
        "notice": "Get all tokenId's that are currently for sale. Returns an empty arror if none exist."
      },
      "getOffer(uint256)": {
        "notice": "Get the details about a offer for _tokenId. Throws an error if there is no active offer for _tokenId."
      },
      "removeOffer(uint256)": {
        "notice": "Removes an existing offer. Emits the MarketTransaction event with txType \"Remove offer\" Requirement: Only the seller of _tokenId can remove an offer."
      },
      "setDoraContract(address)": {
        "notice": "Set the current KittyContract address and initialize the instance of Kittycontract. Requirement: Only the contract owner can call."
      },
      "setOffer(uint256,uint256)": {
        "notice": "Creates a new offer for _tokenId for the price _price. Emits the MarketTransaction event with txType \"Create offer\" Requirement: Only the owner of _tokenId can create an offer. Requirement: There can only be one active offer for a token at a time. Requirement: Marketplace contract (this) needs to be an approved operator when the offer is created."
      }
    },
    "version": 1
  }
}