{
  "contractName": "Doracontract",
  "abi": [
    {
      "inputs": [],
      "stateMutability": "nonpayable",
      "type": "constructor"
    },
    {
      "anonymous": false,
      "inputs": [
        {
          "indexed": true,
          "internalType": "address",
          "name": "owner",
          "type": "address"
        },
        {
          "indexed": true,
          "internalType": "address",
          "name": "approved",
          "type": "address"
        },
        {
          "indexed": true,
          "internalType": "uint256",
          "name": "tokenId",
          "type": "uint256"
        }
      ],
      "name": "Approval",
      "type": "event"
    },
    {
      "anonymous": false,
      "inputs": [
        {
          "indexed": true,
          "internalType": "address",
          "name": "owner",
          "type": "address"
        },
        {
          "indexed": true,
          "internalType": "address",
          "name": "operator",
          "type": "address"
        },
        {
          "indexed": false,
          "internalType": "bool",
          "name": "approved",
          "type": "bool"
        }
      ],
      "name": "ApprovalForAll",
      "type": "event"
    },
    {
      "anonymous": false,
      "inputs": [
        {
          "indexed": false,
          "internalType": "address",
          "name": "owner",
          "type": "address"
        },
        {
          "indexed": false,
          "internalType": "uint256",
          "name": "doraemonId",
          "type": "uint256"
        },
        {
          "indexed": false,
          "internalType": "uint256",
          "name": "mumId",
          "type": "uint256"
        },
        {
          "indexed": false,
          "internalType": "uint256",
          "name": "dadId",
          "type": "uint256"
        },
        {
          "indexed": false,
          "internalType": "uint256",
          "name": "genes",
          "type": "uint256"
        }
      ],
      "name": "Birth",
      "type": "event"
    },
    {
      "anonymous": false,
      "inputs": [
        {
          "indexed": true,
          "internalType": "address",
          "name": "previousOwner",
          "type": "address"
        },
        {
          "indexed": true,
          "internalType": "address",
          "name": "newOwner",
          "type": "address"
        }
      ],
      "name": "OwnershipTransferred",
      "type": "event"
    },
    {
      "anonymous": false,
      "inputs": [
        {
          "indexed": true,
          "internalType": "address",
          "name": "from",
          "type": "address"
        },
        {
          "indexed": true,
          "internalType": "address",
          "name": "to",
          "type": "address"
        },
        {
          "indexed": true,
          "internalType": "uint256",
          "name": "tokenId",
          "type": "uint256"
        }
      ],
      "name": "Transfer",
      "type": "event"
    },
    {
      "inputs": [],
      "name": "CREATION_LIMIT_GEN0",
      "outputs": [
        {
          "internalType": "uint16",
          "name": "",
          "type": "uint16"
        }
      ],
      "stateMutability": "view",
      "type": "function",
      "constant": true
    },
    {
      "inputs": [],
      "name": "gen0Counter",
      "outputs": [
        {
          "internalType": "uint16",
          "name": "",
          "type": "uint16"
        }
      ],
      "stateMutability": "view",
      "type": "function",
      "constant": true
    },
    {
      "inputs": [],
      "name": "owner",
      "outputs": [
        {
          "internalType": "address",
          "name": "",
          "type": "address"
        }
      ],
      "stateMutability": "view",
      "type": "function",
      "constant": true
    },
    {
      "inputs": [],
      "name": "renounceOwnership",
      "outputs": [],
      "stateMutability": "nonpayable",
      "type": "function"
    },
    {
      "inputs": [
        {
          "internalType": "uint256",
          "name": "",
          "type": "uint256"
        }
      ],
      "name": "tokenIndexToApproved",
      "outputs": [
        {
          "internalType": "address",
          "name": "",
          "type": "address"
        }
      ],
      "stateMutability": "view",
      "type": "function",
      "constant": true
    },
    {
      "inputs": [
        {
          "internalType": "address",
          "name": "newOwner",
          "type": "address"
        }
      ],
      "name": "transferOwnership",
      "outputs": [],
      "stateMutability": "nonpayable",
      "type": "function"
    },
    {
      "inputs": [],
      "name": "getContractAddress",
      "outputs": [
        {
          "internalType": "address",
          "name": "",
          "type": "address"
        }
      ],
      "stateMutability": "view",
      "type": "function",
      "constant": true
    },
    {
      "inputs": [
        {
          "internalType": "bytes4",
          "name": "_interfaceId",
          "type": "bytes4"
        }
      ],
      "name": "supportsInterface",
      "outputs": [
        {
          "internalType": "bool",
          "name": "",
          "type": "bool"
        }
      ],
      "stateMutability": "pure",
      "type": "function",
      "constant": true
    },
    {
      "inputs": [
        {
          "internalType": "uint256",
          "name": "_genes",
          "type": "uint256"
        }
      ],
      "name": "createDoraemonGen0",
      "outputs": [
        {
          "internalType": "uint256",
          "name": "",
          "type": "uint256"
        }
      ],
      "stateMutability": "nonpayable",
      "type": "function"
    },
    {
      "inputs": [
        {
          "internalType": "uint256",
          "name": "_tokenId",
          "type": "uint256"
        }
      ],
      "name": "getDoraemon",
      "outputs": [
        {
          "internalType": "uint256",
          "name": "genes",
          "type": "uint256"
        },
        {
          "internalType": "uint64",
          "name": "birthTime",
          "type": "uint64"
        },
        {
          "internalType": "uint32",
          "name": "mumId",
          "type": "uint32"
        },
        {
          "internalType": "uint32",
          "name": "dadId",
          "type": "uint32"
        },
        {
          "internalType": "uint16",
          "name": "generation",
          "type": "uint16"
        },
        {
          "internalType": "address",
          "name": "owner",
          "type": "address"
        }
      ],
      "stateMutability": "view",
      "type": "function",
      "constant": true
    },
    {
      "inputs": [
        {
          "internalType": "address",
          "name": "_owner",
          "type": "address"
        }
      ],
      "name": "tokensOfOwner",
      "outputs": [
        {
          "internalType": "uint256[]",
          "name": "",
          "type": "uint256[]"
        }
      ],
      "stateMutability": "view",
      "type": "function",
      "constant": true
    },
    {
      "inputs": [
        {
          "internalType": "uint256",
          "name": "_dadId",
          "type": "uint256"
        },
        {
          "internalType": "uint256",
          "name": "_mumId",
          "type": "uint256"
        }
      ],
      "name": "breed",
      "outputs": [
        {
          "internalType": "uint256",
          "name": "",
          "type": "uint256"
        }
      ],
      "stateMutability": "nonpayable",
      "type": "function"
    },
    {
      "inputs": [
        {
          "internalType": "address",
          "name": "_owner",
          "type": "address"
        }
      ],
      "name": "balanceOf",
      "outputs": [
        {
          "internalType": "uint256",
          "name": "",
          "type": "uint256"
        }
      ],
      "stateMutability": "view",
      "type": "function",
      "constant": true
    },
    {
      "inputs": [],
      "name": "totalSupply",
      "outputs": [
        {
          "internalType": "uint256",
          "name": "",
          "type": "uint256"
        }
      ],
      "stateMutability": "view",
      "type": "function",
      "constant": true
    },
    {
      "inputs": [],
      "name": "name",
      "outputs": [
        {
          "internalType": "string",
          "name": "",
          "type": "string"
        }
      ],
      "stateMutability": "pure",
      "type": "function",
      "constant": true
    },
    {
      "inputs": [],
      "name": "symbol",
      "outputs": [
        {
          "internalType": "string",
          "name": "",
          "type": "string"
        }
      ],
      "stateMutability": "pure",
      "type": "function",
      "constant": true
    },
    {
      "inputs": [
        {
          "internalType": "uint256",
          "name": "_tokenId",
          "type": "uint256"
        }
      ],
      "name": "ownerOf",
      "outputs": [
        {
          "internalType": "address",
          "name": "",
          "type": "address"
        }
      ],
      "stateMutability": "view",
      "type": "function",
      "constant": true
    },
    {
      "inputs": [
        {
          "internalType": "address",
          "name": "_approved",
          "type": "address"
        },
        {
          "internalType": "uint256",
          "name": "_tokenId",
          "type": "uint256"
        }
      ],
      "name": "approve",
      "outputs": [],
      "stateMutability": "nonpayable",
      "type": "function"
    },
    {
      "inputs": [
        {
          "internalType": "address",
          "name": "_operator",
          "type": "address"
        },
        {
          "internalType": "bool",
          "name": "_approved",
          "type": "bool"
        }
      ],
      "name": "setApprovalForAll",
      "outputs": [],
      "stateMutability": "nonpayable",
      "type": "function"
    },
    {
      "inputs": [
        {
          "internalType": "uint256",
          "name": "_tokenId",
          "type": "uint256"
        }
      ],
      "name": "getApproved",
      "outputs": [
        {
          "internalType": "address",
          "name": "",
          "type": "address"
        }
      ],
      "stateMutability": "view",
      "type": "function",
      "constant": true
    },
    {
      "inputs": [
        {
          "internalType": "address",
          "name": "_owner",
          "type": "address"
        },
        {
          "internalType": "address",
          "name": "_operator",
          "type": "address"
        }
      ],
      "name": "isApprovedForAll",
      "outputs": [
        {
          "internalType": "bool",
          "name": "",
          "type": "bool"
        }
      ],
      "stateMutability": "view",
      "type": "function",
      "constant": true
    },
    {
      "inputs": [
        {
          "internalType": "address",
          "name": "_from",
          "type": "address"
        },
        {
          "internalType": "address",
          "name": "_to",
          "type": "address"
        },
        {
          "internalType": "uint256",
          "name": "_tokenId",
          "type": "uint256"
        }
      ],
      "name": "safeTransferFrom",
      "outputs": [],
      "stateMutability": "nonpayable",
      "type": "function"
    },
    {
      "inputs": [
        {
          "internalType": "address",
          "name": "_from",
          "type": "address"
        },
        {
          "internalType": "address",
          "name": "_to",
          "type": "address"
        },
        {
          "internalType": "uint256",
          "name": "_tokenId",
          "type": "uint256"
        },
        {
          "internalType": "bytes",
          "name": "data",
          "type": "bytes"
        }
      ],
      "name": "safeTransferFrom",
      "outputs": [],
      "stateMutability": "nonpayable",
      "type": "function"
    },
    {
      "inputs": [
        {
          "internalType": "address",
          "name": "_from",
          "type": "address"
        },
        {
          "internalType": "address",
          "name": "_to",
          "type": "address"
        },
        {
          "internalType": "uint256",
          "name": "_tokenId",
          "type": "uint256"
        }
      ],
      "name": "transferFrom",
      "outputs": [],
      "stateMutability": "nonpayable",
      "type": "function"
    }
  ],
  "bytecode": "0x60806040523480156200001157600080fd5b50600062000024620000e160201b60201c565b9050806000806101000a81548173ffffffffffffffffffffffffffffffffffffffff021916908373ffffffffffffffffffffffffffffffffffffffff1602179055508073ffffffffffffffffffffffffffffffffffffffff16600073ffffffffffffffffffffffffffffffffffffffff167f8be0079c531659141344cd1fd0a4f28419497f9722a3daafe3b4186f6b6457e060405160405180910390a350620000da6000806000806000620000e960201b60201c565b5062000731565b600033905090565b6000806040518060a001604052808581526020014267ffffffffffffffff1681526020018863ffffffff1681526020018763ffffffff1681526020018661ffff16815250905060018190806001815401808255809150506001900390600052602060002090600202016000909190919091506000820151816000015560208201518160010160006101000a81548167ffffffffffffffff021916908367ffffffffffffffff16021790555060408201518160010160086101000a81548163ffffffff021916908363ffffffff160217905550606082015181600101600c6101000a81548163ffffffff021916908363ffffffff16021790555060808201518160010160106101000a81548161ffff021916908361ffff16021790555050506000600180805490506200021c919062000689565b90507f0a5311bd2a6608f08a180df2ee7c5946819a649b204b554bb8e39825b2c50ad584828a8a89604051620002579594939291906200062c565b60405180910390a162000273600085836200028160201b60201c565b809250505095945050505050565b600073ffffffffffffffffffffffffffffffffffffffff168373ffffffffffffffffffffffffffffffffffffffff1614620004a65760006001620002cb85620005be60201b60201c565b620002d7919062000689565b9050600360008573ffffffffffffffffffffffffffffffffffffffff1673ffffffffffffffffffffffffffffffffffffffff168152602001908152602001600020818154811062000351577f4e487b7100000000000000000000000000000000000000000000000000000000600052603260045260246000fd5b9060005260206000200154600360008673ffffffffffffffffffffffffffffffffffffffff1673ffffffffffffffffffffffffffffffffffffffff1681526020019081526020016000208381548110620003d4577f4e487b7100000000000000000000000000000000000000000000000000000000600052603260045260246000fd5b9060005260206000200181905550600360008573ffffffffffffffffffffffffffffffffffffffff1673ffffffffffffffffffffffffffffffffffffffff16815260200190815260200160002080548062000458577f4e487b7100000000000000000000000000000000000000000000000000000000600052603160045260246000fd5b600190038181906000526020600020016000905590556004600083815260200190815260200160002060006101000a81549073ffffffffffffffffffffffffffffffffffffffff0219169055505b600360008373ffffffffffffffffffffffffffffffffffffffff1673ffffffffffffffffffffffffffffffffffffffff168152602001908152602001600020819080600181540180825580915050600190039060005260206000200160009091909190915055816002600083815260200190815260200160002060006101000a81548173ffffffffffffffffffffffffffffffffffffffff021916908373ffffffffffffffffffffffffffffffffffffffff160217905550808273ffffffffffffffffffffffffffffffffffffffff168473ffffffffffffffffffffffffffffffffffffffff167fddf252ad1be2c89b69c2b068fc378daa952ba7f163c4a11628f55a4df523b3ef60405160405180910390a4505050565b6000600360008373ffffffffffffffffffffffffffffffffffffffff1673ffffffffffffffffffffffffffffffffffffffff168152602001908152602001600020805490509050919050565b6200061581620006c4565b82525050565b6200062681620006f8565b82525050565b600060a0820190506200064360008301886200060a565b6200065260208301876200061b565b6200066160408301866200061b565b6200067060608301856200061b565b6200067f60808301846200061b565b9695505050505050565b60006200069682620006f8565b9150620006a383620006f8565b925082821015620006b957620006b862000702565b5b828203905092915050565b6000620006d182620006d8565b9050919050565b600073ffffffffffffffffffffffffffffffffffffffff82169050919050565b6000819050919050565b7f4e487b7100000000000000000000000000000000000000000000000000000000600052601160045260246000fd5b61335d80620007416000396000f3fe608060405234801561001057600080fd5b50600436106101585760003560e01c806385641105116100c3578063b48343301161007c578063b4834330146103f2578063b88d4fde14610410578063d9ecad7b1461042c578063e985e9c51461045c578063ef5e94aa1461048c578063f2fde38b146104aa57610158565b806385641105146103055780638da5cb5b1461033557806395d89b4114610353578063a21e2b6314610371578063a22cb465146103a6578063a8bd9c32146103c257610158565b806332a2c5d01161011557806332a2c5d01461023157806342842e0e1461024f5780636352211e1461026b57806370a082311461029b578063715018a6146102cb5780638462151c146102d557610158565b806301ffc9a71461015d57806306fdde031461018d578063081812fc146101ab578063095ea7b3146101db57806318160ddd146101f757806323b872dd14610215575b600080fd5b610177600480360381019061017291906124e4565b6104c6565b604051610184919061298c565b60405180910390f35b610195610566565b6040516101a291906129a7565b60405180910390f35b6101c560048036038101906101c09190612536565b6105a3565b6040516101d291906128b0565b60405180910390f35b6101f560048036038101906101f091906124a8565b610682565b005b6101ff6106da565b60405161020c9190612b44565b60405180910390f35b61022f600480360381019061022a919061239d565b6106e7565b005b61023961070c565b60405161024691906128b0565b60405180910390f35b6102696004803603810190610264919061239d565b610790565b005b61028560048036038101906102809190612536565b6107c5565b60405161029291906128b0565b60405180910390f35b6102b560048036038101906102b09190612338565b610877565b6040516102c29190612b44565b60405180910390f35b6102d36108c3565b005b6102ef60048036038101906102ea9190612338565b6109fd565b6040516102fc919061296a565b60405180910390f35b61031f600480360381019061031a9190612536565b610a94565b60405161032c9190612b44565b60405180910390f35b61033d610b42565b60405161034a91906128b0565b60405180910390f35b61035b610b6b565b60405161036891906129a7565b60405180910390f35b61038b60048036038101906103869190612536565b610ba8565b60405161039d96959493929190612b5f565b60405180910390f35b6103c060048036038101906103bb919061246c565b610db8565b005b6103dc60048036038101906103d79190612536565b610f24565b6040516103e991906128b0565b60405180910390f35b6103fa610f57565b6040516104079190612b29565b60405180910390f35b61042a600480360381019061042591906123ec565b610f5c565b005b6104466004803603810190610441919061255f565b610fc8565b6040516104539190612b44565b60405180910390f35b61047660048036038101906104719190612361565b61113c565b604051610483919061298c565b60405180910390f35b6104946111d0565b6040516104a19190612b29565b60405180910390f35b6104c460048036038101906104bf9190612338565b6111e4565b005b60006301ffc9a760e01b7bffffffffffffffffffffffffffffffffffffffffffffffffffffffff1916827bffffffffffffffffffffffffffffffffffffffffffffffffffffffff1916148061055f57506380ac58cd60e01b7bffffffffffffffffffffffffffffffffffffffffffffffffffffffff1916827bffffffffffffffffffffffffffffffffffffffffffffffffffffffff1916145b9050919050565b60606040518060400160405280600e81526020017f43727970746f446f7261656d6f6e000000000000000000000000000000000000815250905090565b60008073ffffffffffffffffffffffffffffffffffffffff166002600084815260200190815260200160002060009054906101000a900473ffffffffffffffffffffffffffffffffffffffff1673ffffffffffffffffffffffffffffffffffffffff161415610647576040517f08c379a000000000000000000000000000000000000000000000000000000000815260040161063e90612a49565b60405180910390fd5b6004600083815260200190815260200160002060009054906101000a900473ffffffffffffffffffffffffffffffffffffffff169050919050565b61068c338261138d565b6106cb576040517f08c379a00000000000000000000000000000000000000000000000000000000081526004016106c290612a09565b60405180910390fd5b6106d63383836113f9565b5050565b6000600180549050905090565b6106f3338484846114ab565b6106fc57600080fd5b6107078383836116a4565b505050565b60006107166119d3565b73ffffffffffffffffffffffffffffffffffffffff16610734610b42565b73ffffffffffffffffffffffffffffffffffffffff161461078a576040517f08c379a000000000000000000000000000000000000000000000000000000000815260040161078190612a69565b60405180910390fd5b30905090565b61079c338484846114ab565b6107a557600080fd5b6107c0838383604051806020016040528060008152506119db565b505050565b6000806002600084815260200190815260200160002060009054906101000a900473ffffffffffffffffffffffffffffffffffffffff169050600073ffffffffffffffffffffffffffffffffffffffff168173ffffffffffffffffffffffffffffffffffffffff16141561086e576040517f08c379a000000000000000000000000000000000000000000000000000000000815260040161086590612a29565b60405180910390fd5b80915050919050565b6000600360008373ffffffffffffffffffffffffffffffffffffffff1673ffffffffffffffffffffffffffffffffffffffff168152602001908152602001600020805490509050919050565b6108cb6119d3565b73ffffffffffffffffffffffffffffffffffffffff166108e9610b42565b73ffffffffffffffffffffffffffffffffffffffff161461093f576040517f08c379a000000000000000000000000000000000000000000000000000000000815260040161093690612a69565b60405180910390fd5b600073ffffffffffffffffffffffffffffffffffffffff1660008054906101000a900473ffffffffffffffffffffffffffffffffffffffff1673ffffffffffffffffffffffffffffffffffffffff167f8be0079c531659141344cd1fd0a4f28419497f9722a3daafe3b4186f6b6457e060405160405180910390a360008060006101000a81548173ffffffffffffffffffffffffffffffffffffffff021916908373ffffffffffffffffffffffffffffffffffffffff160217905550565b6060600360008373ffffffffffffffffffffffffffffffffffffffff1673ffffffffffffffffffffffffffffffffffffffff168152602001908152602001600020805480602002602001604051908101604052809291908181526020018280548015610a8857602002820191906000526020600020905b815481526020019060010190808311610a74575b50505050509050919050565b6000600a61ffff16600660009054906101000a900461ffff1661ffff1610610af1576040517f08c379a0000000000000000000000000000000000000000000000000000000008152600401610ae890612ae9565b60405180910390fd5b6006600081819054906101000a900461ffff1680929190610b1190612ef8565b91906101000a81548161ffff021916908361ffff16021790555050610b3b60008060008533611a01565b9050919050565b60008060009054906101000a900473ffffffffffffffffffffffffffffffffffffffff16905090565b60606040518060400160405280600481526020017f444f524100000000000000000000000000000000000000000000000000000000815250905090565b60008060008060008060018781548110610beb577f4e487b7100000000000000000000000000000000000000000000000000000000600052603260045260246000fd5b906000526020600020906002020160000154955060018781548110610c39577f4e487b7100000000000000000000000000000000000000000000000000000000600052603260045260246000fd5b906000526020600020906002020160010160009054906101000a900467ffffffffffffffff16945060018781548110610c9b577f4e487b7100000000000000000000000000000000000000000000000000000000600052603260045260246000fd5b906000526020600020906002020160010160089054906101000a900463ffffffff16935060018781548110610cf9577f4e487b7100000000000000000000000000000000000000000000000000000000600052603260045260246000fd5b9060005260206000209060020201600101600c9054906101000a900463ffffffff16925060018781548110610d57577f4e487b7100000000000000000000000000000000000000000000000000000000600052603260045260246000fd5b906000526020600020906002020160010160109054906101000a900461ffff1691506002600088815260200190815260200160002060009054906101000a900473ffffffffffffffffffffffffffffffffffffffff16905091939550919395565b3373ffffffffffffffffffffffffffffffffffffffff168273ffffffffffffffffffffffffffffffffffffffff161415610e27576040517f08c379a0000000000000000000000000000000000000000000000000000000008152600401610e1e906129e9565b60405180910390fd5b80600560003373ffffffffffffffffffffffffffffffffffffffff1673ffffffffffffffffffffffffffffffffffffffff16815260200190815260200160002060008473ffffffffffffffffffffffffffffffffffffffff1673ffffffffffffffffffffffffffffffffffffffff16815260200190815260200160002060006101000a81548160ff0219169083151502179055508173ffffffffffffffffffffffffffffffffffffffff163373ffffffffffffffffffffffffffffffffffffffff167f17307eab39ab6107e8899845ad3d59bd9653f200f220920489ca2b5937696c3183604051610f18919061298c565b60405180910390a35050565b60046020528060005260406000206000915054906101000a900473ffffffffffffffffffffffffffffffffffffffff1681565b600a81565b610f68338686866114ab565b610f7157600080fd5b610fc185858585858080601f016020809104026020016040519081016040528093929190818152602001838380828437600081840152601f19601f820116905080830192505050505050506119db565b5050505050565b6000610fd4338461138d565b8015610fe65750610fe5338361138d565b5b611025576040517f08c379a000000000000000000000000000000000000000000000000000000000815260040161101c90612b09565b60405180910390fd5b600060018481548110611061577f4e487b7100000000000000000000000000000000000000000000000000000000600052603260045260246000fd5b906000526020600020906002020190506000600184815481106110ad577f4e487b7100000000000000000000000000000000000000000000000000000000600052603260045260246000fd5b9060005260206000209060020201905060006110d183600001548360000154611b8d565b90506000600160028460010160109054906101000a900461ffff168660010160109054906101000a900461ffff166111099190612c31565b6111139190612cbf565b61111d9190612c31565b61ffff1690506111308787838533611a01565b94505050505092915050565b6000600560008473ffffffffffffffffffffffffffffffffffffffff1673ffffffffffffffffffffffffffffffffffffffff16815260200190815260200160002060008373ffffffffffffffffffffffffffffffffffffffff1673ffffffffffffffffffffffffffffffffffffffff16815260200190815260200160002060009054906101000a900460ff16905092915050565b600660009054906101000a900461ffff1681565b6111ec6119d3565b73ffffffffffffffffffffffffffffffffffffffff1661120a610b42565b73ffffffffffffffffffffffffffffffffffffffff1614611260576040517f08c379a000000000000000000000000000000000000000000000000000000000815260040161125790612a69565b60405180910390fd5b600073ffffffffffffffffffffffffffffffffffffffff168173ffffffffffffffffffffffffffffffffffffffff1614156112d0576040517f08c379a00000000000000000000000000000000000000000000000000000000081526004016112c7906129c9565b60405180910390fd5b8073ffffffffffffffffffffffffffffffffffffffff1660008054906101000a900473ffffffffffffffffffffffffffffffffffffffff1673ffffffffffffffffffffffffffffffffffffffff167f8be0079c531659141344cd1fd0a4f28419497f9722a3daafe3b4186f6b6457e060405160405180910390a3806000806101000a81548173ffffffffffffffffffffffffffffffffffffffff021916908373ffffffffffffffffffffffffffffffffffffffff16021790555050565b60008273ffffffffffffffffffffffffffffffffffffffff166002600084815260200190815260200160002060009054906101000a900473ffffffffffffffffffffffffffffffffffffffff1673ffffffffffffffffffffffffffffffffffffffff1614905092915050565b816004600083815260200190815260200160002060006101000a81548173ffffffffffffffffffffffffffffffffffffffff021916908373ffffffffffffffffffffffffffffffffffffffff160217905550808273ffffffffffffffffffffffffffffffffffffffff168473ffffffffffffffffffffffffffffffffffffffff167f8c5be1e5ebec7d5bd14f71427d1e84f3dd0314c0f7b2291e5b200ac8c7c3b92560405160405180910390a4505050565b60008073ffffffffffffffffffffffffffffffffffffffff166002600084815260200190815260200160002060009054906101000a900473ffffffffffffffffffffffffffffffffffffffff1673ffffffffffffffffffffffffffffffffffffffff16141561154f576040517f08c379a000000000000000000000000000000000000000000000000000000000815260040161154690612a49565b60405180910390fd5b600073ffffffffffffffffffffffffffffffffffffffff168373ffffffffffffffffffffffffffffffffffffffff1614156115bf576040517f08c379a00000000000000000000000000000000000000000000000000000000081526004016115b690612ac9565b60405180910390fd5b6115c9848361138d565b611608576040517f08c379a00000000000000000000000000000000000000000000000000000000081526004016115ff90612a89565b60405180910390fd5b8373ffffffffffffffffffffffffffffffffffffffff168573ffffffffffffffffffffffffffffffffffffffff1614806116485750611647848661113c565b5b80611659575061165885836120e6565b5b611698576040517f08c379a000000000000000000000000000000000000000000000000000000000815260040161168f90612aa9565b60405180910390fd5b60019050949350505050565b600073ffffffffffffffffffffffffffffffffffffffff168373ffffffffffffffffffffffffffffffffffffffff16146118bb57600060016116e585610877565b6116ef9190612deb565b9050600360008573ffffffffffffffffffffffffffffffffffffffff1673ffffffffffffffffffffffffffffffffffffffff1681526020019081526020016000208181548110611768577f4e487b7100000000000000000000000000000000000000000000000000000000600052603260045260246000fd5b9060005260206000200154600360008673ffffffffffffffffffffffffffffffffffffffff1673ffffffffffffffffffffffffffffffffffffffff16815260200190815260200160002083815481106117ea577f4e487b7100000000000000000000000000000000000000000000000000000000600052603260045260246000fd5b9060005260206000200181905550600360008573ffffffffffffffffffffffffffffffffffffffff1673ffffffffffffffffffffffffffffffffffffffff16815260200190815260200160002080548061186d577f4e487b7100000000000000000000000000000000000000000000000000000000600052603160045260246000fd5b600190038181906000526020600020016000905590556004600083815260200190815260200160002060006101000a81549073ffffffffffffffffffffffffffffffffffffffff0219169055505b600360008373ffffffffffffffffffffffffffffffffffffffff1673ffffffffffffffffffffffffffffffffffffffff168152602001908152602001600020819080600181540180825580915050600190039060005260206000200160009091909190915055816002600083815260200190815260200160002060006101000a81548173ffffffffffffffffffffffffffffffffffffffff021916908373ffffffffffffffffffffffffffffffffffffffff160217905550808273ffffffffffffffffffffffffffffffffffffffff168473ffffffffffffffffffffffffffffffffffffffff167fddf252ad1be2c89b69c2b068fc378daa952ba7f163c4a11628f55a4df523b3ef60405160405180910390a4505050565b600033905090565b6119e68484846116a4565b6119f284848484612152565b6119fb57600080fd5b50505050565b6000806040518060a001604052808581526020014267ffffffffffffffff1681526020018863ffffffff1681526020018763ffffffff1681526020018661ffff16815250905060018190806001815401808255809150506001900390600052602060002090600202016000909190919091506000820151816000015560208201518160010160006101000a81548167ffffffffffffffff021916908367ffffffffffffffff16021790555060408201518160010160086101000a81548163ffffffff021916908363ffffffff160217905550606082015181600101600c6101000a81548163ffffffff021916908363ffffffff16021790555060808201518160010160106101000a81548161ffff021916908361ffff1602179055505050600060018080549050611b329190612deb565b90507f0a5311bd2a6608f08a180df2ee7c5946819a649b204b554bb8e39825b2c50ad584828a8a89604051611b6b959493929190612917565b60405180910390a1611b7f600085836116a4565b809250505095945050505050565b600080600a67ffffffffffffffff811115611bd1577f4e487b7100000000000000000000000000000000000000000000000000000000600052604160045260246000fd5b604051908082528060200260200182016040528015611bff5781602001602082028036833780820191505090505b5090506000604051806101400160405280606460ff168152602001606460ff168152602001606460ff168152602001606460ff168152602001600a60ff168152602001600a60ff168152602001600a60ff168152602001606460ff168152602001600a60ff168152602001600a60ff1681525090506000620100004244604051602001611c8d929190612884565b6040516020818303038152906040528051906020012060001c611cb09190612f5e565b9050600080600a9050600191505b6102008261ffff1611611ff957600181611cd89190612db7565b9050600a83611ce79190612f2d565b61ffff168161ffff161415611dfa576002848261ffff16600a8110611d35577f4e487b7100000000000000000000000000000000000000000000000000000000600052603260045260246000fd5b602002015160ff1689611d489190612f5e565b858361ffff16600a8110611d85577f4e487b7100000000000000000000000000000000000000000000000000000000600052603260045260246000fd5b602002015160ff1689611d989190612f5e565b611da29190612c69565b611dac9190612cf0565b858261ffff1681518110611de9577f4e487b7100000000000000000000000000000000000000000000000000000000600052603260045260246000fd5b602002602001018181525050611f41565b600082841661ffff1614611ea657838161ffff16600a8110611e45577f4e487b7100000000000000000000000000000000000000000000000000000000600052603260045260246000fd5b602002015160ff1687611e589190612f5e565b858261ffff1681518110611e95577f4e487b7100000000000000000000000000000000000000000000000000000000600052603260045260246000fd5b602002602001018181525050611f40565b838161ffff16600a8110611ee3577f4e487b7100000000000000000000000000000000000000000000000000000000600052603260045260246000fd5b602002015160ff1688611ef69190612f5e565b858261ffff1681518110611f33577f4e487b7100000000000000000000000000000000000000000000000000000000600052603260045260246000fd5b6020026020010181815250505b5b838161ffff16600a8110611f7e577f4e487b7100000000000000000000000000000000000000000000000000000000600052603260045260246000fd5b602002015160ff1687611f919190612cf0565b9650838161ffff16600a8110611fd0577f4e487b7100000000000000000000000000000000000000000000000000000000600052603260045260246000fd5b602002015160ff1688611fe39190612cf0565b9750600282611ff29190612d21565b9150611cbe565b600091505b600a8261ffff1610156120db57848261ffff1681518110612048577f4e487b7100000000000000000000000000000000000000000000000000000000600052603260045260246000fd5b60200260200101518661205b9190612c69565b955060098261ffff16146120c857836001836120779190612c31565b61ffff16600a81106120b2577f4e487b7100000000000000000000000000000000000000000000000000000000600052603260045260246000fd5b602002015160ff16866120c59190612d5d565b95505b81806120d390612ef8565b925050611ffe565b505050505092915050565b60008273ffffffffffffffffffffffffffffffffffffffff166004600084815260200190815260200160002060009054906101000a900473ffffffffffffffffffffffffffffffffffffffff1673ffffffffffffffffffffffffffffffffffffffff1614905092915050565b600061215d8461226c565b61216a5760019050612264565b60008473ffffffffffffffffffffffffffffffffffffffff1663150b7a02338887876040518563ffffffff1660e01b81526004016121ab94939291906128cb565b602060405180830381600087803b1580156121c557600080fd5b505af11580156121d9573d6000803e3d6000fd5b505050506040513d601f19601f820116820180604052508101906121fd919061250d565b90507f150b7a023d4804d13e8c85fb27262cb750cf6ba9f9dd3bb30d90f482ceeb4b1f7bffffffffffffffffffffffffffffffffffffffffffffffffffffffff1916817bffffffffffffffffffffffffffffffffffffffffffffffffffffffff1916149150505b949350505050565b600080823b905060008163ffffffff1611915050919050565b600081359050612294816132cb565b92915050565b6000813590506122a9816132e2565b92915050565b6000813590506122be816132f9565b92915050565b6000815190506122d3816132f9565b92915050565b60008083601f8401126122eb57600080fd5b8235905067ffffffffffffffff81111561230457600080fd5b60208301915083600182028301111561231c57600080fd5b9250929050565b60008135905061233281613310565b92915050565b60006020828403121561234a57600080fd5b600061235884828501612285565b91505092915050565b6000806040838503121561237457600080fd5b600061238285828601612285565b925050602061239385828601612285565b9150509250929050565b6000806000606084860312156123b257600080fd5b60006123c086828701612285565b93505060206123d186828701612285565b92505060406123e286828701612323565b9150509250925092565b60008060008060006080868803121561240457600080fd5b600061241288828901612285565b955050602061242388828901612285565b945050604061243488828901612323565b935050606086013567ffffffffffffffff81111561245157600080fd5b61245d888289016122d9565b92509250509295509295909350565b6000806040838503121561247f57600080fd5b600061248d85828601612285565b925050602061249e8582860161229a565b9150509250929050565b600080604083850312156124bb57600080fd5b60006124c985828601612285565b92505060206124da85828601612323565b9150509250929050565b6000602082840312156124f657600080fd5b6000612504848285016122af565b91505092915050565b60006020828403121561251f57600080fd5b600061252d848285016122c4565b91505092915050565b60006020828403121561254857600080fd5b600061255684828501612323565b91505092915050565b6000806040838503121561257257600080fd5b600061258085828601612323565b925050602061259185828601612323565b9150509250929050565b60006125a78383612831565b60208301905092915050565b6125bc81612e1f565b82525050565b60006125cd82612bd0565b6125d78185612bfe565b93506125e283612bc0565b8060005b838110156126135781516125fa888261259b565b975061260583612bf1565b9250506001810190506125e6565b5085935050505092915050565b61262981612e31565b82525050565b600061263a82612bdb565b6126448185612c0f565b9350612654818560208601612ec5565b61265d81612fed565b840191505092915050565b600061267382612be6565b61267d8185612c20565b935061268d818560208601612ec5565b61269681612fed565b840191505092915050565b60006126ae602683612c20565b91506126b982612ffe565b604082019050919050565b60006126d1601983612c20565b91506126dc8261304d565b602082019050919050565b60006126f4602b83612c20565b91506126ff82613076565b604082019050919050565b6000612717602983612c20565b9150612722826130c5565b604082019050919050565b600061273a601883612c20565b915061274582613114565b602082019050919050565b600061275d602083612c20565b91506127688261313d565b602082019050919050565b6000612780602a83612c20565b915061278b82613166565b604082019050919050565b60006127a3603783612c20565b91506127ae826131b5565b604082019050919050565b60006127c6601783612c20565b91506127d182613204565b602082019050919050565b60006127e9602183612c20565b91506127f48261322d565b604082019050919050565b600061280c602383612c20565b91506128178261327c565b604082019050919050565b61282b81612e69565b82525050565b61283a81612e97565b82525050565b61284981612e97565b82525050565b61286061285b82612e97565b612f23565b82525050565b61286f81612ea1565b82525050565b61287e81612eb1565b82525050565b6000612890828561284f565b6020820191506128a0828461284f565b6020820191508190509392505050565b60006020820190506128c560008301846125b3565b92915050565b60006080820190506128e060008301876125b3565b6128ed60208301866125b3565b6128fa6040830185612840565b818103606083015261290c818461262f565b905095945050505050565b600060a08201905061292c60008301886125b3565b6129396020830187612840565b6129466040830186612840565b6129536060830185612840565b6129606080830184612840565b9695505050505050565b6000602082019050818103600083015261298481846125c2565b905092915050565b60006020820190506129a16000830184612620565b92915050565b600060208201905081810360008301526129c18184612668565b905092915050565b600060208201905081810360008301526129e2816126a1565b9050919050565b60006020820190508181036000830152612a02816126c4565b9050919050565b60006020820190508181036000830152612a22816126e7565b9050919050565b60006020820190508181036000830152612a428161270a565b9050919050565b60006020820190508181036000830152612a628161272d565b9050919050565b60006020820190508181036000830152612a8281612750565b9050919050565b60006020820190508181036000830152612aa281612773565b9050919050565b60006020820190508181036000830152612ac281612796565b9050919050565b60006020820190508181036000830152612ae2816127b9565b9050919050565b60006020820190508181036000830152612b02816127dc565b9050919050565b60006020820190508181036000830152612b22816127ff565b9050919050565b6000602082019050612b3e6000830184612822565b92915050565b6000602082019050612b596000830184612840565b92915050565b600060c082019050612b746000830189612840565b612b816020830188612875565b612b8e6040830187612866565b612b9b6060830186612866565b612ba86080830185612822565b612bb560a08301846125b3565b979650505050505050565b6000819050602082019050919050565b600081519050919050565b600081519050919050565b600081519050919050565b6000602082019050919050565b600082825260208201905092915050565b600082825260208201905092915050565b600082825260208201905092915050565b6000612c3c82612e69565b9150612c4783612e69565b92508261ffff03821115612c5e57612c5d612f8f565b5b828201905092915050565b6000612c7482612e97565b9150612c7f83612e97565b9250827fffffffffffffffffffffffffffffffffffffffffffffffffffffffffffffffff03821115612cb457612cb3612f8f565b5b828201905092915050565b6000612cca82612e69565b9150612cd583612e69565b925082612ce557612ce4612fbe565b5b828204905092915050565b6000612cfb82612e97565b9150612d0683612e97565b925082612d1657612d15612fbe565b5b828204905092915050565b6000612d2c82612e69565b9150612d3783612e69565b92508161ffff0483118215151615612d5257612d51612f8f565b5b828202905092915050565b6000612d6882612e97565b9150612d7383612e97565b9250817fffffffffffffffffffffffffffffffffffffffffffffffffffffffffffffffff0483118215151615612dac57612dab612f8f565b5b828202905092915050565b6000612dc282612e69565b9150612dcd83612e69565b925082821015612de057612ddf612f8f565b5b828203905092915050565b6000612df682612e97565b9150612e0183612e97565b925082821015612e1457612e13612f8f565b5b828203905092915050565b6000612e2a82612e77565b9050919050565b60008115159050919050565b60007fffffffff0000000000000000000000000000000000000000000000000000000082169050919050565b600061ffff82169050919050565b600073ffffffffffffffffffffffffffffffffffffffff82169050919050565b6000819050919050565b600063ffffffff82169050919050565b600067ffffffffffffffff82169050919050565b60005b83811015612ee3578082015181840152602081019050612ec8565b83811115612ef2576000848401525b50505050565b6000612f0382612e69565b915061ffff821415612f1857612f17612f8f565b5b600182019050919050565b6000819050919050565b6000612f3882612e69565b9150612f4383612e69565b925082612f5357612f52612fbe565b5b828206905092915050565b6000612f6982612e97565b9150612f7483612e97565b925082612f8457612f83612fbe565b5b828206905092915050565b7f4e487b7100000000000000000000000000000000000000000000000000000000600052601160045260246000fd5b7f4e487b7100000000000000000000000000000000000000000000000000000000600052601260045260246000fd5b6000601f19601f8301169050919050565b7f4f776e61626c653a206e6577206f776e657220697320746865207a65726f206160008201527f6464726573730000000000000000000000000000000000000000000000000000602082015250565b7f4552433732313a20596f752061726520746865206f776e657200000000000000600082015250565b7f4552433732313a20596f7520617265206e6f7420746865206f776e6572206f6660008201527f207468697320746f6b656e000000000000000000000000000000000000000000602082015250565b7f4552433732313a206f776e657220717565727920666f72206e6f6e657869737460008201527f656e7420746f6b656e0000000000000000000000000000000000000000000000602082015250565b7f4552433732313a20496e76616c696420746f6b656e2049440000000000000000600082015250565b7f4f776e61626c653a2063616c6c6572206973206e6f7420746865206f776e6572600082015250565b7f4552433732313a205468652073656e64657220646f6573206e6f74206f776e2060008201527f7468697320746f6b656e00000000000000000000000000000000000000000000602082015250565b7f4552433732313a20596f7520646f6e2774206861766520746865207065726d6960008201527f7373696f6e20746f207472616e7366657220746f6b656e000000000000000000602082015250565b7f4552433732313a20496e76616c69642061646472657373000000000000000000600082015250565b7f43616e6e6f7420637265617465206d6f72652067656e203020646f7261656d6f60008201527f6e00000000000000000000000000000000000000000000000000000000000000602082015250565b7f596f7520617265206e6f7420746865206f776e6572206f66207468697320746f60008201527f6b656e0000000000000000000000000000000000000000000000000000000000602082015250565b6132d481612e1f565b81146132df57600080fd5b50565b6132eb81612e31565b81146132f657600080fd5b50565b61330281612e3d565b811461330d57600080fd5b50565b61331981612e97565b811461332457600080fd5b5056fea26469706673582212206852d34de126092efc9cc702ec03804506f395b28bd8536dfab15edf7482299464736f6c63430008040033",
  "immutableReferences": {},
  "source": "// SPDX-License-Identifier: MIT\npragma solidity ^0.8.0;\n\n// import \"../node_modules/@openzeppelin/contracts/token/ERC721/IERC721.sol\";\n// import \"../node_modules/@openzeppelin/contracts/token/ERC721/extensions/IERC721Metadata.sol\";\n// import \"../node_modules/@openzeppelin/contracts/token/ERC721/extensions/IERC721Enumerable.sol\";\n\nimport \"./IERC721.sol\";\nimport \"./IERC721Receiver.sol\";\nimport \"../node_modules/@openzeppelin/contracts/access/Ownable.sol\";\n\ncontract Doracontract is IERC721, Ownable {\n  string constant _name = \"CryptoDoraemon\";\n  string constant _symbol = \"DORA\";\n  uint16 public constant CREATION_LIMIT_GEN0 = 10;\n\n  bytes4 internal constant MAGIC_ERC721_RECEIVED = bytes4(keccak256(\"onERC721Received(address,address,uint256,bytes)\"));\n  bytes4 private constant _INTERFACE_ID_ERC721 = 0x80ac58cd;\n  bytes4 private constant _INTERFACE_ID_ERC165 = 0x01ffc9a7;\n\n  event Birth(\n    address owner, \n    uint256 doraemonId, \n    uint256 mumId, \n    uint256 dadId, \n    uint256 genes\n  );\n\n  struct Doraemon {\n    uint256 genes;\n    uint64 birthTime;\n    uint32 mumId;\n    uint32 dadId;\n    uint16 generation;\n  }\n\n  //Array of all tokens (index => token) (index, token ID: position of allTokens array)\n  Doraemon[] private allTokens;\n  //Token ID to owner address\n  mapping (uint256 => address) private tokenOwner;\n  //Owner to list of owned token IDs (addr => index)\n  mapping(address => uint256[]) private ownedTokens;\n  //Give right to transfer (token ID => approved address)\n  mapping (uint256 => address) public tokenIndexToApproved;\n  //Give operator (myAddr => operatorAddr => true/false)\n  mapping (address => mapping(address => bool)) private operatorApprovals;\n\n  //Counts created gen 0 doraemons\n  uint16 public gen0Counter; \n\n  constructor(){\n    _createDoraemon(0, 0, 0, 0, address(0)); //to fill index 0 spot\n  }\n\n  function getContractAddress() external view onlyOwner returns(address){\n    return address(this);\n  }\n\n  function supportsInterface(bytes4 _interfaceId) external pure returns (bool) {\n    return (_interfaceId == _INTERFACE_ID_ERC165 || _interfaceId == _INTERFACE_ID_ERC721);\n  }\n\n  function createDoraemonGen0(uint256 _genes) public returns(uint256){\n    require(gen0Counter < CREATION_LIMIT_GEN0, \"Cannot create more gen 0 doraemon\");\n    gen0Counter++;\n\n    return _createDoraemon(0, 0, 0, _genes, msg.sender);\n  }\n\n  function _createDoraemon(\n    uint256 _mumId, \n    uint256 _dadId, \n    uint256 _generation, \n    uint256 _genes, \n    address _owner\n  ) private returns(uint256) {\n    Doraemon memory _doraemon = Doraemon({\n      genes: _genes,\n      birthTime: uint64(block.timestamp),\n      mumId: uint32(_mumId),\n      dadId: uint32(_dadId),\n      generation: uint16(_generation)\n    });\n    allTokens.push(_doraemon);\n    uint256 newDoraemonId = allTokens.length - 1; \n\n    emit Birth(_owner, newDoraemonId, _mumId, _dadId, _genes);\n    _transfer(address(0), _owner, newDoraemonId);\n\n    return newDoraemonId;\n  } \n\n  function getDoraemon(uint256 _tokenId) external view returns(\n    uint256 genes,\n    uint64 birthTime,\n    uint32 mumId,\n    uint32 dadId,\n    uint16 generation,\n    address owner\n  ){\n    genes = allTokens[_tokenId].genes;\n    birthTime = allTokens[_tokenId].birthTime;\n    mumId = allTokens[_tokenId].mumId;\n    dadId = allTokens[_tokenId].dadId;\n    generation = allTokens[_tokenId].generation;\n    owner = tokenOwner[_tokenId];\n  }\n\n  function tokensOfOwner(address _owner) external view returns(uint256[] memory){\n    return ownedTokens[_owner];\n  }\n\n  function breed(uint256 _dadId, uint256 _mumId) public returns (uint256){\n    require(_owns(msg.sender, _dadId) && _owns(msg.sender, _mumId), \"You are not the owner of this token\");\n    Doraemon storage dad = allTokens[_dadId];\n    Doraemon storage mum = allTokens[_mumId];\n    uint256 newDna = _mixDna(dad.genes, mum.genes);\n    uint256 newGen = (dad.generation + mum.generation) / 2 + 1;\n    return _createDoraemon(_dadId, _mumId, newGen, newDna, msg.sender);\n  }\n\n  function balanceOf(address _owner) public view override returns(uint256){\n    return ownedTokens[_owner].length;\n  }\n\n  function totalSupply() external view override returns(uint256){\n    return allTokens.length;\n  }\n\n  function name() external pure override returns (string memory){\n    return _name;\n  } \n\n  function symbol() external pure override returns (string memory){\n    return _symbol;\n  } \n\n  function ownerOf(uint256 _tokenId) public view override returns(address){\n    address owner = tokenOwner[_tokenId];\n    require(owner != address(0), \"ERC721: owner query for nonexistent token\");\n    return owner;\n  }\n\n  function approve(address _approved, uint256 _tokenId) external override{\n    require(_owns(msg.sender, _tokenId), \"ERC721: You are not the owner of this token\");\n    _approve(msg.sender, _approved, _tokenId);\n  }\n\n  function setApprovalForAll(address _operator, bool _approved) external override {\n    require(_operator != msg.sender, \"ERC721: You are the owner\");\n    operatorApprovals[msg.sender][_operator] = _approved;\n    emit ApprovalForAll(msg.sender, _operator, _approved);\n  }\n\n  function getApproved(uint256 _tokenId) external view override returns(address){\n    require(tokenOwner[_tokenId] != address(0), \"ERC721: Invalid token ID\");\n    return tokenIndexToApproved[_tokenId];\n  }\n\n  function isApprovedForAll(address _owner, address _operator) public view override returns(bool){\n    return operatorApprovals[_owner][_operator];\n  }\n\n  function safeTransferFrom(address _from, address _to, uint256 _tokenId) external override {\n    require(_isApprovedOrOwner(msg.sender, _from, _to, _tokenId));\n    _safeTransfer(_from, _to, _tokenId, \"\");\n  }\n\n  function safeTransferFrom(address _from, address _to, uint256 _tokenId, bytes calldata data) external override {\n    require(_isApprovedOrOwner(msg.sender, _from, _to, _tokenId));\n    _safeTransfer(_from, _to, _tokenId, data);\n  }\n\n  function _safeTransfer(address _from, address _to, uint256 _tokenId, bytes memory _data) internal {\n    _transfer(_from, _to, _tokenId);\n    require(_checkERC721Support(_from, _to, _tokenId, _data));\n  }\n\n  function transferFrom(address _from, address _to, uint256 _tokenId) external override {\n    require(_isApprovedOrOwner(msg.sender, _from, _to, _tokenId));\n    _transfer(_from, _to, _tokenId);\n  }\n\n  function _transfer(address _from, address _to, uint256 _tokenId) internal{\n    if(_from != address(0)){\n      uint256 lastTokenIndex = balanceOf(_from) - 1;\n      ownedTokens[_from][_tokenId] = ownedTokens[_from][lastTokenIndex];\n      ownedTokens[_from].pop();\n      delete tokenIndexToApproved[_tokenId];\n    }\n    ownedTokens[_to].push(_tokenId);\n    tokenOwner[_tokenId] = _to;\n    emit Transfer(_from, _to, _tokenId);\n  }\n\n  function _owns(address _claimant, uint256 _tokenId) internal view returns(bool){\n    return tokenOwner[_tokenId] == _claimant;\n  }\n\n  function _approve(address _owner, address _approved, uint256 _tokenId) internal {\n    tokenIndexToApproved[_tokenId] = _approved;\n    emit Approval(_owner, _approved, _tokenId);\n  }\n\n  function _approvedFor(address _claimant, uint256 _tokenId) internal view returns (bool) {\n    return tokenIndexToApproved[_tokenId] == _claimant;\n  }\n\n  function _checkERC721Support(address _from, address _to, uint256 _tokenId, bytes memory _data) internal returns (bool) {\n    if(!_isContract(_to)){\n      return true;\n    }\n\n    bytes4 returnData = IERC721Receiver(_to).onERC721Received(msg.sender, _from, _tokenId, _data);\n    return returnData == MAGIC_ERC721_RECEIVED;\n  }\n\n  function _isContract(address _to) view internal returns(bool){\n    uint32 size; //code size\n    assembly{\n      size := extcodesize(_to)\n    }\n    return size > 0;\n  }\n\n  function _isApprovedOrOwner(address _spender, address _from, address _to, uint256 _tokenId) internal view returns(bool){\n    require(tokenOwner[_tokenId] != address(0), \"ERC721: Invalid token ID\");\n    require(_to != address(0), \"ERC721: Invalid address\");\n    require(_owns(_from, _tokenId), \"ERC721: The sender does not own this token\");\n    require(\n      _spender == _from || isApprovedForAll(_from, _spender) || _approvedFor(_spender, _tokenId), \n      \"ERC721: You don't have the permission to transfer token\"\n    );\n    return true;\n  }\n\n  function _mixDna(uint256 _dadDna, uint256 _mumDna) internal view returns(uint256 newGene){\n    uint256[] memory geneArray = new uint256[](10);\n    uint8[10] memory digitControl = [100, 100, 100, 100, 10, 10, 10, 100, 10, 10]; \n    uint16 random = uint16(uint256(keccak256(abi.encodePacked(block.timestamp, block.difficulty))) % 65536);\n    uint16 i;\n    uint16 index = 10;\n    for(i = 1; i <= 512; i = i * 2){\n      index = index - 1;\n      if(index == random % 10){\n        geneArray[index] = (_mumDna % digitControl[index] + _dadDna % digitControl[index]) / 2;\n      }else if(random & i != 0){\n        geneArray[index] = _mumDna % digitControl[index];\n      }else{\n        geneArray[index] = _dadDna % digitControl[index];\n      }\n      _mumDna /= digitControl[index];\n      _dadDna /= digitControl[index];\n    }\n    for(i = 0; i < 10; i++){\n      newGene += geneArray[i];\n      if(i != 9){\n        newGene *= digitControl[i+1];\n      }\n    }\n  }\n}",
  "sourcePath": "/Users/riomain/code/blockchain/academy/nftgame/doraemon/contracts/Doracontract.sol",
  "compiler": {
    "name": "solc",
    "version": "0.8.4+commit.c7e474f2.Emscripten.clang"
  },
  "schemaVersion": "3.3.4",
  "updatedAt": "2021-05-23T08:58:37.605Z",
  "networkType": "ethereum",
  "devdoc": {
    "kind": "dev",
    "methods": {
      "owner()": {
        "details": "Returns the address of the current owner."
      },
      "renounceOwnership()": {
        "details": "Leaves the contract without owner. It will not be possible to call `onlyOwner` functions anymore. Can only be called by the current owner. NOTE: Renouncing ownership will leave the contract without an owner, thereby removing any functionality that is only available to the owner."
      },
      "transferOwnership(address)": {
        "details": "Transfers ownership of the contract to a new account (`newOwner`). Can only be called by the current owner."
      }
    },
    "version": 1
  },
  "userdoc": {
    "kind": "user",
    "methods": {},
    "version": 1
  }
}