{
  "contractName": "Doracontract",
  "abi": [
    {
      "inputs": [],
      "stateMutability": "nonpayable",
      "type": "constructor"
    },
    {
      "anonymous": false,
      "inputs": [
        {
          "indexed": true,
          "internalType": "address",
          "name": "owner",
          "type": "address"
        },
        {
          "indexed": true,
          "internalType": "address",
          "name": "approved",
          "type": "address"
        },
        {
          "indexed": true,
          "internalType": "uint256",
          "name": "tokenId",
          "type": "uint256"
        }
      ],
      "name": "Approval",
      "type": "event"
    },
    {
      "anonymous": false,
      "inputs": [
        {
          "indexed": true,
          "internalType": "address",
          "name": "owner",
          "type": "address"
        },
        {
          "indexed": true,
          "internalType": "address",
          "name": "operator",
          "type": "address"
        },
        {
          "indexed": false,
          "internalType": "bool",
          "name": "approved",
          "type": "bool"
        }
      ],
      "name": "ApprovalForAll",
      "type": "event"
    },
    {
      "anonymous": false,
      "inputs": [
        {
          "indexed": false,
          "internalType": "address",
          "name": "owner",
          "type": "address"
        },
        {
          "indexed": false,
          "internalType": "uint256",
          "name": "doraemonId",
          "type": "uint256"
        },
        {
          "indexed": false,
          "internalType": "uint256",
          "name": "mumId",
          "type": "uint256"
        },
        {
          "indexed": false,
          "internalType": "uint256",
          "name": "dadId",
          "type": "uint256"
        },
        {
          "indexed": false,
          "internalType": "uint256",
          "name": "genes",
          "type": "uint256"
        }
      ],
      "name": "Birth",
      "type": "event"
    },
    {
      "anonymous": false,
      "inputs": [
        {
          "indexed": true,
          "internalType": "address",
          "name": "previousOwner",
          "type": "address"
        },
        {
          "indexed": true,
          "internalType": "address",
          "name": "newOwner",
          "type": "address"
        }
      ],
      "name": "OwnershipTransferred",
      "type": "event"
    },
    {
      "anonymous": false,
      "inputs": [
        {
          "indexed": true,
          "internalType": "address",
          "name": "from",
          "type": "address"
        },
        {
          "indexed": true,
          "internalType": "address",
          "name": "to",
          "type": "address"
        },
        {
          "indexed": true,
          "internalType": "uint256",
          "name": "tokenId",
          "type": "uint256"
        }
      ],
      "name": "Transfer",
      "type": "event"
    },
    {
      "inputs": [],
      "name": "CREATION_LIMIT_GEN0",
      "outputs": [
        {
          "internalType": "uint16",
          "name": "",
          "type": "uint16"
        }
      ],
      "stateMutability": "view",
      "type": "function",
      "constant": true
    },
    {
      "inputs": [],
      "name": "gen0Counter",
      "outputs": [
        {
          "internalType": "uint16",
          "name": "",
          "type": "uint16"
        }
      ],
      "stateMutability": "view",
      "type": "function",
      "constant": true
    },
    {
      "inputs": [],
      "name": "owner",
      "outputs": [
        {
          "internalType": "address",
          "name": "",
          "type": "address"
        }
      ],
      "stateMutability": "view",
      "type": "function",
      "constant": true
    },
    {
      "inputs": [],
      "name": "renounceOwnership",
      "outputs": [],
      "stateMutability": "nonpayable",
      "type": "function"
    },
    {
      "inputs": [
        {
          "internalType": "uint256",
          "name": "",
          "type": "uint256"
        }
      ],
      "name": "tokenIndexToApproved",
      "outputs": [
        {
          "internalType": "address",
          "name": "",
          "type": "address"
        }
      ],
      "stateMutability": "view",
      "type": "function",
      "constant": true
    },
    {
      "inputs": [
        {
          "internalType": "address",
          "name": "newOwner",
          "type": "address"
        }
      ],
      "name": "transferOwnership",
      "outputs": [],
      "stateMutability": "nonpayable",
      "type": "function"
    },
    {
      "inputs": [],
      "name": "getContractAddress",
      "outputs": [
        {
          "internalType": "address",
          "name": "",
          "type": "address"
        }
      ],
      "stateMutability": "view",
      "type": "function",
      "constant": true
    },
    {
      "inputs": [
        {
          "internalType": "bytes4",
          "name": "_interfaceId",
          "type": "bytes4"
        }
      ],
      "name": "supportsInterface",
      "outputs": [
        {
          "internalType": "bool",
          "name": "",
          "type": "bool"
        }
      ],
      "stateMutability": "pure",
      "type": "function",
      "constant": true
    },
    {
      "inputs": [
        {
          "internalType": "uint256",
          "name": "_genes",
          "type": "uint256"
        }
      ],
      "name": "createDoraemonGen0",
      "outputs": [
        {
          "internalType": "uint256",
          "name": "",
          "type": "uint256"
        }
      ],
      "stateMutability": "nonpayable",
      "type": "function"
    },
    {
      "inputs": [
        {
          "internalType": "uint256",
          "name": "_tokenId",
          "type": "uint256"
        }
      ],
      "name": "getDoraemon",
      "outputs": [
        {
          "internalType": "uint256",
          "name": "genes",
          "type": "uint256"
        },
        {
          "internalType": "uint64",
          "name": "birthTime",
          "type": "uint64"
        },
        {
          "internalType": "uint32",
          "name": "mumId",
          "type": "uint32"
        },
        {
          "internalType": "uint32",
          "name": "dadId",
          "type": "uint32"
        },
        {
          "internalType": "uint16",
          "name": "generation",
          "type": "uint16"
        },
        {
          "internalType": "address",
          "name": "owner",
          "type": "address"
        }
      ],
      "stateMutability": "view",
      "type": "function",
      "constant": true
    },
    {
      "inputs": [
        {
          "internalType": "address",
          "name": "_owner",
          "type": "address"
        }
      ],
      "name": "tokensOfOwner",
      "outputs": [
        {
          "internalType": "uint256[]",
          "name": "",
          "type": "uint256[]"
        }
      ],
      "stateMutability": "view",
      "type": "function",
      "constant": true
    },
    {
      "inputs": [
        {
          "internalType": "uint256",
          "name": "_dadId",
          "type": "uint256"
        },
        {
          "internalType": "uint256",
          "name": "_mumId",
          "type": "uint256"
        }
      ],
      "name": "breed",
      "outputs": [
        {
          "internalType": "uint256",
          "name": "",
          "type": "uint256"
        }
      ],
      "stateMutability": "nonpayable",
      "type": "function"
    },
    {
      "inputs": [
        {
          "internalType": "address",
          "name": "_owner",
          "type": "address"
        }
      ],
      "name": "balanceOf",
      "outputs": [
        {
          "internalType": "uint256",
          "name": "",
          "type": "uint256"
        }
      ],
      "stateMutability": "view",
      "type": "function",
      "constant": true
    },
    {
      "inputs": [],
      "name": "totalSupply",
      "outputs": [
        {
          "internalType": "uint256",
          "name": "",
          "type": "uint256"
        }
      ],
      "stateMutability": "view",
      "type": "function",
      "constant": true
    },
    {
      "inputs": [],
      "name": "name",
      "outputs": [
        {
          "internalType": "string",
          "name": "",
          "type": "string"
        }
      ],
      "stateMutability": "pure",
      "type": "function",
      "constant": true
    },
    {
      "inputs": [],
      "name": "symbol",
      "outputs": [
        {
          "internalType": "string",
          "name": "",
          "type": "string"
        }
      ],
      "stateMutability": "pure",
      "type": "function",
      "constant": true
    },
    {
      "inputs": [
        {
          "internalType": "uint256",
          "name": "_tokenId",
          "type": "uint256"
        }
      ],
      "name": "ownerOf",
      "outputs": [
        {
          "internalType": "address",
          "name": "",
          "type": "address"
        }
      ],
      "stateMutability": "view",
      "type": "function",
      "constant": true
    },
    {
      "inputs": [
        {
          "internalType": "address",
          "name": "_approved",
          "type": "address"
        },
        {
          "internalType": "uint256",
          "name": "_tokenId",
          "type": "uint256"
        }
      ],
      "name": "approve",
      "outputs": [],
      "stateMutability": "nonpayable",
      "type": "function"
    },
    {
      "inputs": [
        {
          "internalType": "address",
          "name": "_operator",
          "type": "address"
        },
        {
          "internalType": "bool",
          "name": "_approved",
          "type": "bool"
        }
      ],
      "name": "setApprovalForAll",
      "outputs": [],
      "stateMutability": "nonpayable",
      "type": "function"
    },
    {
      "inputs": [
        {
          "internalType": "uint256",
          "name": "_tokenId",
          "type": "uint256"
        }
      ],
      "name": "getApproved",
      "outputs": [
        {
          "internalType": "address",
          "name": "",
          "type": "address"
        }
      ],
      "stateMutability": "view",
      "type": "function",
      "constant": true
    },
    {
      "inputs": [
        {
          "internalType": "address",
          "name": "_owner",
          "type": "address"
        },
        {
          "internalType": "address",
          "name": "_operator",
          "type": "address"
        }
      ],
      "name": "isApprovedForAll",
      "outputs": [
        {
          "internalType": "bool",
          "name": "",
          "type": "bool"
        }
      ],
      "stateMutability": "view",
      "type": "function",
      "constant": true
    },
    {
      "inputs": [
        {
          "internalType": "address",
          "name": "_from",
          "type": "address"
        },
        {
          "internalType": "address",
          "name": "_to",
          "type": "address"
        },
        {
          "internalType": "uint256",
          "name": "_tokenId",
          "type": "uint256"
        }
      ],
      "name": "safeTransferFrom",
      "outputs": [],
      "stateMutability": "nonpayable",
      "type": "function"
    },
    {
      "inputs": [
        {
          "internalType": "address",
          "name": "_from",
          "type": "address"
        },
        {
          "internalType": "address",
          "name": "_to",
          "type": "address"
        },
        {
          "internalType": "uint256",
          "name": "_tokenId",
          "type": "uint256"
        },
        {
          "internalType": "bytes",
          "name": "data",
          "type": "bytes"
        }
      ],
      "name": "safeTransferFrom",
      "outputs": [],
      "stateMutability": "nonpayable",
      "type": "function"
    },
    {
      "inputs": [
        {
          "internalType": "address",
          "name": "_from",
          "type": "address"
        },
        {
          "internalType": "address",
          "name": "_to",
          "type": "address"
        },
        {
          "internalType": "uint256",
          "name": "_tokenId",
          "type": "uint256"
        }
      ],
      "name": "transferFrom",
      "outputs": [],
      "stateMutability": "nonpayable",
      "type": "function"
    }
  ],
  "bytecode": "0x60806040523480156200001157600080fd5b50600062000024620000e160201b60201c565b9050806000806101000a81548173ffffffffffffffffffffffffffffffffffffffff021916908373ffffffffffffffffffffffffffffffffffffffff1602179055508073ffffffffffffffffffffffffffffffffffffffff16600073ffffffffffffffffffffffffffffffffffffffff167f8be0079c531659141344cd1fd0a4f28419497f9722a3daafe3b4186f6b6457e060405160405180910390a350620000da6000806000806000620000e960201b60201c565b5062000731565b600033905090565b6000806040518060a001604052808581526020014267ffffffffffffffff1681526020018863ffffffff1681526020018763ffffffff1681526020018661ffff16815250905060018190806001815401808255809150506001900390600052602060002090600202016000909190919091506000820151816000015560208201518160010160006101000a81548167ffffffffffffffff021916908367ffffffffffffffff16021790555060408201518160010160086101000a81548163ffffffff021916908363ffffffff160217905550606082015181600101600c6101000a81548163ffffffff021916908363ffffffff16021790555060808201518160010160106101000a81548161ffff021916908361ffff16021790555050506000600180805490506200021c919062000689565b90507f0a5311bd2a6608f08a180df2ee7c5946819a649b204b554bb8e39825b2c50ad584828a8a89604051620002579594939291906200062c565b60405180910390a162000273600085836200028160201b60201c565b809250505095945050505050565b600073ffffffffffffffffffffffffffffffffffffffff168373ffffffffffffffffffffffffffffffffffffffff1614620004a65760006001620002cb85620005be60201b60201c565b620002d7919062000689565b9050600360008573ffffffffffffffffffffffffffffffffffffffff1673ffffffffffffffffffffffffffffffffffffffff168152602001908152602001600020818154811062000351577f4e487b7100000000000000000000000000000000000000000000000000000000600052603260045260246000fd5b9060005260206000200154600360008673ffffffffffffffffffffffffffffffffffffffff1673ffffffffffffffffffffffffffffffffffffffff1681526020019081526020016000208381548110620003d4577f4e487b7100000000000000000000000000000000000000000000000000000000600052603260045260246000fd5b9060005260206000200181905550600360008573ffffffffffffffffffffffffffffffffffffffff1673ffffffffffffffffffffffffffffffffffffffff16815260200190815260200160002080548062000458577f4e487b7100000000000000000000000000000000000000000000000000000000600052603160045260246000fd5b600190038181906000526020600020016000905590556004600083815260200190815260200160002060006101000a81549073ffffffffffffffffffffffffffffffffffffffff0219169055505b600360008373ffffffffffffffffffffffffffffffffffffffff1673ffffffffffffffffffffffffffffffffffffffff168152602001908152602001600020819080600181540180825580915050600190039060005260206000200160009091909190915055816002600083815260200190815260200160002060006101000a81548173ffffffffffffffffffffffffffffffffffffffff021916908373ffffffffffffffffffffffffffffffffffffffff160217905550808273ffffffffffffffffffffffffffffffffffffffff168473ffffffffffffffffffffffffffffffffffffffff167fddf252ad1be2c89b69c2b068fc378daa952ba7f163c4a11628f55a4df523b3ef60405160405180910390a4505050565b6000600360008373ffffffffffffffffffffffffffffffffffffffff1673ffffffffffffffffffffffffffffffffffffffff168152602001908152602001600020805490509050919050565b6200061581620006c4565b82525050565b6200062681620006f8565b82525050565b600060a0820190506200064360008301886200060a565b6200065260208301876200061b565b6200066160408301866200061b565b6200067060608301856200061b565b6200067f60808301846200061b565b9695505050505050565b60006200069682620006f8565b9150620006a383620006f8565b925082821015620006b957620006b862000702565b5b828203905092915050565b6000620006d182620006d8565b9050919050565b600073ffffffffffffffffffffffffffffffffffffffff82169050919050565b6000819050919050565b7f4e487b7100000000000000000000000000000000000000000000000000000000600052601160045260246000fd5b6132e180620007416000396000f3fe608060405234801561001057600080fd5b50600436106101585760003560e01c806385641105116100c3578063b48343301161007c578063b4834330146103f2578063b88d4fde14610410578063d9ecad7b1461042c578063e985e9c51461045c578063ef5e94aa1461048c578063f2fde38b146104aa57610158565b806385641105146103055780638da5cb5b1461033557806395d89b4114610353578063a21e2b6314610371578063a22cb465146103a6578063a8bd9c32146103c257610158565b806332a2c5d01161011557806332a2c5d01461023157806342842e0e1461024f5780636352211e1461026b57806370a082311461029b578063715018a6146102cb5780638462151c146102d557610158565b806301ffc9a71461015d57806306fdde031461018d578063081812fc146101ab578063095ea7b3146101db57806318160ddd146101f757806323b872dd14610215575b600080fd5b61017760048036038101906101729190612468565b6104c6565b6040516101849190612910565b60405180910390f35b610195610566565b6040516101a2919061292b565b60405180910390f35b6101c560048036038101906101c091906124ba565b6105a3565b6040516101d29190612834565b60405180910390f35b6101f560048036038101906101f0919061242c565b610682565b005b6101ff6106da565b60405161020c9190612ac8565b60405180910390f35b61022f600480360381019061022a9190612321565b6106e7565b005b61023961070c565b6040516102469190612834565b60405180910390f35b61026960048036038101906102649190612321565b610714565b005b610285600480360381019061028091906124ba565b610749565b6040516102929190612834565b60405180910390f35b6102b560048036038101906102b091906122bc565b6107fb565b6040516102c29190612ac8565b60405180910390f35b6102d3610847565b005b6102ef60048036038101906102ea91906122bc565b610981565b6040516102fc91906128ee565b60405180910390f35b61031f600480360381019061031a91906124ba565b610a18565b60405161032c9190612ac8565b60405180910390f35b61033d610ac6565b60405161034a9190612834565b60405180910390f35b61035b610aef565b604051610368919061292b565b60405180910390f35b61038b600480360381019061038691906124ba565b610b2c565b60405161039d96959493929190612ae3565b60405180910390f35b6103c060048036038101906103bb91906123f0565b610d3c565b005b6103dc60048036038101906103d791906124ba565b610ea8565b6040516103e99190612834565b60405180910390f35b6103fa610edb565b6040516104079190612aad565b60405180910390f35b61042a60048036038101906104259190612370565b610ee0565b005b610446600480360381019061044191906124e3565b610f4c565b6040516104539190612ac8565b60405180910390f35b610476600480360381019061047191906122e5565b6110c0565b6040516104839190612910565b60405180910390f35b610494611154565b6040516104a19190612aad565b60405180910390f35b6104c460048036038101906104bf91906122bc565b611168565b005b60006301ffc9a760e01b7bffffffffffffffffffffffffffffffffffffffffffffffffffffffff1916827bffffffffffffffffffffffffffffffffffffffffffffffffffffffff1916148061055f57506380ac58cd60e01b7bffffffffffffffffffffffffffffffffffffffffffffffffffffffff1916827bffffffffffffffffffffffffffffffffffffffffffffffffffffffff1916145b9050919050565b60606040518060400160405280600e81526020017f43727970746f446f7261656d6f6e000000000000000000000000000000000000815250905090565b60008073ffffffffffffffffffffffffffffffffffffffff166002600084815260200190815260200160002060009054906101000a900473ffffffffffffffffffffffffffffffffffffffff1673ffffffffffffffffffffffffffffffffffffffff161415610647576040517f08c379a000000000000000000000000000000000000000000000000000000000815260040161063e906129cd565b60405180910390fd5b6004600083815260200190815260200160002060009054906101000a900473ffffffffffffffffffffffffffffffffffffffff169050919050565b61068c3382611311565b6106cb576040517f08c379a00000000000000000000000000000000000000000000000000000000081526004016106c29061298d565b60405180910390fd5b6106d633838361137d565b5050565b6000600180549050905090565b6106f33384848461142f565b6106fc57600080fd5b610707838383611628565b505050565b600030905090565b6107203384848461142f565b61072957600080fd5b61074483838360405180602001604052806000815250611957565b505050565b6000806002600084815260200190815260200160002060009054906101000a900473ffffffffffffffffffffffffffffffffffffffff169050600073ffffffffffffffffffffffffffffffffffffffff168173ffffffffffffffffffffffffffffffffffffffff1614156107f2576040517f08c379a00000000000000000000000000000000000000000000000000000000081526004016107e9906129ad565b60405180910390fd5b80915050919050565b6000600360008373ffffffffffffffffffffffffffffffffffffffff1673ffffffffffffffffffffffffffffffffffffffff168152602001908152602001600020805490509050919050565b61084f61197d565b73ffffffffffffffffffffffffffffffffffffffff1661086d610ac6565b73ffffffffffffffffffffffffffffffffffffffff16146108c3576040517f08c379a00000000000000000000000000000000000000000000000000000000081526004016108ba906129ed565b60405180910390fd5b600073ffffffffffffffffffffffffffffffffffffffff1660008054906101000a900473ffffffffffffffffffffffffffffffffffffffff1673ffffffffffffffffffffffffffffffffffffffff167f8be0079c531659141344cd1fd0a4f28419497f9722a3daafe3b4186f6b6457e060405160405180910390a360008060006101000a81548173ffffffffffffffffffffffffffffffffffffffff021916908373ffffffffffffffffffffffffffffffffffffffff160217905550565b6060600360008373ffffffffffffffffffffffffffffffffffffffff1673ffffffffffffffffffffffffffffffffffffffff168152602001908152602001600020805480602002602001604051908101604052809291908181526020018280548015610a0c57602002820191906000526020600020905b8154815260200190600101908083116109f8575b50505050509050919050565b6000600a61ffff16600660009054906101000a900461ffff1661ffff1610610a75576040517f08c379a0000000000000000000000000000000000000000000000000000000008152600401610a6c90612a6d565b60405180910390fd5b6006600081819054906101000a900461ffff1680929190610a9590612e7c565b91906101000a81548161ffff021916908361ffff16021790555050610abf60008060008533611985565b9050919050565b60008060009054906101000a900473ffffffffffffffffffffffffffffffffffffffff16905090565b60606040518060400160405280600481526020017f444f524100000000000000000000000000000000000000000000000000000000815250905090565b60008060008060008060018781548110610b6f577f4e487b7100000000000000000000000000000000000000000000000000000000600052603260045260246000fd5b906000526020600020906002020160000154955060018781548110610bbd577f4e487b7100000000000000000000000000000000000000000000000000000000600052603260045260246000fd5b906000526020600020906002020160010160009054906101000a900467ffffffffffffffff16945060018781548110610c1f577f4e487b7100000000000000000000000000000000000000000000000000000000600052603260045260246000fd5b906000526020600020906002020160010160089054906101000a900463ffffffff16935060018781548110610c7d577f4e487b7100000000000000000000000000000000000000000000000000000000600052603260045260246000fd5b9060005260206000209060020201600101600c9054906101000a900463ffffffff16925060018781548110610cdb577f4e487b7100000000000000000000000000000000000000000000000000000000600052603260045260246000fd5b906000526020600020906002020160010160109054906101000a900461ffff1691506002600088815260200190815260200160002060009054906101000a900473ffffffffffffffffffffffffffffffffffffffff16905091939550919395565b3373ffffffffffffffffffffffffffffffffffffffff168273ffffffffffffffffffffffffffffffffffffffff161415610dab576040517f08c379a0000000000000000000000000000000000000000000000000000000008152600401610da29061296d565b60405180910390fd5b80600560003373ffffffffffffffffffffffffffffffffffffffff1673ffffffffffffffffffffffffffffffffffffffff16815260200190815260200160002060008473ffffffffffffffffffffffffffffffffffffffff1673ffffffffffffffffffffffffffffffffffffffff16815260200190815260200160002060006101000a81548160ff0219169083151502179055508173ffffffffffffffffffffffffffffffffffffffff163373ffffffffffffffffffffffffffffffffffffffff167f17307eab39ab6107e8899845ad3d59bd9653f200f220920489ca2b5937696c3183604051610e9c9190612910565b60405180910390a35050565b60046020528060005260406000206000915054906101000a900473ffffffffffffffffffffffffffffffffffffffff1681565b600a81565b610eec3386868661142f565b610ef557600080fd5b610f4585858585858080601f016020809104026020016040519081016040528093929190818152602001838380828437600081840152601f19601f82011690508083019250505050505050611957565b5050505050565b6000610f583384611311565b8015610f6a5750610f693383611311565b5b610fa9576040517f08c379a0000000000000000000000000000000000000000000000000000000008152600401610fa090612a8d565b60405180910390fd5b600060018481548110610fe5577f4e487b7100000000000000000000000000000000000000000000000000000000600052603260045260246000fd5b90600052602060002090600202019050600060018481548110611031577f4e487b7100000000000000000000000000000000000000000000000000000000600052603260045260246000fd5b90600052602060002090600202019050600061105583600001548360000154611b11565b90506000600160028460010160109054906101000a900461ffff168660010160109054906101000a900461ffff1661108d9190612bb5565b6110979190612c43565b6110a19190612bb5565b61ffff1690506110b48787838533611985565b94505050505092915050565b6000600560008473ffffffffffffffffffffffffffffffffffffffff1673ffffffffffffffffffffffffffffffffffffffff16815260200190815260200160002060008373ffffffffffffffffffffffffffffffffffffffff1673ffffffffffffffffffffffffffffffffffffffff16815260200190815260200160002060009054906101000a900460ff16905092915050565b600660009054906101000a900461ffff1681565b61117061197d565b73ffffffffffffffffffffffffffffffffffffffff1661118e610ac6565b73ffffffffffffffffffffffffffffffffffffffff16146111e4576040517f08c379a00000000000000000000000000000000000000000000000000000000081526004016111db906129ed565b60405180910390fd5b600073ffffffffffffffffffffffffffffffffffffffff168173ffffffffffffffffffffffffffffffffffffffff161415611254576040517f08c379a000000000000000000000000000000000000000000000000000000000815260040161124b9061294d565b60405180910390fd5b8073ffffffffffffffffffffffffffffffffffffffff1660008054906101000a900473ffffffffffffffffffffffffffffffffffffffff1673ffffffffffffffffffffffffffffffffffffffff167f8be0079c531659141344cd1fd0a4f28419497f9722a3daafe3b4186f6b6457e060405160405180910390a3806000806101000a81548173ffffffffffffffffffffffffffffffffffffffff021916908373ffffffffffffffffffffffffffffffffffffffff16021790555050565b60008273ffffffffffffffffffffffffffffffffffffffff166002600084815260200190815260200160002060009054906101000a900473ffffffffffffffffffffffffffffffffffffffff1673ffffffffffffffffffffffffffffffffffffffff1614905092915050565b816004600083815260200190815260200160002060006101000a81548173ffffffffffffffffffffffffffffffffffffffff021916908373ffffffffffffffffffffffffffffffffffffffff160217905550808273ffffffffffffffffffffffffffffffffffffffff168473ffffffffffffffffffffffffffffffffffffffff167f8c5be1e5ebec7d5bd14f71427d1e84f3dd0314c0f7b2291e5b200ac8c7c3b92560405160405180910390a4505050565b60008073ffffffffffffffffffffffffffffffffffffffff166002600084815260200190815260200160002060009054906101000a900473ffffffffffffffffffffffffffffffffffffffff1673ffffffffffffffffffffffffffffffffffffffff1614156114d3576040517f08c379a00000000000000000000000000000000000000000000000000000000081526004016114ca906129cd565b60405180910390fd5b600073ffffffffffffffffffffffffffffffffffffffff168373ffffffffffffffffffffffffffffffffffffffff161415611543576040517f08c379a000000000000000000000000000000000000000000000000000000000815260040161153a90612a4d565b60405180910390fd5b61154d8483611311565b61158c576040517f08c379a000000000000000000000000000000000000000000000000000000000815260040161158390612a0d565b60405180910390fd5b8373ffffffffffffffffffffffffffffffffffffffff168573ffffffffffffffffffffffffffffffffffffffff1614806115cc57506115cb84866110c0565b5b806115dd57506115dc858361206a565b5b61161c576040517f08c379a000000000000000000000000000000000000000000000000000000000815260040161161390612a2d565b60405180910390fd5b60019050949350505050565b600073ffffffffffffffffffffffffffffffffffffffff168373ffffffffffffffffffffffffffffffffffffffff161461183f5760006001611669856107fb565b6116739190612d6f565b9050600360008573ffffffffffffffffffffffffffffffffffffffff1673ffffffffffffffffffffffffffffffffffffffff16815260200190815260200160002081815481106116ec577f4e487b7100000000000000000000000000000000000000000000000000000000600052603260045260246000fd5b9060005260206000200154600360008673ffffffffffffffffffffffffffffffffffffffff1673ffffffffffffffffffffffffffffffffffffffff168152602001908152602001600020838154811061176e577f4e487b7100000000000000000000000000000000000000000000000000000000600052603260045260246000fd5b9060005260206000200181905550600360008573ffffffffffffffffffffffffffffffffffffffff1673ffffffffffffffffffffffffffffffffffffffff1681526020019081526020016000208054806117f1577f4e487b7100000000000000000000000000000000000000000000000000000000600052603160045260246000fd5b600190038181906000526020600020016000905590556004600083815260200190815260200160002060006101000a81549073ffffffffffffffffffffffffffffffffffffffff0219169055505b600360008373ffffffffffffffffffffffffffffffffffffffff1673ffffffffffffffffffffffffffffffffffffffff168152602001908152602001600020819080600181540180825580915050600190039060005260206000200160009091909190915055816002600083815260200190815260200160002060006101000a81548173ffffffffffffffffffffffffffffffffffffffff021916908373ffffffffffffffffffffffffffffffffffffffff160217905550808273ffffffffffffffffffffffffffffffffffffffff168473ffffffffffffffffffffffffffffffffffffffff167fddf252ad1be2c89b69c2b068fc378daa952ba7f163c4a11628f55a4df523b3ef60405160405180910390a4505050565b611962848484611628565b61196e848484846120d6565b61197757600080fd5b50505050565b600033905090565b6000806040518060a001604052808581526020014267ffffffffffffffff1681526020018863ffffffff1681526020018763ffffffff1681526020018661ffff16815250905060018190806001815401808255809150506001900390600052602060002090600202016000909190919091506000820151816000015560208201518160010160006101000a81548167ffffffffffffffff021916908367ffffffffffffffff16021790555060408201518160010160086101000a81548163ffffffff021916908363ffffffff160217905550606082015181600101600c6101000a81548163ffffffff021916908363ffffffff16021790555060808201518160010160106101000a81548161ffff021916908361ffff1602179055505050600060018080549050611ab69190612d6f565b90507f0a5311bd2a6608f08a180df2ee7c5946819a649b204b554bb8e39825b2c50ad584828a8a89604051611aef95949392919061289b565b60405180910390a1611b0360008583611628565b809250505095945050505050565b600080600a67ffffffffffffffff811115611b55577f4e487b7100000000000000000000000000000000000000000000000000000000600052604160045260246000fd5b604051908082528060200260200182016040528015611b835781602001602082028036833780820191505090505b5090506000604051806101400160405280606460ff168152602001606460ff168152602001606460ff168152602001606460ff168152602001600a60ff168152602001600a60ff168152602001600a60ff168152602001606460ff168152602001600a60ff168152602001600a60ff1681525090506000620100004244604051602001611c11929190612808565b6040516020818303038152906040528051906020012060001c611c349190612ee2565b9050600080600a9050600191505b6102008261ffff1611611f7d57600181611c5c9190612d3b565b9050600a83611c6b9190612eb1565b61ffff168161ffff161415611d7e576002848261ffff16600a8110611cb9577f4e487b7100000000000000000000000000000000000000000000000000000000600052603260045260246000fd5b602002015160ff1689611ccc9190612ee2565b858361ffff16600a8110611d09577f4e487b7100000000000000000000000000000000000000000000000000000000600052603260045260246000fd5b602002015160ff1689611d1c9190612ee2565b611d269190612bed565b611d309190612c74565b858261ffff1681518110611d6d577f4e487b7100000000000000000000000000000000000000000000000000000000600052603260045260246000fd5b602002602001018181525050611ec5565b600082841661ffff1614611e2a57838161ffff16600a8110611dc9577f4e487b7100000000000000000000000000000000000000000000000000000000600052603260045260246000fd5b602002015160ff1687611ddc9190612ee2565b858261ffff1681518110611e19577f4e487b7100000000000000000000000000000000000000000000000000000000600052603260045260246000fd5b602002602001018181525050611ec4565b838161ffff16600a8110611e67577f4e487b7100000000000000000000000000000000000000000000000000000000600052603260045260246000fd5b602002015160ff1688611e7a9190612ee2565b858261ffff1681518110611eb7577f4e487b7100000000000000000000000000000000000000000000000000000000600052603260045260246000fd5b6020026020010181815250505b5b838161ffff16600a8110611f02577f4e487b7100000000000000000000000000000000000000000000000000000000600052603260045260246000fd5b602002015160ff1687611f159190612c74565b9650838161ffff16600a8110611f54577f4e487b7100000000000000000000000000000000000000000000000000000000600052603260045260246000fd5b602002015160ff1688611f679190612c74565b9750600282611f769190612ca5565b9150611c42565b600091505b600a8261ffff16101561205f57848261ffff1681518110611fcc577f4e487b7100000000000000000000000000000000000000000000000000000000600052603260045260246000fd5b602002602001015186611fdf9190612bed565b955060098261ffff161461204c5783600183611ffb9190612bb5565b61ffff16600a8110612036577f4e487b7100000000000000000000000000000000000000000000000000000000600052603260045260246000fd5b602002015160ff16866120499190612ce1565b95505b818061205790612e7c565b925050611f82565b505050505092915050565b60008273ffffffffffffffffffffffffffffffffffffffff166004600084815260200190815260200160002060009054906101000a900473ffffffffffffffffffffffffffffffffffffffff1673ffffffffffffffffffffffffffffffffffffffff1614905092915050565b60006120e1846121f0565b6120ee57600190506121e8565b60008473ffffffffffffffffffffffffffffffffffffffff1663150b7a02338887876040518563ffffffff1660e01b815260040161212f949392919061284f565b602060405180830381600087803b15801561214957600080fd5b505af115801561215d573d6000803e3d6000fd5b505050506040513d601f19601f820116820180604052508101906121819190612491565b90507f150b7a023d4804d13e8c85fb27262cb750cf6ba9f9dd3bb30d90f482ceeb4b1f7bffffffffffffffffffffffffffffffffffffffffffffffffffffffff1916817bffffffffffffffffffffffffffffffffffffffffffffffffffffffff1916149150505b949350505050565b600080823b905060008163ffffffff1611915050919050565b6000813590506122188161324f565b92915050565b60008135905061222d81613266565b92915050565b6000813590506122428161327d565b92915050565b6000815190506122578161327d565b92915050565b60008083601f84011261226f57600080fd5b8235905067ffffffffffffffff81111561228857600080fd5b6020830191508360018202830111156122a057600080fd5b9250929050565b6000813590506122b681613294565b92915050565b6000602082840312156122ce57600080fd5b60006122dc84828501612209565b91505092915050565b600080604083850312156122f857600080fd5b600061230685828601612209565b925050602061231785828601612209565b9150509250929050565b60008060006060848603121561233657600080fd5b600061234486828701612209565b935050602061235586828701612209565b9250506040612366868287016122a7565b9150509250925092565b60008060008060006080868803121561238857600080fd5b600061239688828901612209565b95505060206123a788828901612209565b94505060406123b8888289016122a7565b935050606086013567ffffffffffffffff8111156123d557600080fd5b6123e18882890161225d565b92509250509295509295909350565b6000806040838503121561240357600080fd5b600061241185828601612209565b92505060206124228582860161221e565b9150509250929050565b6000806040838503121561243f57600080fd5b600061244d85828601612209565b925050602061245e858286016122a7565b9150509250929050565b60006020828403121561247a57600080fd5b600061248884828501612233565b91505092915050565b6000602082840312156124a357600080fd5b60006124b184828501612248565b91505092915050565b6000602082840312156124cc57600080fd5b60006124da848285016122a7565b91505092915050565b600080604083850312156124f657600080fd5b6000612504858286016122a7565b9250506020612515858286016122a7565b9150509250929050565b600061252b83836127b5565b60208301905092915050565b61254081612da3565b82525050565b600061255182612b54565b61255b8185612b82565b935061256683612b44565b8060005b8381101561259757815161257e888261251f565b975061258983612b75565b92505060018101905061256a565b5085935050505092915050565b6125ad81612db5565b82525050565b60006125be82612b5f565b6125c88185612b93565b93506125d8818560208601612e49565b6125e181612f71565b840191505092915050565b60006125f782612b6a565b6126018185612ba4565b9350612611818560208601612e49565b61261a81612f71565b840191505092915050565b6000612632602683612ba4565b915061263d82612f82565b604082019050919050565b6000612655601983612ba4565b915061266082612fd1565b602082019050919050565b6000612678602b83612ba4565b915061268382612ffa565b604082019050919050565b600061269b602983612ba4565b91506126a682613049565b604082019050919050565b60006126be601883612ba4565b91506126c982613098565b602082019050919050565b60006126e1602083612ba4565b91506126ec826130c1565b602082019050919050565b6000612704602a83612ba4565b915061270f826130ea565b604082019050919050565b6000612727603783612ba4565b915061273282613139565b604082019050919050565b600061274a601783612ba4565b915061275582613188565b602082019050919050565b600061276d602183612ba4565b9150612778826131b1565b604082019050919050565b6000612790602383612ba4565b915061279b82613200565b604082019050919050565b6127af81612ded565b82525050565b6127be81612e1b565b82525050565b6127cd81612e1b565b82525050565b6127e46127df82612e1b565b612ea7565b82525050565b6127f381612e25565b82525050565b61280281612e35565b82525050565b600061281482856127d3565b60208201915061282482846127d3565b6020820191508190509392505050565b60006020820190506128496000830184612537565b92915050565b60006080820190506128646000830187612537565b6128716020830186612537565b61287e60408301856127c4565b818103606083015261289081846125b3565b905095945050505050565b600060a0820190506128b06000830188612537565b6128bd60208301876127c4565b6128ca60408301866127c4565b6128d760608301856127c4565b6128e460808301846127c4565b9695505050505050565b600060208201905081810360008301526129088184612546565b905092915050565b600060208201905061292560008301846125a4565b92915050565b6000602082019050818103600083015261294581846125ec565b905092915050565b6000602082019050818103600083015261296681612625565b9050919050565b6000602082019050818103600083015261298681612648565b9050919050565b600060208201905081810360008301526129a68161266b565b9050919050565b600060208201905081810360008301526129c68161268e565b9050919050565b600060208201905081810360008301526129e6816126b1565b9050919050565b60006020820190508181036000830152612a06816126d4565b9050919050565b60006020820190508181036000830152612a26816126f7565b9050919050565b60006020820190508181036000830152612a468161271a565b9050919050565b60006020820190508181036000830152612a668161273d565b9050919050565b60006020820190508181036000830152612a8681612760565b9050919050565b60006020820190508181036000830152612aa681612783565b9050919050565b6000602082019050612ac260008301846127a6565b92915050565b6000602082019050612add60008301846127c4565b92915050565b600060c082019050612af860008301896127c4565b612b0560208301886127f9565b612b1260408301876127ea565b612b1f60608301866127ea565b612b2c60808301856127a6565b612b3960a0830184612537565b979650505050505050565b6000819050602082019050919050565b600081519050919050565b600081519050919050565b600081519050919050565b6000602082019050919050565b600082825260208201905092915050565b600082825260208201905092915050565b600082825260208201905092915050565b6000612bc082612ded565b9150612bcb83612ded565b92508261ffff03821115612be257612be1612f13565b5b828201905092915050565b6000612bf882612e1b565b9150612c0383612e1b565b9250827fffffffffffffffffffffffffffffffffffffffffffffffffffffffffffffffff03821115612c3857612c37612f13565b5b828201905092915050565b6000612c4e82612ded565b9150612c5983612ded565b925082612c6957612c68612f42565b5b828204905092915050565b6000612c7f82612e1b565b9150612c8a83612e1b565b925082612c9a57612c99612f42565b5b828204905092915050565b6000612cb082612ded565b9150612cbb83612ded565b92508161ffff0483118215151615612cd657612cd5612f13565b5b828202905092915050565b6000612cec82612e1b565b9150612cf783612e1b565b9250817fffffffffffffffffffffffffffffffffffffffffffffffffffffffffffffffff0483118215151615612d3057612d2f612f13565b5b828202905092915050565b6000612d4682612ded565b9150612d5183612ded565b925082821015612d6457612d63612f13565b5b828203905092915050565b6000612d7a82612e1b565b9150612d8583612e1b565b925082821015612d9857612d97612f13565b5b828203905092915050565b6000612dae82612dfb565b9050919050565b60008115159050919050565b60007fffffffff0000000000000000000000000000000000000000000000000000000082169050919050565b600061ffff82169050919050565b600073ffffffffffffffffffffffffffffffffffffffff82169050919050565b6000819050919050565b600063ffffffff82169050919050565b600067ffffffffffffffff82169050919050565b60005b83811015612e67578082015181840152602081019050612e4c565b83811115612e76576000848401525b50505050565b6000612e8782612ded565b915061ffff821415612e9c57612e9b612f13565b5b600182019050919050565b6000819050919050565b6000612ebc82612ded565b9150612ec783612ded565b925082612ed757612ed6612f42565b5b828206905092915050565b6000612eed82612e1b565b9150612ef883612e1b565b925082612f0857612f07612f42565b5b828206905092915050565b7f4e487b7100000000000000000000000000000000000000000000000000000000600052601160045260246000fd5b7f4e487b7100000000000000000000000000000000000000000000000000000000600052601260045260246000fd5b6000601f19601f8301169050919050565b7f4f776e61626c653a206e6577206f776e657220697320746865207a65726f206160008201527f6464726573730000000000000000000000000000000000000000000000000000602082015250565b7f4552433732313a20596f752061726520746865206f776e657200000000000000600082015250565b7f4552433732313a20596f7520617265206e6f7420746865206f776e6572206f6660008201527f207468697320746f6b656e000000000000000000000000000000000000000000602082015250565b7f4552433732313a206f776e657220717565727920666f72206e6f6e657869737460008201527f656e7420746f6b656e0000000000000000000000000000000000000000000000602082015250565b7f4552433732313a20496e76616c696420746f6b656e2049440000000000000000600082015250565b7f4f776e61626c653a2063616c6c6572206973206e6f7420746865206f776e6572600082015250565b7f4552433732313a205468652073656e64657220646f6573206e6f74206f776e2060008201527f7468697320746f6b656e00000000000000000000000000000000000000000000602082015250565b7f4552433732313a20596f7520646f6e2774206861766520746865207065726d6960008201527f7373696f6e20746f207472616e7366657220746f6b656e000000000000000000602082015250565b7f4552433732313a20496e76616c69642061646472657373000000000000000000600082015250565b7f43616e6e6f7420637265617465206d6f72652067656e203020646f7261656d6f60008201527f6e00000000000000000000000000000000000000000000000000000000000000602082015250565b7f596f7520617265206e6f7420746865206f776e6572206f66207468697320746f60008201527f6b656e0000000000000000000000000000000000000000000000000000000000602082015250565b61325881612da3565b811461326357600080fd5b50565b61326f81612db5565b811461327a57600080fd5b50565b61328681612dc1565b811461329157600080fd5b50565b61329d81612e1b565b81146132a857600080fd5b5056fea264697066735822122027df3aea1b5ea72afd4c1bc513c1c0b596ac25ed84cf8117454b2e16dcff073d64736f6c63430008040033",
  "immutableReferences": {},
  "source": "// SPDX-License-Identifier: MIT\npragma solidity ^0.8.0;\n\n// import \"../node_modules/@openzeppelin/contracts/token/ERC721/IERC721.sol\";\n// import \"../node_modules/@openzeppelin/contracts/token/ERC721/extensions/IERC721Metadata.sol\";\n// import \"../node_modules/@openzeppelin/contracts/token/ERC721/extensions/IERC721Enumerable.sol\";\n\nimport \"./IERC721.sol\";\nimport \"./IERC721Receiver.sol\";\nimport \"../node_modules/@openzeppelin/contracts/access/Ownable.sol\";\n\ncontract Doracontract is IERC721, Ownable {\n  string constant _name = \"CryptoDoraemon\";\n  string constant _symbol = \"DORA\";\n  uint16 public constant CREATION_LIMIT_GEN0 = 10;\n\n  bytes4 internal constant MAGIC_ERC721_RECEIVED = bytes4(keccak256(\"onERC721Received(address,address,uint256,bytes)\"));\n  bytes4 private constant _INTERFACE_ID_ERC721 = 0x80ac58cd;\n  bytes4 private constant _INTERFACE_ID_ERC165 = 0x01ffc9a7;\n\n  event Birth(\n    address owner, \n    uint256 doraemonId, \n    uint256 mumId, \n    uint256 dadId, \n    uint256 genes\n  );\n\n  struct Doraemon {\n    uint256 genes;\n    uint64 birthTime;\n    uint32 mumId;\n    uint32 dadId;\n    uint16 generation;\n  }\n\n  //Array of all tokens (index => token) (index, token ID: position of allTokens array)\n  Doraemon[] private allTokens;\n  //Token ID to owner address\n  mapping (uint256 => address) private tokenOwner;\n  //Owner to list of owned token IDs (addr => index)\n  mapping(address => uint256[]) private ownedTokens;\n  //Give right to transfer (token ID => approved address)\n  mapping (uint256 => address) public tokenIndexToApproved;\n  //Give operator (myAddr => operatorAddr => true/false)\n  mapping (address => mapping(address => bool)) private operatorApprovals;\n\n  //Counts created gen 0 doraemons\n  uint16 public gen0Counter; \n\n  constructor(){\n    _createDoraemon(0, 0, 0, 0, address(0)); //to fill index 0 spot\n  }\n\n  function getContractAddress() external view returns(address){\n    return address(this);\n  }\n\n  function supportsInterface(bytes4 _interfaceId) external pure returns (bool) {\n    return (_interfaceId == _INTERFACE_ID_ERC165 || _interfaceId == _INTERFACE_ID_ERC721);\n  }\n\n  function createDoraemonGen0(uint256 _genes) public returns(uint256){\n    require(gen0Counter < CREATION_LIMIT_GEN0, \"Cannot create more gen 0 doraemon\");\n    gen0Counter++;\n\n    return _createDoraemon(0, 0, 0, _genes, msg.sender);\n  }\n\n  function _createDoraemon(\n    uint256 _mumId, \n    uint256 _dadId, \n    uint256 _generation, \n    uint256 _genes, \n    address _owner\n  ) private returns(uint256) {\n    Doraemon memory _doraemon = Doraemon({\n      genes: _genes,\n      birthTime: uint64(block.timestamp),\n      mumId: uint32(_mumId),\n      dadId: uint32(_dadId),\n      generation: uint16(_generation)\n    });\n    allTokens.push(_doraemon);\n    uint256 newDoraemonId = allTokens.length - 1; \n\n    emit Birth(_owner, newDoraemonId, _mumId, _dadId, _genes);\n    _transfer(address(0), _owner, newDoraemonId);\n\n    return newDoraemonId;\n  } \n\n  function getDoraemon(uint256 _tokenId) external view returns(\n    uint256 genes,\n    uint64 birthTime,\n    uint32 mumId,\n    uint32 dadId,\n    uint16 generation,\n    address owner\n  ){\n    genes = allTokens[_tokenId].genes;\n    birthTime = allTokens[_tokenId].birthTime;\n    mumId = allTokens[_tokenId].mumId;\n    dadId = allTokens[_tokenId].dadId;\n    generation = allTokens[_tokenId].generation;\n    owner = tokenOwner[_tokenId];\n  }\n\n  function tokensOfOwner(address _owner) external view returns(uint256[] memory){\n    return ownedTokens[_owner];\n  }\n\n  function breed(uint256 _dadId, uint256 _mumId) public returns (uint256){\n    require(_owns(msg.sender, _dadId) && _owns(msg.sender, _mumId), \"You are not the owner of this token\");\n    Doraemon storage dad = allTokens[_dadId];\n    Doraemon storage mum = allTokens[_mumId];\n    uint256 newDna = _mixDna(dad.genes, mum.genes);\n    uint256 newGen = (dad.generation + mum.generation) / 2 + 1;\n    return _createDoraemon(_dadId, _mumId, newGen, newDna, msg.sender);\n  }\n\n  function balanceOf(address _owner) public view override returns(uint256){\n    return ownedTokens[_owner].length;\n  }\n\n  function totalSupply() external view override returns(uint256){\n    return allTokens.length;\n  }\n\n  function name() external pure override returns (string memory){\n    return _name;\n  } \n\n  function symbol() external pure override returns (string memory){\n    return _symbol;\n  } \n\n  function ownerOf(uint256 _tokenId) public view override returns(address){\n    address owner = tokenOwner[_tokenId];\n    require(owner != address(0), \"ERC721: owner query for nonexistent token\");\n    return owner;\n  }\n\n  function approve(address _approved, uint256 _tokenId) external override{\n    require(_owns(msg.sender, _tokenId), \"ERC721: You are not the owner of this token\");\n    _approve(msg.sender, _approved, _tokenId);\n  }\n\n  function setApprovalForAll(address _operator, bool _approved) external override {\n    require(_operator != msg.sender, \"ERC721: You are the owner\");\n    operatorApprovals[msg.sender][_operator] = _approved;\n    emit ApprovalForAll(msg.sender, _operator, _approved);\n  }\n\n  function getApproved(uint256 _tokenId) external view override returns(address){\n    require(tokenOwner[_tokenId] != address(0), \"ERC721: Invalid token ID\");\n    return tokenIndexToApproved[_tokenId];\n  }\n\n  function isApprovedForAll(address _owner, address _operator) public view override returns(bool){\n    return operatorApprovals[_owner][_operator];\n  }\n\n  function safeTransferFrom(address _from, address _to, uint256 _tokenId) external override {\n    require(_isApprovedOrOwner(msg.sender, _from, _to, _tokenId));\n    _safeTransfer(_from, _to, _tokenId, \"\");\n  }\n\n  function safeTransferFrom(address _from, address _to, uint256 _tokenId, bytes calldata data) external override {\n    require(_isApprovedOrOwner(msg.sender, _from, _to, _tokenId));\n    _safeTransfer(_from, _to, _tokenId, data);\n  }\n\n  function _safeTransfer(address _from, address _to, uint256 _tokenId, bytes memory _data) internal {\n    _transfer(_from, _to, _tokenId);\n    require(_checkERC721Support(_from, _to, _tokenId, _data));\n  }\n\n  function transferFrom(address _from, address _to, uint256 _tokenId) external override {\n    require(_isApprovedOrOwner(msg.sender, _from, _to, _tokenId));\n    _transfer(_from, _to, _tokenId);\n  }\n\n  function _transfer(address _from, address _to, uint256 _tokenId) internal{\n    if(_from != address(0)){\n      uint256 lastTokenIndex = balanceOf(_from) - 1;\n      ownedTokens[_from][_tokenId] = ownedTokens[_from][lastTokenIndex];\n      ownedTokens[_from].pop();\n      delete tokenIndexToApproved[_tokenId];\n    }\n    ownedTokens[_to].push(_tokenId);\n    tokenOwner[_tokenId] = _to;\n    emit Transfer(_from, _to, _tokenId);\n  }\n\n  function _owns(address _claimant, uint256 _tokenId) internal view returns(bool){\n    return tokenOwner[_tokenId] == _claimant;\n  }\n\n  function _approve(address _owner, address _approved, uint256 _tokenId) internal {\n    tokenIndexToApproved[_tokenId] = _approved;\n    emit Approval(_owner, _approved, _tokenId);\n  }\n\n  function _approvedFor(address _claimant, uint256 _tokenId) internal view returns (bool) {\n    return tokenIndexToApproved[_tokenId] == _claimant;\n  }\n\n  function _checkERC721Support(address _from, address _to, uint256 _tokenId, bytes memory _data) internal returns (bool) {\n    if(!_isContract(_to)){\n      return true;\n    }\n\n    bytes4 returnData = IERC721Receiver(_to).onERC721Received(msg.sender, _from, _tokenId, _data);\n    return returnData == MAGIC_ERC721_RECEIVED;\n  }\n\n  function _isContract(address _to) view internal returns(bool){\n    uint32 size; //code size\n    assembly{\n      size := extcodesize(_to)\n    }\n    return size > 0;\n  }\n\n  function _isApprovedOrOwner(address _spender, address _from, address _to, uint256 _tokenId) internal view returns(bool){\n    require(tokenOwner[_tokenId] != address(0), \"ERC721: Invalid token ID\");\n    require(_to != address(0), \"ERC721: Invalid address\");\n    require(_owns(_from, _tokenId), \"ERC721: The sender does not own this token\");\n    require(\n      _spender == _from || isApprovedForAll(_from, _spender) || _approvedFor(_spender, _tokenId), \n      \"ERC721: You don't have the permission to transfer token\"\n    );\n    return true;\n  }\n\n  function _mixDna(uint256 _dadDna, uint256 _mumDna) internal view returns(uint256 newGene){\n    uint256[] memory geneArray = new uint256[](10);\n    uint8[10] memory digitControl = [100, 100, 100, 100, 10, 10, 10, 100, 10, 10]; \n    uint16 random = uint16(uint256(keccak256(abi.encodePacked(block.timestamp, block.difficulty))) % 65536);\n    uint16 i;\n    uint16 index = 10;\n    for(i = 1; i <= 512; i = i * 2){\n      index = index - 1;\n      if(index == random % 10){\n        geneArray[index] = (_mumDna % digitControl[index] + _dadDna % digitControl[index]) / 2;\n      }else if(random & i != 0){\n        geneArray[index] = _mumDna % digitControl[index];\n      }else{\n        geneArray[index] = _dadDna % digitControl[index];\n      }\n      _mumDna /= digitControl[index];\n      _dadDna /= digitControl[index];\n    }\n    for(i = 0; i < 10; i++){\n      newGene += geneArray[i];\n      if(i != 9){\n        newGene *= digitControl[i+1];\n      }\n    }\n  }\n}",
  "sourcePath": "/Users/riomain/code/blockchain/academy/nftgame/doraemon/contracts/Doracontract.sol",
  "compiler": {
    "name": "solc",
    "version": "0.8.4+commit.c7e474f2.Emscripten.clang"
  },
  "schemaVersion": "3.3.4",
  "updatedAt": "2021-05-24T01:47:09.752Z",
  "networkType": "ethereum",
  "devdoc": {
    "kind": "dev",
    "methods": {
      "owner()": {
        "details": "Returns the address of the current owner."
      },
      "renounceOwnership()": {
        "details": "Leaves the contract without owner. It will not be possible to call `onlyOwner` functions anymore. Can only be called by the current owner. NOTE: Renouncing ownership will leave the contract without an owner, thereby removing any functionality that is only available to the owner."
      },
      "transferOwnership(address)": {
        "details": "Transfers ownership of the contract to a new account (`newOwner`). Can only be called by the current owner."
      }
    },
    "version": 1
  },
  "userdoc": {
    "kind": "user",
    "methods": {},
    "version": 1
  }
}