{
  "contractName": "Doracontract",
  "abi": [
    {
      "anonymous": false,
      "inputs": [
        {
          "indexed": true,
          "internalType": "address",
          "name": "owner",
          "type": "address"
        },
        {
          "indexed": true,
          "internalType": "address",
          "name": "approved",
          "type": "address"
        },
        {
          "indexed": true,
          "internalType": "uint256",
          "name": "tokenId",
          "type": "uint256"
        }
      ],
      "name": "Approval",
      "type": "event"
    },
    {
      "anonymous": false,
      "inputs": [
        {
          "indexed": true,
          "internalType": "address",
          "name": "owner",
          "type": "address"
        },
        {
          "indexed": true,
          "internalType": "address",
          "name": "operator",
          "type": "address"
        },
        {
          "indexed": false,
          "internalType": "bool",
          "name": "approved",
          "type": "bool"
        }
      ],
      "name": "ApprovalForAll",
      "type": "event"
    },
    {
      "anonymous": false,
      "inputs": [
        {
          "indexed": false,
          "internalType": "address",
          "name": "owner",
          "type": "address"
        },
        {
          "indexed": false,
          "internalType": "uint256",
          "name": "doraemonId",
          "type": "uint256"
        },
        {
          "indexed": false,
          "internalType": "uint256",
          "name": "mumId",
          "type": "uint256"
        },
        {
          "indexed": false,
          "internalType": "uint256",
          "name": "dadId",
          "type": "uint256"
        },
        {
          "indexed": false,
          "internalType": "uint256",
          "name": "genes",
          "type": "uint256"
        }
      ],
      "name": "Birth",
      "type": "event"
    },
    {
      "anonymous": false,
      "inputs": [
        {
          "indexed": true,
          "internalType": "address",
          "name": "previousOwner",
          "type": "address"
        },
        {
          "indexed": true,
          "internalType": "address",
          "name": "newOwner",
          "type": "address"
        }
      ],
      "name": "OwnershipTransferred",
      "type": "event"
    },
    {
      "anonymous": false,
      "inputs": [
        {
          "indexed": true,
          "internalType": "address",
          "name": "from",
          "type": "address"
        },
        {
          "indexed": true,
          "internalType": "address",
          "name": "to",
          "type": "address"
        },
        {
          "indexed": true,
          "internalType": "uint256",
          "name": "tokenId",
          "type": "uint256"
        }
      ],
      "name": "Transfer",
      "type": "event"
    },
    {
      "inputs": [],
      "name": "CREATION_LIMIT_GEN0",
      "outputs": [
        {
          "internalType": "uint16",
          "name": "",
          "type": "uint16"
        }
      ],
      "stateMutability": "view",
      "type": "function",
      "constant": true
    },
    {
      "inputs": [],
      "name": "gen0Counter",
      "outputs": [
        {
          "internalType": "uint16",
          "name": "",
          "type": "uint16"
        }
      ],
      "stateMutability": "view",
      "type": "function",
      "constant": true
    },
    {
      "inputs": [],
      "name": "owner",
      "outputs": [
        {
          "internalType": "address",
          "name": "",
          "type": "address"
        }
      ],
      "stateMutability": "view",
      "type": "function",
      "constant": true
    },
    {
      "inputs": [],
      "name": "renounceOwnership",
      "outputs": [],
      "stateMutability": "nonpayable",
      "type": "function"
    },
    {
      "inputs": [
        {
          "internalType": "uint256",
          "name": "",
          "type": "uint256"
        }
      ],
      "name": "tokenIndexToApproved",
      "outputs": [
        {
          "internalType": "address",
          "name": "",
          "type": "address"
        }
      ],
      "stateMutability": "view",
      "type": "function",
      "constant": true
    },
    {
      "inputs": [
        {
          "internalType": "address",
          "name": "newOwner",
          "type": "address"
        }
      ],
      "name": "transferOwnership",
      "outputs": [],
      "stateMutability": "nonpayable",
      "type": "function"
    },
    {
      "inputs": [
        {
          "internalType": "bytes4",
          "name": "_interfaceId",
          "type": "bytes4"
        }
      ],
      "name": "supportsInterface",
      "outputs": [
        {
          "internalType": "bool",
          "name": "",
          "type": "bool"
        }
      ],
      "stateMutability": "pure",
      "type": "function",
      "constant": true
    },
    {
      "inputs": [
        {
          "internalType": "uint256",
          "name": "_genes",
          "type": "uint256"
        }
      ],
      "name": "createDoraemonGen0",
      "outputs": [
        {
          "internalType": "uint256",
          "name": "",
          "type": "uint256"
        }
      ],
      "stateMutability": "nonpayable",
      "type": "function"
    },
    {
      "inputs": [
        {
          "internalType": "uint256",
          "name": "_tokenId",
          "type": "uint256"
        }
      ],
      "name": "getDoraemon",
      "outputs": [
        {
          "internalType": "uint256",
          "name": "genes",
          "type": "uint256"
        },
        {
          "internalType": "uint64",
          "name": "birthTime",
          "type": "uint64"
        },
        {
          "internalType": "uint32",
          "name": "mumId",
          "type": "uint32"
        },
        {
          "internalType": "uint32",
          "name": "dadId",
          "type": "uint32"
        },
        {
          "internalType": "uint16",
          "name": "generation",
          "type": "uint16"
        },
        {
          "internalType": "address",
          "name": "owner",
          "type": "address"
        }
      ],
      "stateMutability": "view",
      "type": "function",
      "constant": true
    },
    {
      "inputs": [
        {
          "internalType": "uint256",
          "name": "_dadId",
          "type": "uint256"
        },
        {
          "internalType": "uint256",
          "name": "_mumId",
          "type": "uint256"
        }
      ],
      "name": "breed",
      "outputs": [
        {
          "internalType": "uint256",
          "name": "",
          "type": "uint256"
        }
      ],
      "stateMutability": "nonpayable",
      "type": "function"
    },
    {
      "inputs": [
        {
          "internalType": "address",
          "name": "_owner",
          "type": "address"
        }
      ],
      "name": "balanceOf",
      "outputs": [
        {
          "internalType": "uint256",
          "name": "",
          "type": "uint256"
        }
      ],
      "stateMutability": "view",
      "type": "function",
      "constant": true
    },
    {
      "inputs": [],
      "name": "totalSupply",
      "outputs": [
        {
          "internalType": "uint256",
          "name": "",
          "type": "uint256"
        }
      ],
      "stateMutability": "view",
      "type": "function",
      "constant": true
    },
    {
      "inputs": [],
      "name": "name",
      "outputs": [
        {
          "internalType": "string",
          "name": "",
          "type": "string"
        }
      ],
      "stateMutability": "pure",
      "type": "function",
      "constant": true
    },
    {
      "inputs": [],
      "name": "symbol",
      "outputs": [
        {
          "internalType": "string",
          "name": "",
          "type": "string"
        }
      ],
      "stateMutability": "pure",
      "type": "function",
      "constant": true
    },
    {
      "inputs": [
        {
          "internalType": "uint256",
          "name": "_tokenId",
          "type": "uint256"
        }
      ],
      "name": "ownerOf",
      "outputs": [
        {
          "internalType": "address",
          "name": "",
          "type": "address"
        }
      ],
      "stateMutability": "view",
      "type": "function",
      "constant": true
    },
    {
      "inputs": [
        {
          "internalType": "address",
          "name": "_approved",
          "type": "address"
        },
        {
          "internalType": "uint256",
          "name": "_tokenId",
          "type": "uint256"
        }
      ],
      "name": "approve",
      "outputs": [],
      "stateMutability": "nonpayable",
      "type": "function"
    },
    {
      "inputs": [
        {
          "internalType": "address",
          "name": "_operator",
          "type": "address"
        },
        {
          "internalType": "bool",
          "name": "_approved",
          "type": "bool"
        }
      ],
      "name": "setApprovalForAll",
      "outputs": [],
      "stateMutability": "nonpayable",
      "type": "function"
    },
    {
      "inputs": [
        {
          "internalType": "uint256",
          "name": "_tokenId",
          "type": "uint256"
        }
      ],
      "name": "getApproved",
      "outputs": [
        {
          "internalType": "address",
          "name": "",
          "type": "address"
        }
      ],
      "stateMutability": "view",
      "type": "function",
      "constant": true
    },
    {
      "inputs": [
        {
          "internalType": "address",
          "name": "_owner",
          "type": "address"
        },
        {
          "internalType": "address",
          "name": "_operator",
          "type": "address"
        }
      ],
      "name": "isApprovedForAll",
      "outputs": [
        {
          "internalType": "bool",
          "name": "",
          "type": "bool"
        }
      ],
      "stateMutability": "view",
      "type": "function",
      "constant": true
    },
    {
      "inputs": [
        {
          "internalType": "address",
          "name": "_from",
          "type": "address"
        },
        {
          "internalType": "address",
          "name": "_to",
          "type": "address"
        },
        {
          "internalType": "uint256",
          "name": "_tokenId",
          "type": "uint256"
        }
      ],
      "name": "safeTransferFrom",
      "outputs": [],
      "stateMutability": "nonpayable",
      "type": "function"
    },
    {
      "inputs": [
        {
          "internalType": "address",
          "name": "_from",
          "type": "address"
        },
        {
          "internalType": "address",
          "name": "_to",
          "type": "address"
        },
        {
          "internalType": "uint256",
          "name": "_tokenId",
          "type": "uint256"
        },
        {
          "internalType": "bytes",
          "name": "data",
          "type": "bytes"
        }
      ],
      "name": "safeTransferFrom",
      "outputs": [],
      "stateMutability": "nonpayable",
      "type": "function"
    },
    {
      "inputs": [
        {
          "internalType": "address",
          "name": "_from",
          "type": "address"
        },
        {
          "internalType": "address",
          "name": "_to",
          "type": "address"
        },
        {
          "internalType": "uint256",
          "name": "_tokenId",
          "type": "uint256"
        }
      ],
      "name": "transferFrom",
      "outputs": [],
      "stateMutability": "nonpayable",
      "type": "function"
    }
  ],
  "bytecode": "0x608060405234801561001057600080fd5b5060006100216100c460201b60201c565b9050806000806101000a81548173ffffffffffffffffffffffffffffffffffffffff021916908373ffffffffffffffffffffffffffffffffffffffff1602179055508073ffffffffffffffffffffffffffffffffffffffff16600073ffffffffffffffffffffffffffffffffffffffff167f8be0079c531659141344cd1fd0a4f28419497f9722a3daafe3b4186f6b6457e060405160405180910390a3506100cc565b600033905090565b612a8c806100db6000396000f3fe608060405234801561001057600080fd5b50600436106101425760003560e01c80638da5cb5b116100b8578063b48343301161007c578063b48343301461038e578063b88d4fde146103ac578063d9ecad7b146103c8578063e985e9c5146103f8578063ef5e94aa14610428578063f2fde38b1461044657610142565b80638da5cb5b146102d157806395d89b41146102ef578063a21e2b631461030d578063a22cb46514610342578063a8bd9c321461035e57610142565b806323b872dd1161010a57806323b872dd146101ff57806342842e0e1461021b5780636352211e1461023757806370a0823114610267578063715018a61461029757806385641105146102a157610142565b806301ffc9a71461014757806306fdde0314610177578063081812fc14610195578063095ea7b3146101c557806318160ddd146101e1575b600080fd5b610161600480360381019061015c9190611d6e565b610462565b60405161016e919061212c565b60405180910390f35b61017f610502565b60405161018c9190612147565b60405180910390f35b6101af60048036038101906101aa9190611dc0565b61053f565b6040516101bc9190612072565b60405180910390f35b6101df60048036038101906101da9190611d32565b61061e565b005b6101e9610676565b6040516101f691906122e4565b60405180910390f35b61021960048036038101906102149190611c27565b610683565b005b61023560048036038101906102309190611c27565b6106a8565b005b610251600480360381019061024c9190611dc0565b6106dd565b60405161025e9190612072565b60405180910390f35b610281600480360381019061027c9190611bc2565b61078f565b60405161028e91906122e4565b60405180910390f35b61029f6107d8565b005b6102bb60048036038101906102b69190611dc0565b610912565b6040516102c891906122e4565b60405180910390f35b6102d9610a3c565b6040516102e69190612072565b60405180910390f35b6102f7610a65565b6040516103049190612147565b60405180910390f35b61032760048036038101906103229190611dc0565b610aa2565b604051610339969594939291906122ff565b60405180910390f35b61035c60048036038101906103579190611cf6565b610cb2565b005b61037860048036038101906103739190611dc0565b610e1e565b6040516103859190612072565b60405180910390f35b610396610e51565b6040516103a391906122c9565b60405180910390f35b6103c660048036038101906103c19190611c76565b610e56565b005b6103e260048036038101906103dd9190611de9565b610ec2565b6040516103ef91906122e4565b60405180910390f35b610412600480360381019061040d9190611beb565b611036565b60405161041f919061212c565b60405180910390f35b6104306110ca565b60405161043d91906122c9565b60405180910390f35b610460600480360381019061045b9190611bc2565b6110de565b005b60006301ffc9a760e01b7bffffffffffffffffffffffffffffffffffffffffffffffffffffffff1916827bffffffffffffffffffffffffffffffffffffffffffffffffffffffff191614806104fb57506380ac58cd60e01b7bffffffffffffffffffffffffffffffffffffffffffffffffffffffff1916827bffffffffffffffffffffffffffffffffffffffffffffffffffffffff1916145b9050919050565b60606040518060400160405280600e81526020017f43727970746f446f7261656d6f6e000000000000000000000000000000000000815250905090565b60008073ffffffffffffffffffffffffffffffffffffffff166003600084815260200190815260200160002060009054906101000a900473ffffffffffffffffffffffffffffffffffffffff1673ffffffffffffffffffffffffffffffffffffffff1614156105e3576040517f08c379a00000000000000000000000000000000000000000000000000000000081526004016105da906121e9565b60405180910390fd5b6004600083815260200190815260200160002060009054906101000a900473ffffffffffffffffffffffffffffffffffffffff169050919050565b6106283382611287565b610667576040517f08c379a000000000000000000000000000000000000000000000000000000000815260040161065e906121a9565b60405180910390fd5b6106723383836112f3565b5050565b6000600180549050905090565b61068f338484846113a5565b61069857600080fd5b6106a383838361159e565b505050565b6106b4338484846113a5565b6106bd57600080fd5b6106d883838360405180602001604052806000815250611765565b505050565b6000806003600084815260200190815260200160002060009054906101000a900473ffffffffffffffffffffffffffffffffffffffff169050600073ffffffffffffffffffffffffffffffffffffffff168173ffffffffffffffffffffffffffffffffffffffff161415610786576040517f08c379a000000000000000000000000000000000000000000000000000000000815260040161077d906121c9565b60405180910390fd5b80915050919050565b6000600260008373ffffffffffffffffffffffffffffffffffffffff1673ffffffffffffffffffffffffffffffffffffffff168152602001908152602001600020549050919050565b6107e061178b565b73ffffffffffffffffffffffffffffffffffffffff166107fe610a3c565b73ffffffffffffffffffffffffffffffffffffffff1614610854576040517f08c379a000000000000000000000000000000000000000000000000000000000815260040161084b90612209565b60405180910390fd5b600073ffffffffffffffffffffffffffffffffffffffff1660008054906101000a900473ffffffffffffffffffffffffffffffffffffffff1673ffffffffffffffffffffffffffffffffffffffff167f8be0079c531659141344cd1fd0a4f28419497f9722a3daafe3b4186f6b6457e060405160405180910390a360008060006101000a81548173ffffffffffffffffffffffffffffffffffffffff021916908373ffffffffffffffffffffffffffffffffffffffff160217905550565b600061091c61178b565b73ffffffffffffffffffffffffffffffffffffffff1661093a610a3c565b73ffffffffffffffffffffffffffffffffffffffff1614610990576040517f08c379a000000000000000000000000000000000000000000000000000000000815260040161098790612209565b60405180910390fd5b600a61ffff16600660009054906101000a900461ffff1661ffff16106109eb576040517f08c379a00000000000000000000000000000000000000000000000000000000081526004016109e290612289565b60405180910390fd5b6006600081819054906101000a900461ffff1680929190610a0b90612619565b91906101000a81548161ffff021916908361ffff16021790555050610a3560008060008533611793565b9050919050565b60008060009054906101000a900473ffffffffffffffffffffffffffffffffffffffff16905090565b60606040518060400160405280600481526020017f444f524100000000000000000000000000000000000000000000000000000000815250905090565b60008060008060008060018781548110610ae5577f4e487b7100000000000000000000000000000000000000000000000000000000600052603260045260246000fd5b906000526020600020906002020160000154955060018781548110610b33577f4e487b7100000000000000000000000000000000000000000000000000000000600052603260045260246000fd5b906000526020600020906002020160010160009054906101000a900467ffffffffffffffff16945060018781548110610b95577f4e487b7100000000000000000000000000000000000000000000000000000000600052603260045260246000fd5b906000526020600020906002020160010160089054906101000a900463ffffffff16935060018781548110610bf3577f4e487b7100000000000000000000000000000000000000000000000000000000600052603260045260246000fd5b9060005260206000209060020201600101600c9054906101000a900463ffffffff16925060018781548110610c51577f4e487b7100000000000000000000000000000000000000000000000000000000600052603260045260246000fd5b906000526020600020906002020160010160109054906101000a900461ffff1691506003600088815260200190815260200160002060009054906101000a900473ffffffffffffffffffffffffffffffffffffffff16905091939550919395565b3373ffffffffffffffffffffffffffffffffffffffff168273ffffffffffffffffffffffffffffffffffffffff161415610d21576040517f08c379a0000000000000000000000000000000000000000000000000000000008152600401610d1890612189565b60405180910390fd5b80600560003373ffffffffffffffffffffffffffffffffffffffff1673ffffffffffffffffffffffffffffffffffffffff16815260200190815260200160002060008473ffffffffffffffffffffffffffffffffffffffff1673ffffffffffffffffffffffffffffffffffffffff16815260200190815260200160002060006101000a81548160ff0219169083151502179055508173ffffffffffffffffffffffffffffffffffffffff163373ffffffffffffffffffffffffffffffffffffffff167f17307eab39ab6107e8899845ad3d59bd9653f200f220920489ca2b5937696c3183604051610e12919061212c565b60405180910390a35050565b60046020528060005260406000206000915054906101000a900473ffffffffffffffffffffffffffffffffffffffff1681565b600a81565b610e62338686866113a5565b610e6b57600080fd5b610ebb85858585858080601f016020809104026020016040519081016040528093929190818152602001838380828437600081840152601f19601f82011690508083019250505050505050611765565b5050505050565b6000610ece3384611287565b8015610ee05750610edf3383611287565b5b610f1f576040517f08c379a0000000000000000000000000000000000000000000000000000000008152600401610f16906122a9565b60405180910390fd5b600060018481548110610f5b577f4e487b7100000000000000000000000000000000000000000000000000000000600052603260045260246000fd5b90600052602060002090600202019050600060018481548110610fa7577f4e487b7100000000000000000000000000000000000000000000000000000000600052603260045260246000fd5b906000526020600020906002020190506000610fcb8360000154836000015461191f565b90506000600160028460010160109054906101000a900461ffff168660010160109054906101000a900461ffff166110039190612398565b61100d9190612426565b6110179190612398565b61ffff16905061102a8787838533611793565b94505050505092915050565b6000600560008473ffffffffffffffffffffffffffffffffffffffff1673ffffffffffffffffffffffffffffffffffffffff16815260200190815260200160002060008373ffffffffffffffffffffffffffffffffffffffff1673ffffffffffffffffffffffffffffffffffffffff16815260200190815260200160002060009054906101000a900460ff16905092915050565b600660009054906101000a900461ffff1681565b6110e661178b565b73ffffffffffffffffffffffffffffffffffffffff16611104610a3c565b73ffffffffffffffffffffffffffffffffffffffff161461115a576040517f08c379a000000000000000000000000000000000000000000000000000000000815260040161115190612209565b60405180910390fd5b600073ffffffffffffffffffffffffffffffffffffffff168173ffffffffffffffffffffffffffffffffffffffff1614156111ca576040517f08c379a00000000000000000000000000000000000000000000000000000000081526004016111c190612169565b60405180910390fd5b8073ffffffffffffffffffffffffffffffffffffffff1660008054906101000a900473ffffffffffffffffffffffffffffffffffffffff1673ffffffffffffffffffffffffffffffffffffffff167f8be0079c531659141344cd1fd0a4f28419497f9722a3daafe3b4186f6b6457e060405160405180910390a3806000806101000a81548173ffffffffffffffffffffffffffffffffffffffff021916908373ffffffffffffffffffffffffffffffffffffffff16021790555050565b60008273ffffffffffffffffffffffffffffffffffffffff166003600084815260200190815260200160002060009054906101000a900473ffffffffffffffffffffffffffffffffffffffff1673ffffffffffffffffffffffffffffffffffffffff1614905092915050565b816004600083815260200190815260200160002060006101000a81548173ffffffffffffffffffffffffffffffffffffffff021916908373ffffffffffffffffffffffffffffffffffffffff160217905550808273ffffffffffffffffffffffffffffffffffffffff168473ffffffffffffffffffffffffffffffffffffffff167f8c5be1e5ebec7d5bd14f71427d1e84f3dd0314c0f7b2291e5b200ac8c7c3b92560405160405180910390a4505050565b60008073ffffffffffffffffffffffffffffffffffffffff166003600084815260200190815260200160002060009054906101000a900473ffffffffffffffffffffffffffffffffffffffff1673ffffffffffffffffffffffffffffffffffffffff161415611449576040517f08c379a0000000000000000000000000000000000000000000000000000000008152600401611440906121e9565b60405180910390fd5b600073ffffffffffffffffffffffffffffffffffffffff168373ffffffffffffffffffffffffffffffffffffffff1614156114b9576040517f08c379a00000000000000000000000000000000000000000000000000000000081526004016114b090612269565b60405180910390fd5b6114c38483611287565b611502576040517f08c379a00000000000000000000000000000000000000000000000000000000081526004016114f990612229565b60405180910390fd5b8373ffffffffffffffffffffffffffffffffffffffff168573ffffffffffffffffffffffffffffffffffffffff16148061154257506115418486611036565b5b8061155357506115528583611970565b5b611592576040517f08c379a000000000000000000000000000000000000000000000000000000000815260040161158990612249565b60405180910390fd5b60019050949350505050565b600260008373ffffffffffffffffffffffffffffffffffffffff1673ffffffffffffffffffffffffffffffffffffffff16815260200190815260200160002060008154809291906115ee90612644565b9190505550600073ffffffffffffffffffffffffffffffffffffffff168373ffffffffffffffffffffffffffffffffffffffff16146116b357600260008473ffffffffffffffffffffffffffffffffffffffff1673ffffffffffffffffffffffffffffffffffffffff1681526020019081526020016000206000815480929190611677906125ef565b91905055506004600082815260200190815260200160002060006101000a81549073ffffffffffffffffffffffffffffffffffffffff02191690555b816003600083815260200190815260200160002060006101000a81548173ffffffffffffffffffffffffffffffffffffffff021916908373ffffffffffffffffffffffffffffffffffffffff160217905550808273ffffffffffffffffffffffffffffffffffffffff168473ffffffffffffffffffffffffffffffffffffffff167fddf252ad1be2c89b69c2b068fc378daa952ba7f163c4a11628f55a4df523b3ef60405160405180910390a4505050565b61177084848461159e565b61177c848484846119dc565b61178557600080fd5b50505050565b600033905090565b6000806040518060a001604052808581526020014267ffffffffffffffff1681526020018863ffffffff1681526020018763ffffffff1681526020018661ffff16815250905060018190806001815401808255809150506001900390600052602060002090600202016000909190919091506000820151816000015560208201518160010160006101000a81548167ffffffffffffffff021916908367ffffffffffffffff16021790555060408201518160010160086101000a81548163ffffffff021916908363ffffffff160217905550606082015181600101600c6101000a81548163ffffffff021916908363ffffffff16021790555060808201518160010160106101000a81548161ffff021916908361ffff16021790555050506000600180805490506118c491906124e2565b90507f0a5311bd2a6608f08a180df2ee7c5946819a649b204b554bb8e39825b2c50ad584828a8a896040516118fd9594939291906120d9565b60405180910390a16119116000858361159e565b809250505095945050505050565b60008062989680846119319190612457565b905060006298968084611944919061268d565b905060008162989680846119589190612488565b61196291906123d0565b905080935050505092915050565b60008273ffffffffffffffffffffffffffffffffffffffff166004600084815260200190815260200160002060009054906101000a900473ffffffffffffffffffffffffffffffffffffffff1673ffffffffffffffffffffffffffffffffffffffff1614905092915050565b60006119e784611af6565b6119f45760019050611aee565b60008473ffffffffffffffffffffffffffffffffffffffff1663150b7a02338887876040518563ffffffff1660e01b8152600401611a35949392919061208d565b602060405180830381600087803b158015611a4f57600080fd5b505af1158015611a63573d6000803e3d6000fd5b505050506040513d601f19601f82011682018060405250810190611a879190611d97565b90507f150b7a023d4804d13e8c85fb27262cb750cf6ba9f9dd3bb30d90f482ceeb4b1f7bffffffffffffffffffffffffffffffffffffffffffffffffffffffff1916817bffffffffffffffffffffffffffffffffffffffffffffffffffffffff1916149150505b949350505050565b600080823b905060008163ffffffff1611915050919050565b600081359050611b1e816129fa565b92915050565b600081359050611b3381612a11565b92915050565b600081359050611b4881612a28565b92915050565b600081519050611b5d81612a28565b92915050565b60008083601f840112611b7557600080fd5b8235905067ffffffffffffffff811115611b8e57600080fd5b602083019150836001820283011115611ba657600080fd5b9250929050565b600081359050611bbc81612a3f565b92915050565b600060208284031215611bd457600080fd5b6000611be284828501611b0f565b91505092915050565b60008060408385031215611bfe57600080fd5b6000611c0c85828601611b0f565b9250506020611c1d85828601611b0f565b9150509250929050565b600080600060608486031215611c3c57600080fd5b6000611c4a86828701611b0f565b9350506020611c5b86828701611b0f565b9250506040611c6c86828701611bad565b9150509250925092565b600080600080600060808688031215611c8e57600080fd5b6000611c9c88828901611b0f565b9550506020611cad88828901611b0f565b9450506040611cbe88828901611bad565b935050606086013567ffffffffffffffff811115611cdb57600080fd5b611ce788828901611b63565b92509250509295509295909350565b60008060408385031215611d0957600080fd5b6000611d1785828601611b0f565b9250506020611d2885828601611b24565b9150509250929050565b60008060408385031215611d4557600080fd5b6000611d5385828601611b0f565b9250506020611d6485828601611bad565b9150509250929050565b600060208284031215611d8057600080fd5b6000611d8e84828501611b39565b91505092915050565b600060208284031215611da957600080fd5b6000611db784828501611b4e565b91505092915050565b600060208284031215611dd257600080fd5b6000611de084828501611bad565b91505092915050565b60008060408385031215611dfc57600080fd5b6000611e0a85828601611bad565b9250506020611e1b85828601611bad565b9150509250929050565b611e2e81612516565b82525050565b611e3d81612528565b82525050565b6000611e4e82612360565b611e588185612376565b9350611e688185602086016125bc565b611e718161271c565b840191505092915050565b6000611e878261236b565b611e918185612387565b9350611ea18185602086016125bc565b611eaa8161271c565b840191505092915050565b6000611ec2602683612387565b9150611ecd8261272d565b604082019050919050565b6000611ee5601983612387565b9150611ef08261277c565b602082019050919050565b6000611f08602b83612387565b9150611f13826127a5565b604082019050919050565b6000611f2b602983612387565b9150611f36826127f4565b604082019050919050565b6000611f4e601883612387565b9150611f5982612843565b602082019050919050565b6000611f71602083612387565b9150611f7c8261286c565b602082019050919050565b6000611f94602a83612387565b9150611f9f82612895565b604082019050919050565b6000611fb7603783612387565b9150611fc2826128e4565b604082019050919050565b6000611fda601783612387565b9150611fe582612933565b602082019050919050565b6000611ffd602183612387565b91506120088261295c565b604082019050919050565b6000612020602383612387565b915061202b826129ab565b604082019050919050565b61203f81612560565b82525050565b61204e8161258e565b82525050565b61205d81612598565b82525050565b61206c816125a8565b82525050565b60006020820190506120876000830184611e25565b92915050565b60006080820190506120a26000830187611e25565b6120af6020830186611e25565b6120bc6040830185612045565b81810360608301526120ce8184611e43565b905095945050505050565b600060a0820190506120ee6000830188611e25565b6120fb6020830187612045565b6121086040830186612045565b6121156060830185612045565b6121226080830184612045565b9695505050505050565b60006020820190506121416000830184611e34565b92915050565b600060208201905081810360008301526121618184611e7c565b905092915050565b6000602082019050818103600083015261218281611eb5565b9050919050565b600060208201905081810360008301526121a281611ed8565b9050919050565b600060208201905081810360008301526121c281611efb565b9050919050565b600060208201905081810360008301526121e281611f1e565b9050919050565b6000602082019050818103600083015261220281611f41565b9050919050565b6000602082019050818103600083015261222281611f64565b9050919050565b6000602082019050818103600083015261224281611f87565b9050919050565b6000602082019050818103600083015261226281611faa565b9050919050565b6000602082019050818103600083015261228281611fcd565b9050919050565b600060208201905081810360008301526122a281611ff0565b9050919050565b600060208201905081810360008301526122c281612013565b9050919050565b60006020820190506122de6000830184612036565b92915050565b60006020820190506122f96000830184612045565b92915050565b600060c0820190506123146000830189612045565b6123216020830188612063565b61232e6040830187612054565b61233b6060830186612054565b6123486080830185612036565b61235560a0830184611e25565b979650505050505050565b600081519050919050565b600081519050919050565b600082825260208201905092915050565b600082825260208201905092915050565b60006123a382612560565b91506123ae83612560565b92508261ffff038211156123c5576123c46126be565b5b828201905092915050565b60006123db8261258e565b91506123e68361258e565b9250827fffffffffffffffffffffffffffffffffffffffffffffffffffffffffffffffff0382111561241b5761241a6126be565b5b828201905092915050565b600061243182612560565b915061243c83612560565b92508261244c5761244b6126ed565b5b828204905092915050565b60006124628261258e565b915061246d8361258e565b92508261247d5761247c6126ed565b5b828204905092915050565b60006124938261258e565b915061249e8361258e565b9250817fffffffffffffffffffffffffffffffffffffffffffffffffffffffffffffffff04831182151516156124d7576124d66126be565b5b828202905092915050565b60006124ed8261258e565b91506124f88361258e565b92508282101561250b5761250a6126be565b5b828203905092915050565b60006125218261256e565b9050919050565b60008115159050919050565b60007fffffffff0000000000000000000000000000000000000000000000000000000082169050919050565b600061ffff82169050919050565b600073ffffffffffffffffffffffffffffffffffffffff82169050919050565b6000819050919050565b600063ffffffff82169050919050565b600067ffffffffffffffff82169050919050565b60005b838110156125da5780820151818401526020810190506125bf565b838111156125e9576000848401525b50505050565b60006125fa8261258e565b9150600082141561260e5761260d6126be565b5b600182039050919050565b600061262482612560565b915061ffff821415612639576126386126be565b5b600182019050919050565b600061264f8261258e565b91507fffffffffffffffffffffffffffffffffffffffffffffffffffffffffffffffff821415612682576126816126be565b5b600182019050919050565b60006126988261258e565b91506126a38361258e565b9250826126b3576126b26126ed565b5b828206905092915050565b7f4e487b7100000000000000000000000000000000000000000000000000000000600052601160045260246000fd5b7f4e487b7100000000000000000000000000000000000000000000000000000000600052601260045260246000fd5b6000601f19601f8301169050919050565b7f4f776e61626c653a206e6577206f776e657220697320746865207a65726f206160008201527f6464726573730000000000000000000000000000000000000000000000000000602082015250565b7f4552433732313a20596f752061726520746865206f776e657200000000000000600082015250565b7f4552433732313a20596f7520617265206e6f7420746865206f776e6572206f6660008201527f207468697320746f6b656e000000000000000000000000000000000000000000602082015250565b7f4552433732313a206f776e657220717565727920666f72206e6f6e657869737460008201527f656e7420746f6b656e0000000000000000000000000000000000000000000000602082015250565b7f4552433732313a20496e76616c696420746f6b656e2049440000000000000000600082015250565b7f4f776e61626c653a2063616c6c6572206973206e6f7420746865206f776e6572600082015250565b7f4552433732313a205468652073656e64657220646f6573206e6f74206f776e2060008201527f7468697320746f6b656e00000000000000000000000000000000000000000000602082015250565b7f4552433732313a20596f7520646f6e2774206861766520746865207065726d6960008201527f7373696f6e20746f207472616e7366657220746f6b656e000000000000000000602082015250565b7f4552433732313a20496e76616c69642061646472657373000000000000000000600082015250565b7f43616e6e6f7420637265617465206d6f72652067656e203020646f7261656d6f60008201527f6e00000000000000000000000000000000000000000000000000000000000000602082015250565b7f596f7520617265206e6f7420746865206f776e6572206f66207468697320746f60008201527f6b656e0000000000000000000000000000000000000000000000000000000000602082015250565b612a0381612516565b8114612a0e57600080fd5b50565b612a1a81612528565b8114612a2557600080fd5b50565b612a3181612534565b8114612a3c57600080fd5b50565b612a488161258e565b8114612a5357600080fd5b5056fea264697066735822122080a886d407c201a3a573360f8c37451ca927988202c4fbb205d563cae94606d264736f6c63430008040033",
  "immutableReferences": {},
  "source": "// SPDX-License-Identifier: MIT\npragma solidity ^0.8.0;\n\n// import \"../node_modules/@openzeppelin/contracts/token/ERC721/IERC721.sol\";\n// import \"../node_modules/@openzeppelin/contracts/token/ERC721/extensions/IERC721Metadata.sol\";\n// import \"../node_modules/@openzeppelin/contracts/token/ERC721/extensions/IERC721Enumerable.sol\";\n\nimport \"./IERC721.sol\";\nimport \"./IERC721Receiver.sol\";\nimport \"../node_modules/@openzeppelin/contracts/access/Ownable.sol\";\n\ncontract Doracontract is IERC721, Ownable {\n  string constant _name = \"CryptoDoraemon\";\n  string constant _symbol = \"DORA\";\n  uint16 public constant CREATION_LIMIT_GEN0 = 10;\n\n  bytes4 internal constant MAGIC_ERC721_RECEIVED = bytes4(keccak256(\"onERC721Received(address,address,uint256,bytes)\"));\n  bytes4 private constant _INTERFACE_ID_ERC721 = 0x80ac58cd;\n  bytes4 private constant _INTERFACE_ID_ERC165 = 0x01ffc9a7;\n\n  event Birth(\n    address owner, \n    uint256 doraemonId, \n    uint256 mumId, \n    uint256 dadId, \n    uint256 genes\n  );\n\n  struct Doraemon {\n    uint256 genes;\n    uint64 birthTime;\n    uint32 mumId;\n    uint32 dadId;\n    uint16 generation;\n  }\n\n  //Array with all token ids (index==>token id)\n  Doraemon[] private allTokens;\n  //Mapping owner address to token count\n  mapping (address => uint256) private ownerToBalance;\n  //Mapping from token ID to owner address\n  mapping (uint256 => address) private tokenToOwner;\n  //Give right to transfer (token ID ==> approved address)\n  mapping (uint256 => address) public tokenIndexToApproved;\n  //Give operator (myAddr => operatorAddr => true/false)\n  mapping (address => mapping(address => bool)) private operatorApprovals;\n\n  //Counts created gen 0 doraemons\n  uint16 public gen0Counter; \n\n  function supportsInterface(bytes4 _interfaceId) external pure returns (bool) {\n    return (_interfaceId == _INTERFACE_ID_ERC165 || _interfaceId == _INTERFACE_ID_ERC721);\n  }\n\n  function createDoraemonGen0(uint256 _genes) public onlyOwner returns(uint256){\n    require(gen0Counter < CREATION_LIMIT_GEN0, \"Cannot create more gen 0 doraemon\");\n    gen0Counter++;\n\n    return _createDoraemon(0, 0, 0, _genes, msg.sender);\n  }\n\n  function _createDoraemon(\n    uint256 _mumId, \n    uint256 _dadId, \n    uint256 _generation, \n    uint256 _genes, \n    address _owner\n  ) private returns(uint256) {\n    Doraemon memory _doraemon = Doraemon({\n      genes: _genes,\n      birthTime: uint64(block.timestamp),\n      mumId: uint32(_mumId),\n      dadId: uint32(_dadId),\n      generation: uint16(_generation)\n    });\n    allTokens.push(_doraemon);\n    uint256 newDoraemonId = allTokens.length - 1; \n\n    emit Birth(_owner, newDoraemonId, _mumId, _dadId, _genes);\n    _transfer(address(0), _owner, newDoraemonId);\n\n    return newDoraemonId;\n  } \n\n  function getDoraemon(uint256 _tokenId) external view returns(\n    uint256 genes,\n    uint64 birthTime,\n    uint32 mumId,\n    uint32 dadId,\n    uint16 generation,\n    address owner\n  ){\n    genes = allTokens[_tokenId].genes;\n    birthTime = allTokens[_tokenId].birthTime;\n    mumId = allTokens[_tokenId].mumId;\n    dadId = allTokens[_tokenId].dadId;\n    generation = allTokens[_tokenId].generation;\n    owner = tokenToOwner[_tokenId];\n  }\n\n  function breed(uint256 _dadId, uint256 _mumId) public returns (uint256){\n    require(_owns(msg.sender, _dadId) && _owns(msg.sender, _mumId), \"You are not the owner of this token\");\n    Doraemon storage dad = allTokens[_dadId];\n    Doraemon storage mum = allTokens[_mumId];\n    uint256 newDna = _mixDna(dad.genes, mum.genes);\n    uint256 newGen = (dad.generation + mum.generation) / 2 + 1;\n    return _createDoraemon(_dadId, _mumId, newGen, newDna, msg.sender);\n  }\n\n  function balanceOf(address _owner) external view override returns(uint256){\n    return ownerToBalance[_owner];\n  }\n\n  function totalSupply() external view override returns(uint256){\n    return allTokens.length;\n  }\n\n  function name() external pure override returns (string memory){\n    return _name;\n  } \n\n  function symbol() external pure override returns (string memory){\n    return _symbol;\n  } \n\n  function ownerOf(uint256 _tokenId) public view override returns(address){\n    address owner = tokenToOwner[_tokenId];\n    require(owner != address(0), \"ERC721: owner query for nonexistent token\");\n    return owner;\n  }\n\n  function approve(address _approved, uint256 _tokenId) external override{\n    require(_owns(msg.sender, _tokenId), \"ERC721: You are not the owner of this token\");\n    _approve(msg.sender, _approved, _tokenId);\n  }\n\n  function setApprovalForAll(address _operator, bool _approved) external override {\n    require(_operator != msg.sender, \"ERC721: You are the owner\");\n    operatorApprovals[msg.sender][_operator] = _approved;\n    emit ApprovalForAll(msg.sender, _operator, _approved);\n  }\n\n  function getApproved(uint256 _tokenId) external view override returns(address){\n    require(tokenToOwner[_tokenId] != address(0), \"ERC721: Invalid token ID\");\n    return tokenIndexToApproved[_tokenId];\n  }\n\n  function isApprovedForAll(address _owner, address _operator) public view override returns(bool){\n    return operatorApprovals[_owner][_operator];\n  }\n\n  function safeTransferFrom(address _from, address _to, uint256 _tokenId) external override {\n    require(_isApprovedOrOwner(msg.sender, _from, _to, _tokenId));\n    _safeTransfer(_from, _to, _tokenId, \"\");\n  }\n\n  function safeTransferFrom(address _from, address _to, uint256 _tokenId, bytes calldata data) external override {\n    require(_isApprovedOrOwner(msg.sender, _from, _to, _tokenId));\n    _safeTransfer(_from, _to, _tokenId, data);\n  }\n\n  function _safeTransfer(address _from, address _to, uint256 _tokenId, bytes memory _data) internal {\n    _transfer(_from, _to, _tokenId);\n    require(_checkERC721Support(_from, _to, _tokenId, _data));\n  }\n\n  function transferFrom(address _from, address _to, uint256 _tokenId) external override {\n    require(_isApprovedOrOwner(msg.sender, _from, _to, _tokenId));\n    _transfer(_from, _to, _tokenId);\n  }\n\n  function _transfer(address _from, address _to, uint256 _tokenId) internal{\n    ownerToBalance[_to]++;\n    if(_from != address(0)){\n      ownerToBalance[_from]--;\n      delete tokenIndexToApproved[_tokenId];\n    }\n    tokenToOwner[_tokenId] = _to;\n    emit Transfer(_from, _to, _tokenId);\n  }\n\n  function _owns(address _claimant, uint256 _tokenId) internal view returns(bool){\n    return tokenToOwner[_tokenId] == _claimant;\n  }\n\n  function _approve(address _owner, address _approved, uint256 _tokenId) internal {\n    tokenIndexToApproved[_tokenId] = _approved;\n    emit Approval(_owner, _approved, _tokenId);\n  }\n\n  function _approvedFor(address _claimant, uint256 _tokenId) internal view returns (bool) {\n    return tokenIndexToApproved[_tokenId] == _claimant;\n  }\n\n  function _checkERC721Support(address _from, address _to, uint256 _tokenId, bytes memory _data) internal returns (bool) {\n    if(!_isContract(_to)){\n      return true;\n    }\n\n    bytes4 returnData = IERC721Receiver(_to).onERC721Received(msg.sender, _from, _tokenId, _data);\n    return returnData == MAGIC_ERC721_RECEIVED;\n  }\n\n  function _isContract(address _to) view internal returns(bool){\n    uint32 size; //code size\n    assembly{\n      size := extcodesize(_to)\n    }\n    return size > 0;\n  }\n\n  function _isApprovedOrOwner(address _spender, address _from, address _to, uint256 _tokenId) internal view returns(bool){\n    require(tokenToOwner[_tokenId] != address(0), \"ERC721: Invalid token ID\");\n    require(_to != address(0), \"ERC721: Invalid address\");\n    require(_owns(_from, _tokenId), \"ERC721: The sender does not own this token\");\n    require(\n      _spender == _from || isApprovedForAll(_from, _spender) || _approvedFor(_spender, _tokenId), \n      \"ERC721: You don't have the permission to transfer token\"\n    );\n    return true;\n  }\n\n  function _mixDna(uint256 _dadDna, uint256 _mumDna) internal pure returns(uint256){\n    uint256 firstHalf = _dadDna / 10000000;\n    uint256 secondHalf = _mumDna % 10000000;\n\n    uint256 newDna = firstHalf * 10000000 + secondHalf;\n    return newDna;\n  }\n}",
  "sourcePath": "/Users/riomain/code/blockchain/academy/nftgame/doraemon/contracts/Doracontract.sol",
  "compiler": {
    "name": "solc",
    "version": "0.8.4+commit.c7e474f2.Emscripten.clang"
  },
  "schemaVersion": "3.3.4",
  "updatedAt": "2021-05-07T08:48:11.777Z",
  "networkType": "ethereum",
  "devdoc": {
    "kind": "dev",
    "methods": {
      "owner()": {
        "details": "Returns the address of the current owner."
      },
      "renounceOwnership()": {
        "details": "Leaves the contract without owner. It will not be possible to call `onlyOwner` functions anymore. Can only be called by the current owner. NOTE: Renouncing ownership will leave the contract without an owner, thereby removing any functionality that is only available to the owner."
      },
      "transferOwnership(address)": {
        "details": "Transfers ownership of the contract to a new account (`newOwner`). Can only be called by the current owner."
      }
    },
    "version": 1
  },
  "userdoc": {
    "kind": "user",
    "methods": {},
    "version": 1
  }
}