{
  "contractName": "Doracontract",
  "abi": [
    {
      "anonymous": false,
      "inputs": [
        {
          "indexed": true,
          "internalType": "address",
          "name": "owner",
          "type": "address"
        },
        {
          "indexed": true,
          "internalType": "address",
          "name": "approved",
          "type": "address"
        },
        {
          "indexed": true,
          "internalType": "uint256",
          "name": "tokenId",
          "type": "uint256"
        }
      ],
      "name": "Approval",
      "type": "event"
    },
    {
      "anonymous": false,
      "inputs": [
        {
          "indexed": true,
          "internalType": "address",
          "name": "owner",
          "type": "address"
        },
        {
          "indexed": true,
          "internalType": "address",
          "name": "operator",
          "type": "address"
        },
        {
          "indexed": false,
          "internalType": "bool",
          "name": "approved",
          "type": "bool"
        }
      ],
      "name": "ApprovalForAll",
      "type": "event"
    },
    {
      "anonymous": false,
      "inputs": [
        {
          "indexed": false,
          "internalType": "address",
          "name": "owner",
          "type": "address"
        },
        {
          "indexed": false,
          "internalType": "uint256",
          "name": "doraemonId",
          "type": "uint256"
        },
        {
          "indexed": false,
          "internalType": "uint256",
          "name": "mumId",
          "type": "uint256"
        },
        {
          "indexed": false,
          "internalType": "uint256",
          "name": "dadId",
          "type": "uint256"
        },
        {
          "indexed": false,
          "internalType": "uint256",
          "name": "genes",
          "type": "uint256"
        }
      ],
      "name": "Birth",
      "type": "event"
    },
    {
      "anonymous": false,
      "inputs": [
        {
          "indexed": true,
          "internalType": "address",
          "name": "previousOwner",
          "type": "address"
        },
        {
          "indexed": true,
          "internalType": "address",
          "name": "newOwner",
          "type": "address"
        }
      ],
      "name": "OwnershipTransferred",
      "type": "event"
    },
    {
      "anonymous": false,
      "inputs": [
        {
          "indexed": true,
          "internalType": "address",
          "name": "from",
          "type": "address"
        },
        {
          "indexed": true,
          "internalType": "address",
          "name": "to",
          "type": "address"
        },
        {
          "indexed": true,
          "internalType": "uint256",
          "name": "tokenId",
          "type": "uint256"
        }
      ],
      "name": "Transfer",
      "type": "event"
    },
    {
      "inputs": [],
      "name": "CREATION_LIMIT_GEN0",
      "outputs": [
        {
          "internalType": "uint16",
          "name": "",
          "type": "uint16"
        }
      ],
      "stateMutability": "view",
      "type": "function",
      "constant": true
    },
    {
      "inputs": [],
      "name": "gen0Counter",
      "outputs": [
        {
          "internalType": "uint16",
          "name": "",
          "type": "uint16"
        }
      ],
      "stateMutability": "view",
      "type": "function",
      "constant": true
    },
    {
      "inputs": [],
      "name": "owner",
      "outputs": [
        {
          "internalType": "address",
          "name": "",
          "type": "address"
        }
      ],
      "stateMutability": "view",
      "type": "function",
      "constant": true
    },
    {
      "inputs": [],
      "name": "renounceOwnership",
      "outputs": [],
      "stateMutability": "nonpayable",
      "type": "function"
    },
    {
      "inputs": [
        {
          "internalType": "uint256",
          "name": "",
          "type": "uint256"
        }
      ],
      "name": "tokenIndexToApproved",
      "outputs": [
        {
          "internalType": "address",
          "name": "",
          "type": "address"
        }
      ],
      "stateMutability": "view",
      "type": "function",
      "constant": true
    },
    {
      "inputs": [
        {
          "internalType": "address",
          "name": "newOwner",
          "type": "address"
        }
      ],
      "name": "transferOwnership",
      "outputs": [],
      "stateMutability": "nonpayable",
      "type": "function"
    },
    {
      "inputs": [
        {
          "internalType": "bytes4",
          "name": "_interfaceId",
          "type": "bytes4"
        }
      ],
      "name": "supportsInterface",
      "outputs": [
        {
          "internalType": "bool",
          "name": "",
          "type": "bool"
        }
      ],
      "stateMutability": "pure",
      "type": "function",
      "constant": true
    },
    {
      "inputs": [
        {
          "internalType": "uint256",
          "name": "_genes",
          "type": "uint256"
        }
      ],
      "name": "createDoraemonGen0",
      "outputs": [
        {
          "internalType": "uint256",
          "name": "",
          "type": "uint256"
        }
      ],
      "stateMutability": "nonpayable",
      "type": "function"
    },
    {
      "inputs": [
        {
          "internalType": "uint256",
          "name": "_tokenId",
          "type": "uint256"
        }
      ],
      "name": "getDoraemon",
      "outputs": [
        {
          "internalType": "uint256",
          "name": "genes",
          "type": "uint256"
        },
        {
          "internalType": "uint64",
          "name": "birthTime",
          "type": "uint64"
        },
        {
          "internalType": "uint32",
          "name": "mumId",
          "type": "uint32"
        },
        {
          "internalType": "uint32",
          "name": "dadId",
          "type": "uint32"
        },
        {
          "internalType": "uint16",
          "name": "generation",
          "type": "uint16"
        },
        {
          "internalType": "address",
          "name": "owner",
          "type": "address"
        }
      ],
      "stateMutability": "view",
      "type": "function",
      "constant": true
    },
    {
      "inputs": [
        {
          "internalType": "address",
          "name": "_owner",
          "type": "address"
        }
      ],
      "name": "tokensOfOwner",
      "outputs": [
        {
          "internalType": "uint256[]",
          "name": "",
          "type": "uint256[]"
        }
      ],
      "stateMutability": "view",
      "type": "function",
      "constant": true
    },
    {
      "inputs": [
        {
          "internalType": "uint256",
          "name": "_dadId",
          "type": "uint256"
        },
        {
          "internalType": "uint256",
          "name": "_mumId",
          "type": "uint256"
        }
      ],
      "name": "breed",
      "outputs": [
        {
          "internalType": "uint256",
          "name": "",
          "type": "uint256"
        }
      ],
      "stateMutability": "nonpayable",
      "type": "function"
    },
    {
      "inputs": [
        {
          "internalType": "address",
          "name": "_owner",
          "type": "address"
        }
      ],
      "name": "balanceOf",
      "outputs": [
        {
          "internalType": "uint256",
          "name": "",
          "type": "uint256"
        }
      ],
      "stateMutability": "view",
      "type": "function",
      "constant": true
    },
    {
      "inputs": [],
      "name": "totalSupply",
      "outputs": [
        {
          "internalType": "uint256",
          "name": "",
          "type": "uint256"
        }
      ],
      "stateMutability": "view",
      "type": "function",
      "constant": true
    },
    {
      "inputs": [],
      "name": "name",
      "outputs": [
        {
          "internalType": "string",
          "name": "",
          "type": "string"
        }
      ],
      "stateMutability": "pure",
      "type": "function",
      "constant": true
    },
    {
      "inputs": [],
      "name": "symbol",
      "outputs": [
        {
          "internalType": "string",
          "name": "",
          "type": "string"
        }
      ],
      "stateMutability": "pure",
      "type": "function",
      "constant": true
    },
    {
      "inputs": [
        {
          "internalType": "uint256",
          "name": "_tokenId",
          "type": "uint256"
        }
      ],
      "name": "ownerOf",
      "outputs": [
        {
          "internalType": "address",
          "name": "",
          "type": "address"
        }
      ],
      "stateMutability": "view",
      "type": "function",
      "constant": true
    },
    {
      "inputs": [
        {
          "internalType": "address",
          "name": "_approved",
          "type": "address"
        },
        {
          "internalType": "uint256",
          "name": "_tokenId",
          "type": "uint256"
        }
      ],
      "name": "approve",
      "outputs": [],
      "stateMutability": "nonpayable",
      "type": "function"
    },
    {
      "inputs": [
        {
          "internalType": "address",
          "name": "_operator",
          "type": "address"
        },
        {
          "internalType": "bool",
          "name": "_approved",
          "type": "bool"
        }
      ],
      "name": "setApprovalForAll",
      "outputs": [],
      "stateMutability": "nonpayable",
      "type": "function"
    },
    {
      "inputs": [
        {
          "internalType": "uint256",
          "name": "_tokenId",
          "type": "uint256"
        }
      ],
      "name": "getApproved",
      "outputs": [
        {
          "internalType": "address",
          "name": "",
          "type": "address"
        }
      ],
      "stateMutability": "view",
      "type": "function",
      "constant": true
    },
    {
      "inputs": [
        {
          "internalType": "address",
          "name": "_owner",
          "type": "address"
        },
        {
          "internalType": "address",
          "name": "_operator",
          "type": "address"
        }
      ],
      "name": "isApprovedForAll",
      "outputs": [
        {
          "internalType": "bool",
          "name": "",
          "type": "bool"
        }
      ],
      "stateMutability": "view",
      "type": "function",
      "constant": true
    },
    {
      "inputs": [
        {
          "internalType": "address",
          "name": "_from",
          "type": "address"
        },
        {
          "internalType": "address",
          "name": "_to",
          "type": "address"
        },
        {
          "internalType": "uint256",
          "name": "_tokenId",
          "type": "uint256"
        }
      ],
      "name": "safeTransferFrom",
      "outputs": [],
      "stateMutability": "nonpayable",
      "type": "function"
    },
    {
      "inputs": [
        {
          "internalType": "address",
          "name": "_from",
          "type": "address"
        },
        {
          "internalType": "address",
          "name": "_to",
          "type": "address"
        },
        {
          "internalType": "uint256",
          "name": "_tokenId",
          "type": "uint256"
        },
        {
          "internalType": "bytes",
          "name": "data",
          "type": "bytes"
        }
      ],
      "name": "safeTransferFrom",
      "outputs": [],
      "stateMutability": "nonpayable",
      "type": "function"
    },
    {
      "inputs": [
        {
          "internalType": "address",
          "name": "_from",
          "type": "address"
        },
        {
          "internalType": "address",
          "name": "_to",
          "type": "address"
        },
        {
          "internalType": "uint256",
          "name": "_tokenId",
          "type": "uint256"
        }
      ],
      "name": "transferFrom",
      "outputs": [],
      "stateMutability": "nonpayable",
      "type": "function"
    }
  ],
  "bytecode": "0x608060405234801561001057600080fd5b5060006100216100c460201b60201c565b9050806000806101000a81548173ffffffffffffffffffffffffffffffffffffffff021916908373ffffffffffffffffffffffffffffffffffffffff1602179055508073ffffffffffffffffffffffffffffffffffffffff16600073ffffffffffffffffffffffffffffffffffffffff167f8be0079c531659141344cd1fd0a4f28419497f9722a3daafe3b4186f6b6457e060405160405180910390a3506100cc565b600033905090565b612d8080620000dc6000396000f3fe608060405234801561001057600080fd5b506004361061014d5760003560e01c806385641105116100c3578063b48343301161007c578063b4834330146103c9578063b88d4fde146103e7578063d9ecad7b14610403578063e985e9c514610433578063ef5e94aa14610463578063f2fde38b146104815761014d565b806385641105146102dc5780638da5cb5b1461030c57806395d89b411461032a578063a21e2b6314610348578063a22cb4651461037d578063a8bd9c32146103995761014d565b806323b872dd1161011557806323b872dd1461020a57806342842e0e146102265780636352211e1461024257806370a0823114610272578063715018a6146102a25780638462151c146102ac5761014d565b806301ffc9a71461015257806306fdde0314610182578063081812fc146101a0578063095ea7b3146101d057806318160ddd146101ec575b600080fd5b61016c60048036038101906101679190611ff5565b61049d565b604051610179919061245a565b60405180910390f35b61018a61053d565b6040516101979190612475565b60405180910390f35b6101ba60048036038101906101b59190612047565b61057a565b6040516101c7919061237e565b60405180910390f35b6101ea60048036038101906101e59190611fb9565b610659565b005b6101f46106b1565b6040516102019190612612565b60405180910390f35b610224600480360381019061021f9190611eae565b6106be565b005b610240600480360381019061023b9190611eae565b6106e3565b005b61025c60048036038101906102579190612047565b610718565b604051610269919061237e565b60405180910390f35b61028c60048036038101906102879190611e49565b6107ca565b6040516102999190612612565b60405180910390f35b6102aa610816565b005b6102c660048036038101906102c19190611e49565b610950565b6040516102d39190612438565b60405180910390f35b6102f660048036038101906102f19190612047565b6109e7565b6040516103039190612612565b60405180910390f35b610314610b11565b604051610321919061237e565b60405180910390f35b610332610b3a565b60405161033f9190612475565b60405180910390f35b610362600480360381019061035d9190612047565b610b77565b6040516103749695949392919061262d565b60405180910390f35b61039760048036038101906103929190611f7d565b610d87565b005b6103b360048036038101906103ae9190612047565b610ef3565b6040516103c0919061237e565b60405180910390f35b6103d1610f26565b6040516103de91906125f7565b60405180910390f35b61040160048036038101906103fc9190611efd565b610f2b565b005b61041d60048036038101906104189190612070565b610f97565b60405161042a9190612612565b60405180910390f35b61044d60048036038101906104489190611e72565b61110b565b60405161045a919061245a565b60405180910390f35b61046b61119f565b60405161047891906125f7565b60405180910390f35b61049b60048036038101906104969190611e49565b6111b3565b005b60006301ffc9a760e01b7bffffffffffffffffffffffffffffffffffffffffffffffffffffffff1916827bffffffffffffffffffffffffffffffffffffffffffffffffffffffff1916148061053657506380ac58cd60e01b7bffffffffffffffffffffffffffffffffffffffffffffffffffffffff1916827bffffffffffffffffffffffffffffffffffffffffffffffffffffffff1916145b9050919050565b60606040518060400160405280600e81526020017f43727970746f446f7261656d6f6e000000000000000000000000000000000000815250905090565b60008073ffffffffffffffffffffffffffffffffffffffff166002600084815260200190815260200160002060009054906101000a900473ffffffffffffffffffffffffffffffffffffffff1673ffffffffffffffffffffffffffffffffffffffff16141561061e576040517f08c379a000000000000000000000000000000000000000000000000000000000815260040161061590612517565b60405180910390fd5b6004600083815260200190815260200160002060009054906101000a900473ffffffffffffffffffffffffffffffffffffffff169050919050565b610663338261135c565b6106a2576040517f08c379a0000000000000000000000000000000000000000000000000000000008152600401610699906124d7565b60405180910390fd5b6106ad3383836113c8565b5050565b6000600180549050905090565b6106ca3384848461147a565b6106d357600080fd5b6106de838383611673565b505050565b6106ef3384848461147a565b6106f857600080fd5b610713838383604051806020016040528060008152506117a4565b505050565b6000806002600084815260200190815260200160002060009054906101000a900473ffffffffffffffffffffffffffffffffffffffff169050600073ffffffffffffffffffffffffffffffffffffffff168173ffffffffffffffffffffffffffffffffffffffff1614156107c1576040517f08c379a00000000000000000000000000000000000000000000000000000000081526004016107b8906124f7565b60405180910390fd5b80915050919050565b6000600360008373ffffffffffffffffffffffffffffffffffffffff1673ffffffffffffffffffffffffffffffffffffffff168152602001908152602001600020805490509050919050565b61081e6117ca565b73ffffffffffffffffffffffffffffffffffffffff1661083c610b11565b73ffffffffffffffffffffffffffffffffffffffff1614610892576040517f08c379a000000000000000000000000000000000000000000000000000000000815260040161088990612537565b60405180910390fd5b600073ffffffffffffffffffffffffffffffffffffffff1660008054906101000a900473ffffffffffffffffffffffffffffffffffffffff1673ffffffffffffffffffffffffffffffffffffffff167f8be0079c531659141344cd1fd0a4f28419497f9722a3daafe3b4186f6b6457e060405160405180910390a360008060006101000a81548173ffffffffffffffffffffffffffffffffffffffff021916908373ffffffffffffffffffffffffffffffffffffffff160217905550565b6060600360008373ffffffffffffffffffffffffffffffffffffffff1673ffffffffffffffffffffffffffffffffffffffff1681526020019081526020016000208054806020026020016040519081016040528092919081815260200182805480156109db57602002820191906000526020600020905b8154815260200190600101908083116109c7575b50505050509050919050565b60006109f16117ca565b73ffffffffffffffffffffffffffffffffffffffff16610a0f610b11565b73ffffffffffffffffffffffffffffffffffffffff1614610a65576040517f08c379a0000000000000000000000000000000000000000000000000000000008152600401610a5c90612537565b60405180910390fd5b600a61ffff16600660009054906101000a900461ffff1661ffff1610610ac0576040517f08c379a0000000000000000000000000000000000000000000000000000000008152600401610ab7906125b7565b60405180910390fd5b6006600081819054906101000a900461ffff1680929190610ae090612956565b91906101000a81548161ffff021916908361ffff16021790555050610b0a600080600085336117d2565b9050919050565b60008060009054906101000a900473ffffffffffffffffffffffffffffffffffffffff16905090565b60606040518060400160405280600481526020017f444f524100000000000000000000000000000000000000000000000000000000815250905090565b60008060008060008060018781548110610bba577f4e487b7100000000000000000000000000000000000000000000000000000000600052603260045260246000fd5b906000526020600020906002020160000154955060018781548110610c08577f4e487b7100000000000000000000000000000000000000000000000000000000600052603260045260246000fd5b906000526020600020906002020160010160009054906101000a900467ffffffffffffffff16945060018781548110610c6a577f4e487b7100000000000000000000000000000000000000000000000000000000600052603260045260246000fd5b906000526020600020906002020160010160089054906101000a900463ffffffff16935060018781548110610cc8577f4e487b7100000000000000000000000000000000000000000000000000000000600052603260045260246000fd5b9060005260206000209060020201600101600c9054906101000a900463ffffffff16925060018781548110610d26577f4e487b7100000000000000000000000000000000000000000000000000000000600052603260045260246000fd5b906000526020600020906002020160010160109054906101000a900461ffff1691506002600088815260200190815260200160002060009054906101000a900473ffffffffffffffffffffffffffffffffffffffff16905091939550919395565b3373ffffffffffffffffffffffffffffffffffffffff168273ffffffffffffffffffffffffffffffffffffffff161415610df6576040517f08c379a0000000000000000000000000000000000000000000000000000000008152600401610ded906124b7565b60405180910390fd5b80600560003373ffffffffffffffffffffffffffffffffffffffff1673ffffffffffffffffffffffffffffffffffffffff16815260200190815260200160002060008473ffffffffffffffffffffffffffffffffffffffff1673ffffffffffffffffffffffffffffffffffffffff16815260200190815260200160002060006101000a81548160ff0219169083151502179055508173ffffffffffffffffffffffffffffffffffffffff163373ffffffffffffffffffffffffffffffffffffffff167f17307eab39ab6107e8899845ad3d59bd9653f200f220920489ca2b5937696c3183604051610ee7919061245a565b60405180910390a35050565b60046020528060005260406000206000915054906101000a900473ffffffffffffffffffffffffffffffffffffffff1681565b600a81565b610f373386868661147a565b610f4057600080fd5b610f9085858585858080601f016020809104026020016040519081016040528093929190818152602001838380828437600081840152601f19601f820116905080830192505050505050506117a4565b5050505050565b6000610fa3338461135c565b8015610fb55750610fb4338361135c565b5b610ff4576040517f08c379a0000000000000000000000000000000000000000000000000000000008152600401610feb906125d7565b60405180910390fd5b600060018481548110611030577f4e487b7100000000000000000000000000000000000000000000000000000000600052603260045260246000fd5b9060005260206000209060020201905060006001848154811061107c577f4e487b7100000000000000000000000000000000000000000000000000000000600052603260045260246000fd5b9060005260206000209060020201905060006110a08360000154836000015461195e565b90506000600160028460010160109054906101000a900461ffff168660010160109054906101000a900461ffff166110d891906126ff565b6110e2919061278d565b6110ec91906126ff565b61ffff1690506110ff87878385336117d2565b94505050505092915050565b6000600560008473ffffffffffffffffffffffffffffffffffffffff1673ffffffffffffffffffffffffffffffffffffffff16815260200190815260200160002060008373ffffffffffffffffffffffffffffffffffffffff1673ffffffffffffffffffffffffffffffffffffffff16815260200190815260200160002060009054906101000a900460ff16905092915050565b600660009054906101000a900461ffff1681565b6111bb6117ca565b73ffffffffffffffffffffffffffffffffffffffff166111d9610b11565b73ffffffffffffffffffffffffffffffffffffffff161461122f576040517f08c379a000000000000000000000000000000000000000000000000000000000815260040161122690612537565b60405180910390fd5b600073ffffffffffffffffffffffffffffffffffffffff168173ffffffffffffffffffffffffffffffffffffffff16141561129f576040517f08c379a000000000000000000000000000000000000000000000000000000000815260040161129690612497565b60405180910390fd5b8073ffffffffffffffffffffffffffffffffffffffff1660008054906101000a900473ffffffffffffffffffffffffffffffffffffffff1673ffffffffffffffffffffffffffffffffffffffff167f8be0079c531659141344cd1fd0a4f28419497f9722a3daafe3b4186f6b6457e060405160405180910390a3806000806101000a81548173ffffffffffffffffffffffffffffffffffffffff021916908373ffffffffffffffffffffffffffffffffffffffff16021790555050565b60008273ffffffffffffffffffffffffffffffffffffffff166002600084815260200190815260200160002060009054906101000a900473ffffffffffffffffffffffffffffffffffffffff1673ffffffffffffffffffffffffffffffffffffffff1614905092915050565b816004600083815260200190815260200160002060006101000a81548173ffffffffffffffffffffffffffffffffffffffff021916908373ffffffffffffffffffffffffffffffffffffffff160217905550808273ffffffffffffffffffffffffffffffffffffffff168473ffffffffffffffffffffffffffffffffffffffff167f8c5be1e5ebec7d5bd14f71427d1e84f3dd0314c0f7b2291e5b200ac8c7c3b92560405160405180910390a4505050565b60008073ffffffffffffffffffffffffffffffffffffffff166002600084815260200190815260200160002060009054906101000a900473ffffffffffffffffffffffffffffffffffffffff1673ffffffffffffffffffffffffffffffffffffffff16141561151e576040517f08c379a000000000000000000000000000000000000000000000000000000000815260040161151590612517565b60405180910390fd5b600073ffffffffffffffffffffffffffffffffffffffff168373ffffffffffffffffffffffffffffffffffffffff16141561158e576040517f08c379a000000000000000000000000000000000000000000000000000000000815260040161158590612597565b60405180910390fd5b611598848361135c565b6115d7576040517f08c379a00000000000000000000000000000000000000000000000000000000081526004016115ce90612557565b60405180910390fd5b8373ffffffffffffffffffffffffffffffffffffffff168573ffffffffffffffffffffffffffffffffffffffff1614806116175750611616848661110b565b5b80611628575061162785836119af565b5b611667576040517f08c379a000000000000000000000000000000000000000000000000000000000815260040161165e90612577565b60405180910390fd5b60019050949350505050565b600073ffffffffffffffffffffffffffffffffffffffff168373ffffffffffffffffffffffffffffffffffffffff16146116e8576116b18382611a1b565b6004600082815260200190815260200160002060006101000a81549073ffffffffffffffffffffffffffffffffffffffff02191690555b6116f28282611bcb565b816002600083815260200190815260200160002060006101000a81548173ffffffffffffffffffffffffffffffffffffffff021916908373ffffffffffffffffffffffffffffffffffffffff160217905550808273ffffffffffffffffffffffffffffffffffffffff168473ffffffffffffffffffffffffffffffffffffffff167fddf252ad1be2c89b69c2b068fc378daa952ba7f163c4a11628f55a4df523b3ef60405160405180910390a4505050565b6117af848484611673565b6117bb84848484611c63565b6117c457600080fd5b50505050565b600033905090565b6000806040518060a001604052808581526020014267ffffffffffffffff1681526020018863ffffffff1681526020018763ffffffff1681526020018661ffff16815250905060018190806001815401808255809150506001900390600052602060002090600202016000909190919091506000820151816000015560208201518160010160006101000a81548167ffffffffffffffff021916908367ffffffffffffffff16021790555060408201518160010160086101000a81548163ffffffff021916908363ffffffff160217905550606082015181600101600c6101000a81548163ffffffff021916908363ffffffff16021790555060808201518160010160106101000a81548161ffff021916908361ffff16021790555050506000600180805490506119039190612849565b90507f0a5311bd2a6608f08a180df2ee7c5946819a649b204b554bb8e39825b2c50ad584828a8a8960405161193c9594939291906123e5565b60405180910390a161195060008583611673565b809250505095945050505050565b600080629896808461197091906127be565b9050600062989680846119839190612981565b9050600081629896808461199791906127ef565b6119a19190612737565b905080935050505092915050565b60008273ffffffffffffffffffffffffffffffffffffffff166004600084815260200190815260200160002060009054906101000a900473ffffffffffffffffffffffffffffffffffffffff1673ffffffffffffffffffffffffffffffffffffffff1614905092915050565b60006001611a28846107ca565b611a329190612849565b9050600360008473ffffffffffffffffffffffffffffffffffffffff1673ffffffffffffffffffffffffffffffffffffffff1681526020019081526020016000208181548110611aab577f4e487b7100000000000000000000000000000000000000000000000000000000600052603260045260246000fd5b9060005260206000200154600360008573ffffffffffffffffffffffffffffffffffffffff1673ffffffffffffffffffffffffffffffffffffffff1681526020019081526020016000208381548110611b2d577f4e487b7100000000000000000000000000000000000000000000000000000000600052603260045260246000fd5b9060005260206000200181905550600360008473ffffffffffffffffffffffffffffffffffffffff1673ffffffffffffffffffffffffffffffffffffffff168152602001908152602001600020805480611bb0577f4e487b7100000000000000000000000000000000000000000000000000000000600052603160045260246000fd5b60019003818190600052602060002001600090559055505050565b6000611bd6836107ca565b905081600360008573ffffffffffffffffffffffffffffffffffffffff1673ffffffffffffffffffffffffffffffffffffffff1681526020019081526020016000208281548110611c50577f4e487b7100000000000000000000000000000000000000000000000000000000600052603260045260246000fd5b9060005260206000200181905550505050565b6000611c6e84611d7d565b611c7b5760019050611d75565b60008473ffffffffffffffffffffffffffffffffffffffff1663150b7a02338887876040518563ffffffff1660e01b8152600401611cbc9493929190612399565b602060405180830381600087803b158015611cd657600080fd5b505af1158015611cea573d6000803e3d6000fd5b505050506040513d601f19601f82011682018060405250810190611d0e919061201e565b90507f150b7a023d4804d13e8c85fb27262cb750cf6ba9f9dd3bb30d90f482ceeb4b1f7bffffffffffffffffffffffffffffffffffffffffffffffffffffffff1916817bffffffffffffffffffffffffffffffffffffffffffffffffffffffff1916149150505b949350505050565b600080823b905060008163ffffffff1611915050919050565b600081359050611da581612cee565b92915050565b600081359050611dba81612d05565b92915050565b600081359050611dcf81612d1c565b92915050565b600081519050611de481612d1c565b92915050565b60008083601f840112611dfc57600080fd5b8235905067ffffffffffffffff811115611e1557600080fd5b602083019150836001820283011115611e2d57600080fd5b9250929050565b600081359050611e4381612d33565b92915050565b600060208284031215611e5b57600080fd5b6000611e6984828501611d96565b91505092915050565b60008060408385031215611e8557600080fd5b6000611e9385828601611d96565b9250506020611ea485828601611d96565b9150509250929050565b600080600060608486031215611ec357600080fd5b6000611ed186828701611d96565b9350506020611ee286828701611d96565b9250506040611ef386828701611e34565b9150509250925092565b600080600080600060808688031215611f1557600080fd5b6000611f2388828901611d96565b9550506020611f3488828901611d96565b9450506040611f4588828901611e34565b935050606086013567ffffffffffffffff811115611f6257600080fd5b611f6e88828901611dea565b92509250509295509295909350565b60008060408385031215611f9057600080fd5b6000611f9e85828601611d96565b9250506020611faf85828601611dab565b9150509250929050565b60008060408385031215611fcc57600080fd5b6000611fda85828601611d96565b9250506020611feb85828601611e34565b9150509250929050565b60006020828403121561200757600080fd5b600061201584828501611dc0565b91505092915050565b60006020828403121561203057600080fd5b600061203e84828501611dd5565b91505092915050565b60006020828403121561205957600080fd5b600061206784828501611e34565b91505092915050565b6000806040838503121561208357600080fd5b600061209185828601611e34565b92505060206120a285828601611e34565b9150509250929050565b60006120b88383612342565b60208301905092915050565b6120cd8161287d565b82525050565b60006120de8261269e565b6120e881856126cc565b93506120f38361268e565b8060005b8381101561212457815161210b88826120ac565b9750612116836126bf565b9250506001810190506120f7565b5085935050505092915050565b61213a8161288f565b82525050565b600061214b826126a9565b61215581856126dd565b9350612165818560208601612923565b61216e81612a10565b840191505092915050565b6000612184826126b4565b61218e81856126ee565b935061219e818560208601612923565b6121a781612a10565b840191505092915050565b60006121bf6026836126ee565b91506121ca82612a21565b604082019050919050565b60006121e26019836126ee565b91506121ed82612a70565b602082019050919050565b6000612205602b836126ee565b915061221082612a99565b604082019050919050565b60006122286029836126ee565b915061223382612ae8565b604082019050919050565b600061224b6018836126ee565b915061225682612b37565b602082019050919050565b600061226e6020836126ee565b915061227982612b60565b602082019050919050565b6000612291602a836126ee565b915061229c82612b89565b604082019050919050565b60006122b46037836126ee565b91506122bf82612bd8565b604082019050919050565b60006122d76017836126ee565b91506122e282612c27565b602082019050919050565b60006122fa6021836126ee565b915061230582612c50565b604082019050919050565b600061231d6023836126ee565b915061232882612c9f565b604082019050919050565b61233c816128c7565b82525050565b61234b816128f5565b82525050565b61235a816128f5565b82525050565b612369816128ff565b82525050565b6123788161290f565b82525050565b600060208201905061239360008301846120c4565b92915050565b60006080820190506123ae60008301876120c4565b6123bb60208301866120c4565b6123c86040830185612351565b81810360608301526123da8184612140565b905095945050505050565b600060a0820190506123fa60008301886120c4565b6124076020830187612351565b6124146040830186612351565b6124216060830185612351565b61242e6080830184612351565b9695505050505050565b6000602082019050818103600083015261245281846120d3565b905092915050565b600060208201905061246f6000830184612131565b92915050565b6000602082019050818103600083015261248f8184612179565b905092915050565b600060208201905081810360008301526124b0816121b2565b9050919050565b600060208201905081810360008301526124d0816121d5565b9050919050565b600060208201905081810360008301526124f0816121f8565b9050919050565b600060208201905081810360008301526125108161221b565b9050919050565b600060208201905081810360008301526125308161223e565b9050919050565b6000602082019050818103600083015261255081612261565b9050919050565b6000602082019050818103600083015261257081612284565b9050919050565b60006020820190508181036000830152612590816122a7565b9050919050565b600060208201905081810360008301526125b0816122ca565b9050919050565b600060208201905081810360008301526125d0816122ed565b9050919050565b600060208201905081810360008301526125f081612310565b9050919050565b600060208201905061260c6000830184612333565b92915050565b60006020820190506126276000830184612351565b92915050565b600060c0820190506126426000830189612351565b61264f602083018861236f565b61265c6040830187612360565b6126696060830186612360565b6126766080830185612333565b61268360a08301846120c4565b979650505050505050565b6000819050602082019050919050565b600081519050919050565b600081519050919050565b600081519050919050565b6000602082019050919050565b600082825260208201905092915050565b600082825260208201905092915050565b600082825260208201905092915050565b600061270a826128c7565b9150612715836128c7565b92508261ffff0382111561272c5761272b6129b2565b5b828201905092915050565b6000612742826128f5565b915061274d836128f5565b9250827fffffffffffffffffffffffffffffffffffffffffffffffffffffffffffffffff03821115612782576127816129b2565b5b828201905092915050565b6000612798826128c7565b91506127a3836128c7565b9250826127b3576127b26129e1565b5b828204905092915050565b60006127c9826128f5565b91506127d4836128f5565b9250826127e4576127e36129e1565b5b828204905092915050565b60006127fa826128f5565b9150612805836128f5565b9250817fffffffffffffffffffffffffffffffffffffffffffffffffffffffffffffffff048311821515161561283e5761283d6129b2565b5b828202905092915050565b6000612854826128f5565b915061285f836128f5565b925082821015612872576128716129b2565b5b828203905092915050565b6000612888826128d5565b9050919050565b60008115159050919050565b60007fffffffff0000000000000000000000000000000000000000000000000000000082169050919050565b600061ffff82169050919050565b600073ffffffffffffffffffffffffffffffffffffffff82169050919050565b6000819050919050565b600063ffffffff82169050919050565b600067ffffffffffffffff82169050919050565b60005b83811015612941578082015181840152602081019050612926565b83811115612950576000848401525b50505050565b6000612961826128c7565b915061ffff821415612976576129756129b2565b5b600182019050919050565b600061298c826128f5565b9150612997836128f5565b9250826129a7576129a66129e1565b5b828206905092915050565b7f4e487b7100000000000000000000000000000000000000000000000000000000600052601160045260246000fd5b7f4e487b7100000000000000000000000000000000000000000000000000000000600052601260045260246000fd5b6000601f19601f8301169050919050565b7f4f776e61626c653a206e6577206f776e657220697320746865207a65726f206160008201527f6464726573730000000000000000000000000000000000000000000000000000602082015250565b7f4552433732313a20596f752061726520746865206f776e657200000000000000600082015250565b7f4552433732313a20596f7520617265206e6f7420746865206f776e6572206f6660008201527f207468697320746f6b656e000000000000000000000000000000000000000000602082015250565b7f4552433732313a206f776e657220717565727920666f72206e6f6e657869737460008201527f656e7420746f6b656e0000000000000000000000000000000000000000000000602082015250565b7f4552433732313a20496e76616c696420746f6b656e2049440000000000000000600082015250565b7f4f776e61626c653a2063616c6c6572206973206e6f7420746865206f776e6572600082015250565b7f4552433732313a205468652073656e64657220646f6573206e6f74206f776e2060008201527f7468697320746f6b656e00000000000000000000000000000000000000000000602082015250565b7f4552433732313a20596f7520646f6e2774206861766520746865207065726d6960008201527f7373696f6e20746f207472616e7366657220746f6b656e000000000000000000602082015250565b7f4552433732313a20496e76616c69642061646472657373000000000000000000600082015250565b7f43616e6e6f7420637265617465206d6f72652067656e203020646f7261656d6f60008201527f6e00000000000000000000000000000000000000000000000000000000000000602082015250565b7f596f7520617265206e6f7420746865206f776e6572206f66207468697320746f60008201527f6b656e0000000000000000000000000000000000000000000000000000000000602082015250565b612cf78161287d565b8114612d0257600080fd5b50565b612d0e8161288f565b8114612d1957600080fd5b50565b612d258161289b565b8114612d3057600080fd5b50565b612d3c816128f5565b8114612d4757600080fd5b5056fea2646970667358221220698a9abafbf9837d8abb93455bbd9e00aba31ccd7acb4e8e4340bc6183fbbafc64736f6c63430008040033",
  "immutableReferences": {},
  "source": "// SPDX-License-Identifier: MIT\npragma solidity ^0.8.0;\n\n// import \"../node_modules/@openzeppelin/contracts/token/ERC721/IERC721.sol\";\n// import \"../node_modules/@openzeppelin/contracts/token/ERC721/extensions/IERC721Metadata.sol\";\n// import \"../node_modules/@openzeppelin/contracts/token/ERC721/extensions/IERC721Enumerable.sol\";\n\nimport \"./IERC721.sol\";\nimport \"./IERC721Receiver.sol\";\nimport \"../node_modules/@openzeppelin/contracts/access/Ownable.sol\";\n\ncontract Doracontract is IERC721, Ownable {\n  string constant _name = \"CryptoDoraemon\";\n  string constant _symbol = \"DORA\";\n  uint16 public constant CREATION_LIMIT_GEN0 = 10;\n\n  bytes4 internal constant MAGIC_ERC721_RECEIVED = bytes4(keccak256(\"onERC721Received(address,address,uint256,bytes)\"));\n  bytes4 private constant _INTERFACE_ID_ERC721 = 0x80ac58cd;\n  bytes4 private constant _INTERFACE_ID_ERC165 = 0x01ffc9a7;\n\n  event Birth(\n    address owner, \n    uint256 doraemonId, \n    uint256 mumId, \n    uint256 dadId, \n    uint256 genes\n  );\n\n  struct Doraemon {\n    uint256 genes;\n    uint64 birthTime;\n    uint32 mumId;\n    uint32 dadId;\n    uint16 generation;\n  }\n\n  //Array of all tokens (index => token) (index, token ID: position of allTokens array)\n  Doraemon[] private allTokens;\n  //Token ID to owner address\n  mapping (uint256 => address) private tokenOwner;\n  //Owner to list of owned token IDs (addr => index)\n  mapping(address => uint256[]) private ownedTokens;\n  //Give right to transfer (token ID => approved address)\n  mapping (uint256 => address) public tokenIndexToApproved;\n  //Give operator (myAddr => operatorAddr => true/false)\n  mapping (address => mapping(address => bool)) private operatorApprovals;\n\n  //Counts created gen 0 doraemons\n  uint16 public gen0Counter; \n\n\n\n  function supportsInterface(bytes4 _interfaceId) external pure returns (bool) {\n    return (_interfaceId == _INTERFACE_ID_ERC165 || _interfaceId == _INTERFACE_ID_ERC721);\n  }\n\n  function createDoraemonGen0(uint256 _genes) public onlyOwner returns(uint256){\n    require(gen0Counter < CREATION_LIMIT_GEN0, \"Cannot create more gen 0 doraemon\");\n    gen0Counter++;\n\n    return _createDoraemon(0, 0, 0, _genes, msg.sender);\n  }\n\n  function _createDoraemon(\n    uint256 _mumId, \n    uint256 _dadId, \n    uint256 _generation, \n    uint256 _genes, \n    address _owner\n  ) private returns(uint256) {\n    Doraemon memory _doraemon = Doraemon({\n      genes: _genes,\n      birthTime: uint64(block.timestamp),\n      mumId: uint32(_mumId),\n      dadId: uint32(_dadId),\n      generation: uint16(_generation)\n    });\n    allTokens.push(_doraemon);\n    uint256 newDoraemonId = allTokens.length - 1; \n\n    emit Birth(_owner, newDoraemonId, _mumId, _dadId, _genes);\n    _transfer(address(0), _owner, newDoraemonId);\n\n    return newDoraemonId;\n  } \n\n  function getDoraemon(uint256 _tokenId) external view returns(\n    uint256 genes,\n    uint64 birthTime,\n    uint32 mumId,\n    uint32 dadId,\n    uint16 generation,\n    address owner\n  ){\n    genes = allTokens[_tokenId].genes;\n    birthTime = allTokens[_tokenId].birthTime;\n    mumId = allTokens[_tokenId].mumId;\n    dadId = allTokens[_tokenId].dadId;\n    generation = allTokens[_tokenId].generation;\n    owner = tokenOwner[_tokenId];\n  }\n\n  function tokensOfOwner(address _owner) external view returns(uint256[] memory){\n    return ownedTokens[_owner];\n  }\n\n  function breed(uint256 _dadId, uint256 _mumId) public returns (uint256){\n    require(_owns(msg.sender, _dadId) && _owns(msg.sender, _mumId), \"You are not the owner of this token\");\n    Doraemon storage dad = allTokens[_dadId];\n    Doraemon storage mum = allTokens[_mumId];\n    uint256 newDna = _mixDna(dad.genes, mum.genes);\n    uint256 newGen = (dad.generation + mum.generation) / 2 + 1;\n    return _createDoraemon(_dadId, _mumId, newGen, newDna, msg.sender);\n  }\n\n  function balanceOf(address _owner) public view override returns(uint256){\n    return ownedTokens[_owner].length;\n  }\n\n  function totalSupply() external view override returns(uint256){\n    return allTokens.length;\n  }\n\n  function name() external pure override returns (string memory){\n    return _name;\n  } \n\n  function symbol() external pure override returns (string memory){\n    return _symbol;\n  } \n\n  function ownerOf(uint256 _tokenId) public view override returns(address){\n    address owner = tokenOwner[_tokenId];\n    require(owner != address(0), \"ERC721: owner query for nonexistent token\");\n    return owner;\n  }\n\n  function approve(address _approved, uint256 _tokenId) external override{\n    require(_owns(msg.sender, _tokenId), \"ERC721: You are not the owner of this token\");\n    _approve(msg.sender, _approved, _tokenId);\n  }\n\n  function setApprovalForAll(address _operator, bool _approved) external override {\n    require(_operator != msg.sender, \"ERC721: You are the owner\");\n    operatorApprovals[msg.sender][_operator] = _approved;\n    emit ApprovalForAll(msg.sender, _operator, _approved);\n  }\n\n  function getApproved(uint256 _tokenId) external view override returns(address){\n    require(tokenOwner[_tokenId] != address(0), \"ERC721: Invalid token ID\");\n    return tokenIndexToApproved[_tokenId];\n  }\n\n  function isApprovedForAll(address _owner, address _operator) public view override returns(bool){\n    return operatorApprovals[_owner][_operator];\n  }\n\n  function safeTransferFrom(address _from, address _to, uint256 _tokenId) external override {\n    require(_isApprovedOrOwner(msg.sender, _from, _to, _tokenId));\n    _safeTransfer(_from, _to, _tokenId, \"\");\n  }\n\n  function safeTransferFrom(address _from, address _to, uint256 _tokenId, bytes calldata data) external override {\n    require(_isApprovedOrOwner(msg.sender, _from, _to, _tokenId));\n    _safeTransfer(_from, _to, _tokenId, data);\n  }\n\n  function _safeTransfer(address _from, address _to, uint256 _tokenId, bytes memory _data) internal {\n    _transfer(_from, _to, _tokenId);\n    require(_checkERC721Support(_from, _to, _tokenId, _data));\n  }\n\n  function transferFrom(address _from, address _to, uint256 _tokenId) external override {\n    require(_isApprovedOrOwner(msg.sender, _from, _to, _tokenId));\n    _transfer(_from, _to, _tokenId);\n  }\n\n  function _transfer(address _from, address _to, uint256 _tokenId) internal{\n    if(_from != address(0)){\n      _removeTokenFromOwnerEnumeration(_from, _tokenId); \n      delete tokenIndexToApproved[_tokenId];\n    }\n    _addtokenOwnerEnumeration(_to, _tokenId);\n    tokenOwner[_tokenId] = _to;\n    emit Transfer(_from, _to, _tokenId);\n  }\n\n  function _addtokenOwnerEnumeration(address _to, uint256 _tokenId) private {\n    uint256 length = balanceOf(_to);\n    ownedTokens[_to][length] = _tokenId;\n  }\n\n  function _removeTokenFromOwnerEnumeration(address _from, uint256 _tokenId) private {\n    uint256 lastTokenIndex = balanceOf(_from) - 1;\n    ownedTokens[_from][_tokenId] = ownedTokens[_from][lastTokenIndex];\n    ownedTokens[_from].pop();\n  }\n\n  function _owns(address _claimant, uint256 _tokenId) internal view returns(bool){\n    return tokenOwner[_tokenId] == _claimant;\n  }\n\n  function _approve(address _owner, address _approved, uint256 _tokenId) internal {\n    tokenIndexToApproved[_tokenId] = _approved;\n    emit Approval(_owner, _approved, _tokenId);\n  }\n\n  function _approvedFor(address _claimant, uint256 _tokenId) internal view returns (bool) {\n    return tokenIndexToApproved[_tokenId] == _claimant;\n  }\n\n  function _checkERC721Support(address _from, address _to, uint256 _tokenId, bytes memory _data) internal returns (bool) {\n    if(!_isContract(_to)){\n      return true;\n    }\n\n    bytes4 returnData = IERC721Receiver(_to).onERC721Received(msg.sender, _from, _tokenId, _data);\n    return returnData == MAGIC_ERC721_RECEIVED;\n  }\n\n  function _isContract(address _to) view internal returns(bool){\n    uint32 size; //code size\n    assembly{\n      size := extcodesize(_to)\n    }\n    return size > 0;\n  }\n\n  function _isApprovedOrOwner(address _spender, address _from, address _to, uint256 _tokenId) internal view returns(bool){\n    require(tokenOwner[_tokenId] != address(0), \"ERC721: Invalid token ID\");\n    require(_to != address(0), \"ERC721: Invalid address\");\n    require(_owns(_from, _tokenId), \"ERC721: The sender does not own this token\");\n    require(\n      _spender == _from || isApprovedForAll(_from, _spender) || _approvedFor(_spender, _tokenId), \n      \"ERC721: You don't have the permission to transfer token\"\n    );\n    return true;\n  }\n\n  function _mixDna(uint256 _dadDna, uint256 _mumDna) internal pure returns(uint256){\n    uint256 firstHalf = _dadDna / 10000000;\n    uint256 secondHalf = _mumDna % 10000000;\n\n    uint256 newDna = firstHalf * 10000000 + secondHalf;\n    return newDna;\n  }\n}",
  "sourcePath": "/Users/riomain/code/blockchain/academy/nftgame/doraemon/contracts/Doracontract.sol",
  "compiler": {
    "name": "solc",
    "version": "0.8.4+commit.c7e474f2.Emscripten.clang"
  },
  "schemaVersion": "3.3.4",
  "updatedAt": "2021-05-19T01:34:01.019Z",
  "networkType": "ethereum",
  "devdoc": {
    "kind": "dev",
    "methods": {
      "owner()": {
        "details": "Returns the address of the current owner."
      },
      "renounceOwnership()": {
        "details": "Leaves the contract without owner. It will not be possible to call `onlyOwner` functions anymore. Can only be called by the current owner. NOTE: Renouncing ownership will leave the contract without an owner, thereby removing any functionality that is only available to the owner."
      },
      "transferOwnership(address)": {
        "details": "Transfers ownership of the contract to a new account (`newOwner`). Can only be called by the current owner."
      }
    },
    "version": 1
  },
  "userdoc": {
    "kind": "user",
    "methods": {},
    "version": 1
  }
}