{
  "contractName": "Doracontract",
  "abi": [
    {
      "inputs": [],
      "stateMutability": "nonpayable",
      "type": "constructor"
    },
    {
      "anonymous": false,
      "inputs": [
        {
          "indexed": true,
          "internalType": "address",
          "name": "owner",
          "type": "address"
        },
        {
          "indexed": true,
          "internalType": "address",
          "name": "approved",
          "type": "address"
        },
        {
          "indexed": true,
          "internalType": "uint256",
          "name": "tokenId",
          "type": "uint256"
        }
      ],
      "name": "Approval",
      "type": "event"
    },
    {
      "anonymous": false,
      "inputs": [
        {
          "indexed": true,
          "internalType": "address",
          "name": "owner",
          "type": "address"
        },
        {
          "indexed": true,
          "internalType": "address",
          "name": "operator",
          "type": "address"
        },
        {
          "indexed": false,
          "internalType": "bool",
          "name": "approved",
          "type": "bool"
        }
      ],
      "name": "ApprovalForAll",
      "type": "event"
    },
    {
      "anonymous": false,
      "inputs": [
        {
          "indexed": false,
          "internalType": "address",
          "name": "owner",
          "type": "address"
        },
        {
          "indexed": false,
          "internalType": "uint256",
          "name": "doraemonId",
          "type": "uint256"
        },
        {
          "indexed": false,
          "internalType": "uint256",
          "name": "mumId",
          "type": "uint256"
        },
        {
          "indexed": false,
          "internalType": "uint256",
          "name": "dadId",
          "type": "uint256"
        },
        {
          "indexed": false,
          "internalType": "uint256",
          "name": "genes",
          "type": "uint256"
        }
      ],
      "name": "Birth",
      "type": "event"
    },
    {
      "anonymous": false,
      "inputs": [
        {
          "indexed": true,
          "internalType": "address",
          "name": "previousOwner",
          "type": "address"
        },
        {
          "indexed": true,
          "internalType": "address",
          "name": "newOwner",
          "type": "address"
        }
      ],
      "name": "OwnershipTransferred",
      "type": "event"
    },
    {
      "anonymous": false,
      "inputs": [
        {
          "indexed": true,
          "internalType": "address",
          "name": "from",
          "type": "address"
        },
        {
          "indexed": true,
          "internalType": "address",
          "name": "to",
          "type": "address"
        },
        {
          "indexed": true,
          "internalType": "uint256",
          "name": "tokenId",
          "type": "uint256"
        }
      ],
      "name": "Transfer",
      "type": "event"
    },
    {
      "inputs": [],
      "name": "CREATION_LIMIT_GEN0",
      "outputs": [
        {
          "internalType": "uint16",
          "name": "",
          "type": "uint16"
        }
      ],
      "stateMutability": "view",
      "type": "function",
      "constant": true
    },
    {
      "inputs": [],
      "name": "gen0Counter",
      "outputs": [
        {
          "internalType": "uint16",
          "name": "",
          "type": "uint16"
        }
      ],
      "stateMutability": "view",
      "type": "function",
      "constant": true
    },
    {
      "inputs": [],
      "name": "owner",
      "outputs": [
        {
          "internalType": "address",
          "name": "",
          "type": "address"
        }
      ],
      "stateMutability": "view",
      "type": "function",
      "constant": true
    },
    {
      "inputs": [],
      "name": "renounceOwnership",
      "outputs": [],
      "stateMutability": "nonpayable",
      "type": "function"
    },
    {
      "inputs": [
        {
          "internalType": "uint256",
          "name": "",
          "type": "uint256"
        }
      ],
      "name": "tokenIndexToApproved",
      "outputs": [
        {
          "internalType": "address",
          "name": "",
          "type": "address"
        }
      ],
      "stateMutability": "view",
      "type": "function",
      "constant": true
    },
    {
      "inputs": [
        {
          "internalType": "address",
          "name": "newOwner",
          "type": "address"
        }
      ],
      "name": "transferOwnership",
      "outputs": [],
      "stateMutability": "nonpayable",
      "type": "function"
    },
    {
      "inputs": [
        {
          "internalType": "bytes4",
          "name": "_interfaceId",
          "type": "bytes4"
        }
      ],
      "name": "supportsInterface",
      "outputs": [
        {
          "internalType": "bool",
          "name": "",
          "type": "bool"
        }
      ],
      "stateMutability": "pure",
      "type": "function",
      "constant": true
    },
    {
      "inputs": [
        {
          "internalType": "uint256",
          "name": "_genes",
          "type": "uint256"
        }
      ],
      "name": "createDoraemonGen0",
      "outputs": [
        {
          "internalType": "uint256",
          "name": "",
          "type": "uint256"
        }
      ],
      "stateMutability": "nonpayable",
      "type": "function"
    },
    {
      "inputs": [
        {
          "internalType": "uint256",
          "name": "_tokenId",
          "type": "uint256"
        }
      ],
      "name": "getDoraemon",
      "outputs": [
        {
          "internalType": "uint256",
          "name": "genes",
          "type": "uint256"
        },
        {
          "internalType": "uint64",
          "name": "birthTime",
          "type": "uint64"
        },
        {
          "internalType": "uint32",
          "name": "mumId",
          "type": "uint32"
        },
        {
          "internalType": "uint32",
          "name": "dadId",
          "type": "uint32"
        },
        {
          "internalType": "uint16",
          "name": "generation",
          "type": "uint16"
        },
        {
          "internalType": "address",
          "name": "owner",
          "type": "address"
        }
      ],
      "stateMutability": "view",
      "type": "function",
      "constant": true
    },
    {
      "inputs": [
        {
          "internalType": "address",
          "name": "_owner",
          "type": "address"
        }
      ],
      "name": "tokensOfOwner",
      "outputs": [
        {
          "internalType": "uint256[]",
          "name": "",
          "type": "uint256[]"
        }
      ],
      "stateMutability": "view",
      "type": "function",
      "constant": true
    },
    {
      "inputs": [
        {
          "internalType": "uint256",
          "name": "_dadId",
          "type": "uint256"
        },
        {
          "internalType": "uint256",
          "name": "_mumId",
          "type": "uint256"
        }
      ],
      "name": "breed",
      "outputs": [
        {
          "internalType": "uint256",
          "name": "",
          "type": "uint256"
        }
      ],
      "stateMutability": "nonpayable",
      "type": "function"
    },
    {
      "inputs": [
        {
          "internalType": "address",
          "name": "_owner",
          "type": "address"
        }
      ],
      "name": "balanceOf",
      "outputs": [
        {
          "internalType": "uint256",
          "name": "",
          "type": "uint256"
        }
      ],
      "stateMutability": "view",
      "type": "function",
      "constant": true
    },
    {
      "inputs": [],
      "name": "totalSupply",
      "outputs": [
        {
          "internalType": "uint256",
          "name": "",
          "type": "uint256"
        }
      ],
      "stateMutability": "view",
      "type": "function",
      "constant": true
    },
    {
      "inputs": [],
      "name": "name",
      "outputs": [
        {
          "internalType": "string",
          "name": "",
          "type": "string"
        }
      ],
      "stateMutability": "pure",
      "type": "function",
      "constant": true
    },
    {
      "inputs": [],
      "name": "symbol",
      "outputs": [
        {
          "internalType": "string",
          "name": "",
          "type": "string"
        }
      ],
      "stateMutability": "pure",
      "type": "function",
      "constant": true
    },
    {
      "inputs": [
        {
          "internalType": "uint256",
          "name": "_tokenId",
          "type": "uint256"
        }
      ],
      "name": "ownerOf",
      "outputs": [
        {
          "internalType": "address",
          "name": "",
          "type": "address"
        }
      ],
      "stateMutability": "view",
      "type": "function",
      "constant": true
    },
    {
      "inputs": [
        {
          "internalType": "address",
          "name": "_approved",
          "type": "address"
        },
        {
          "internalType": "uint256",
          "name": "_tokenId",
          "type": "uint256"
        }
      ],
      "name": "approve",
      "outputs": [],
      "stateMutability": "nonpayable",
      "type": "function"
    },
    {
      "inputs": [
        {
          "internalType": "address",
          "name": "_operator",
          "type": "address"
        },
        {
          "internalType": "bool",
          "name": "_approved",
          "type": "bool"
        }
      ],
      "name": "setApprovalForAll",
      "outputs": [],
      "stateMutability": "nonpayable",
      "type": "function"
    },
    {
      "inputs": [
        {
          "internalType": "uint256",
          "name": "_tokenId",
          "type": "uint256"
        }
      ],
      "name": "getApproved",
      "outputs": [
        {
          "internalType": "address",
          "name": "",
          "type": "address"
        }
      ],
      "stateMutability": "view",
      "type": "function",
      "constant": true
    },
    {
      "inputs": [
        {
          "internalType": "address",
          "name": "_owner",
          "type": "address"
        },
        {
          "internalType": "address",
          "name": "_operator",
          "type": "address"
        }
      ],
      "name": "isApprovedForAll",
      "outputs": [
        {
          "internalType": "bool",
          "name": "",
          "type": "bool"
        }
      ],
      "stateMutability": "view",
      "type": "function",
      "constant": true
    },
    {
      "inputs": [
        {
          "internalType": "address",
          "name": "_from",
          "type": "address"
        },
        {
          "internalType": "address",
          "name": "_to",
          "type": "address"
        },
        {
          "internalType": "uint256",
          "name": "_tokenId",
          "type": "uint256"
        }
      ],
      "name": "safeTransferFrom",
      "outputs": [],
      "stateMutability": "nonpayable",
      "type": "function"
    },
    {
      "inputs": [
        {
          "internalType": "address",
          "name": "_from",
          "type": "address"
        },
        {
          "internalType": "address",
          "name": "_to",
          "type": "address"
        },
        {
          "internalType": "uint256",
          "name": "_tokenId",
          "type": "uint256"
        },
        {
          "internalType": "bytes",
          "name": "data",
          "type": "bytes"
        }
      ],
      "name": "safeTransferFrom",
      "outputs": [],
      "stateMutability": "nonpayable",
      "type": "function"
    },
    {
      "inputs": [
        {
          "internalType": "address",
          "name": "_from",
          "type": "address"
        },
        {
          "internalType": "address",
          "name": "_to",
          "type": "address"
        },
        {
          "internalType": "uint256",
          "name": "_tokenId",
          "type": "uint256"
        }
      ],
      "name": "transferFrom",
      "outputs": [],
      "stateMutability": "nonpayable",
      "type": "function"
    }
  ],
  "bytecode": "0x60806040523480156200001157600080fd5b50600062000024620000e160201b60201c565b9050806000806101000a81548173ffffffffffffffffffffffffffffffffffffffff021916908373ffffffffffffffffffffffffffffffffffffffff1602179055508073ffffffffffffffffffffffffffffffffffffffff16600073ffffffffffffffffffffffffffffffffffffffff167f8be0079c531659141344cd1fd0a4f28419497f9722a3daafe3b4186f6b6457e060405160405180910390a350620000da6000806000806000620000e960201b60201c565b5062000731565b600033905090565b6000806040518060a001604052808581526020014267ffffffffffffffff1681526020018863ffffffff1681526020018763ffffffff1681526020018661ffff16815250905060018190806001815401808255809150506001900390600052602060002090600202016000909190919091506000820151816000015560208201518160010160006101000a81548167ffffffffffffffff021916908367ffffffffffffffff16021790555060408201518160010160086101000a81548163ffffffff021916908363ffffffff160217905550606082015181600101600c6101000a81548163ffffffff021916908363ffffffff16021790555060808201518160010160106101000a81548161ffff021916908361ffff16021790555050506000600180805490506200021c919062000689565b90507f0a5311bd2a6608f08a180df2ee7c5946819a649b204b554bb8e39825b2c50ad584828a8a89604051620002579594939291906200062c565b60405180910390a162000273600085836200028160201b60201c565b809250505095945050505050565b600073ffffffffffffffffffffffffffffffffffffffff168373ffffffffffffffffffffffffffffffffffffffff1614620004a65760006001620002cb85620005be60201b60201c565b620002d7919062000689565b9050600360008573ffffffffffffffffffffffffffffffffffffffff1673ffffffffffffffffffffffffffffffffffffffff168152602001908152602001600020818154811062000351577f4e487b7100000000000000000000000000000000000000000000000000000000600052603260045260246000fd5b9060005260206000200154600360008673ffffffffffffffffffffffffffffffffffffffff1673ffffffffffffffffffffffffffffffffffffffff1681526020019081526020016000208381548110620003d4577f4e487b7100000000000000000000000000000000000000000000000000000000600052603260045260246000fd5b9060005260206000200181905550600360008573ffffffffffffffffffffffffffffffffffffffff1673ffffffffffffffffffffffffffffffffffffffff16815260200190815260200160002080548062000458577f4e487b7100000000000000000000000000000000000000000000000000000000600052603160045260246000fd5b600190038181906000526020600020016000905590556004600083815260200190815260200160002060006101000a81549073ffffffffffffffffffffffffffffffffffffffff0219169055505b600360008373ffffffffffffffffffffffffffffffffffffffff1673ffffffffffffffffffffffffffffffffffffffff168152602001908152602001600020819080600181540180825580915050600190039060005260206000200160009091909190915055816002600083815260200190815260200160002060006101000a81548173ffffffffffffffffffffffffffffffffffffffff021916908373ffffffffffffffffffffffffffffffffffffffff160217905550808273ffffffffffffffffffffffffffffffffffffffff168473ffffffffffffffffffffffffffffffffffffffff167fddf252ad1be2c89b69c2b068fc378daa952ba7f163c4a11628f55a4df523b3ef60405160405180910390a4505050565b6000600360008373ffffffffffffffffffffffffffffffffffffffff1673ffffffffffffffffffffffffffffffffffffffff168152602001908152602001600020805490509050919050565b6200061581620006c4565b82525050565b6200062681620006f8565b82525050565b600060a0820190506200064360008301886200060a565b6200065260208301876200061b565b6200066160408301866200061b565b6200067060608301856200061b565b6200067f60808301846200061b565b9695505050505050565b60006200069682620006f8565b9150620006a383620006f8565b925082821015620006b957620006b862000702565b5b828203905092915050565b6000620006d182620006d8565b9050919050565b600073ffffffffffffffffffffffffffffffffffffffff82169050919050565b6000819050919050565b7f4e487b7100000000000000000000000000000000000000000000000000000000600052601160045260246000fd5b612cba80620007416000396000f3fe608060405234801561001057600080fd5b506004361061014d5760003560e01c806385641105116100c3578063b48343301161007c578063b4834330146103c9578063b88d4fde146103e7578063d9ecad7b14610403578063e985e9c514610433578063ef5e94aa14610463578063f2fde38b146104815761014d565b806385641105146102dc5780638da5cb5b1461030c57806395d89b411461032a578063a21e2b6314610348578063a22cb4651461037d578063a8bd9c32146103995761014d565b806323b872dd1161011557806323b872dd1461020a57806342842e0e146102265780636352211e1461024257806370a0823114610272578063715018a6146102a25780638462151c146102ac5761014d565b806301ffc9a71461015257806306fdde0314610182578063081812fc146101a0578063095ea7b3146101d057806318160ddd146101ec575b600080fd5b61016c60048036038101906101679190611f2f565b61049d565b6040516101799190612394565b60405180910390f35b61018a61053d565b60405161019791906123af565b60405180910390f35b6101ba60048036038101906101b59190611f81565b61057a565b6040516101c791906122b8565b60405180910390f35b6101ea60048036038101906101e59190611ef3565b610659565b005b6101f46106b1565b604051610201919061254c565b60405180910390f35b610224600480360381019061021f9190611de8565b6106be565b005b610240600480360381019061023b9190611de8565b6106e3565b005b61025c60048036038101906102579190611f81565b610718565b60405161026991906122b8565b60405180910390f35b61028c60048036038101906102879190611d83565b6107ca565b604051610299919061254c565b60405180910390f35b6102aa610816565b005b6102c660048036038101906102c19190611d83565b610950565b6040516102d39190612372565b60405180910390f35b6102f660048036038101906102f19190611f81565b6109e7565b604051610303919061254c565b60405180910390f35b610314610a95565b60405161032191906122b8565b60405180910390f35b610332610abe565b60405161033f91906123af565b60405180910390f35b610362600480360381019061035d9190611f81565b610afb565b60405161037496959493929190612567565b60405180910390f35b61039760048036038101906103929190611eb7565b610d0b565b005b6103b360048036038101906103ae9190611f81565b610e77565b6040516103c091906122b8565b60405180910390f35b6103d1610eaa565b6040516103de9190612531565b60405180910390f35b61040160048036038101906103fc9190611e37565b610eaf565b005b61041d60048036038101906104189190611faa565b610f1b565b60405161042a919061254c565b60405180910390f35b61044d60048036038101906104489190611dac565b61108f565b60405161045a9190612394565b60405180910390f35b61046b611123565b6040516104789190612531565b60405180910390f35b61049b60048036038101906104969190611d83565b611137565b005b60006301ffc9a760e01b7bffffffffffffffffffffffffffffffffffffffffffffffffffffffff1916827bffffffffffffffffffffffffffffffffffffffffffffffffffffffff1916148061053657506380ac58cd60e01b7bffffffffffffffffffffffffffffffffffffffffffffffffffffffff1916827bffffffffffffffffffffffffffffffffffffffffffffffffffffffff1916145b9050919050565b60606040518060400160405280600e81526020017f43727970746f446f7261656d6f6e000000000000000000000000000000000000815250905090565b60008073ffffffffffffffffffffffffffffffffffffffff166002600084815260200190815260200160002060009054906101000a900473ffffffffffffffffffffffffffffffffffffffff1673ffffffffffffffffffffffffffffffffffffffff16141561061e576040517f08c379a000000000000000000000000000000000000000000000000000000000815260040161061590612451565b60405180910390fd5b6004600083815260200190815260200160002060009054906101000a900473ffffffffffffffffffffffffffffffffffffffff169050919050565b61066333826112e0565b6106a2576040517f08c379a000000000000000000000000000000000000000000000000000000000815260040161069990612411565b60405180910390fd5b6106ad33838361134c565b5050565b6000600180549050905090565b6106ca338484846113fe565b6106d357600080fd5b6106de8383836115f7565b505050565b6106ef338484846113fe565b6106f857600080fd5b61071383838360405180602001604052806000815250611926565b505050565b6000806002600084815260200190815260200160002060009054906101000a900473ffffffffffffffffffffffffffffffffffffffff169050600073ffffffffffffffffffffffffffffffffffffffff168173ffffffffffffffffffffffffffffffffffffffff1614156107c1576040517f08c379a00000000000000000000000000000000000000000000000000000000081526004016107b890612431565b60405180910390fd5b80915050919050565b6000600360008373ffffffffffffffffffffffffffffffffffffffff1673ffffffffffffffffffffffffffffffffffffffff168152602001908152602001600020805490509050919050565b61081e61194c565b73ffffffffffffffffffffffffffffffffffffffff1661083c610a95565b73ffffffffffffffffffffffffffffffffffffffff1614610892576040517f08c379a000000000000000000000000000000000000000000000000000000000815260040161088990612471565b60405180910390fd5b600073ffffffffffffffffffffffffffffffffffffffff1660008054906101000a900473ffffffffffffffffffffffffffffffffffffffff1673ffffffffffffffffffffffffffffffffffffffff167f8be0079c531659141344cd1fd0a4f28419497f9722a3daafe3b4186f6b6457e060405160405180910390a360008060006101000a81548173ffffffffffffffffffffffffffffffffffffffff021916908373ffffffffffffffffffffffffffffffffffffffff160217905550565b6060600360008373ffffffffffffffffffffffffffffffffffffffff1673ffffffffffffffffffffffffffffffffffffffff1681526020019081526020016000208054806020026020016040519081016040528092919081815260200182805480156109db57602002820191906000526020600020905b8154815260200190600101908083116109c7575b50505050509050919050565b6000600a61ffff16600660009054906101000a900461ffff1661ffff1610610a44576040517f08c379a0000000000000000000000000000000000000000000000000000000008152600401610a3b906124f1565b60405180910390fd5b6006600081819054906101000a900461ffff1680929190610a6490612890565b91906101000a81548161ffff021916908361ffff16021790555050610a8e60008060008533611954565b9050919050565b60008060009054906101000a900473ffffffffffffffffffffffffffffffffffffffff16905090565b60606040518060400160405280600481526020017f444f524100000000000000000000000000000000000000000000000000000000815250905090565b60008060008060008060018781548110610b3e577f4e487b7100000000000000000000000000000000000000000000000000000000600052603260045260246000fd5b906000526020600020906002020160000154955060018781548110610b8c577f4e487b7100000000000000000000000000000000000000000000000000000000600052603260045260246000fd5b906000526020600020906002020160010160009054906101000a900467ffffffffffffffff16945060018781548110610bee577f4e487b7100000000000000000000000000000000000000000000000000000000600052603260045260246000fd5b906000526020600020906002020160010160089054906101000a900463ffffffff16935060018781548110610c4c577f4e487b7100000000000000000000000000000000000000000000000000000000600052603260045260246000fd5b9060005260206000209060020201600101600c9054906101000a900463ffffffff16925060018781548110610caa577f4e487b7100000000000000000000000000000000000000000000000000000000600052603260045260246000fd5b906000526020600020906002020160010160109054906101000a900461ffff1691506002600088815260200190815260200160002060009054906101000a900473ffffffffffffffffffffffffffffffffffffffff16905091939550919395565b3373ffffffffffffffffffffffffffffffffffffffff168273ffffffffffffffffffffffffffffffffffffffff161415610d7a576040517f08c379a0000000000000000000000000000000000000000000000000000000008152600401610d71906123f1565b60405180910390fd5b80600560003373ffffffffffffffffffffffffffffffffffffffff1673ffffffffffffffffffffffffffffffffffffffff16815260200190815260200160002060008473ffffffffffffffffffffffffffffffffffffffff1673ffffffffffffffffffffffffffffffffffffffff16815260200190815260200160002060006101000a81548160ff0219169083151502179055508173ffffffffffffffffffffffffffffffffffffffff163373ffffffffffffffffffffffffffffffffffffffff167f17307eab39ab6107e8899845ad3d59bd9653f200f220920489ca2b5937696c3183604051610e6b9190612394565b60405180910390a35050565b60046020528060005260406000206000915054906101000a900473ffffffffffffffffffffffffffffffffffffffff1681565b600a81565b610ebb338686866113fe565b610ec457600080fd5b610f1485858585858080601f016020809104026020016040519081016040528093929190818152602001838380828437600081840152601f19601f82011690508083019250505050505050611926565b5050505050565b6000610f2733846112e0565b8015610f395750610f3833836112e0565b5b610f78576040517f08c379a0000000000000000000000000000000000000000000000000000000008152600401610f6f90612511565b60405180910390fd5b600060018481548110610fb4577f4e487b7100000000000000000000000000000000000000000000000000000000600052603260045260246000fd5b90600052602060002090600202019050600060018481548110611000577f4e487b7100000000000000000000000000000000000000000000000000000000600052603260045260246000fd5b90600052602060002090600202019050600061102483600001548360000154611ae0565b90506000600160028460010160109054906101000a900461ffff168660010160109054906101000a900461ffff1661105c9190612639565b61106691906126c7565b6110709190612639565b61ffff1690506110838787838533611954565b94505050505092915050565b6000600560008473ffffffffffffffffffffffffffffffffffffffff1673ffffffffffffffffffffffffffffffffffffffff16815260200190815260200160002060008373ffffffffffffffffffffffffffffffffffffffff1673ffffffffffffffffffffffffffffffffffffffff16815260200190815260200160002060009054906101000a900460ff16905092915050565b600660009054906101000a900461ffff1681565b61113f61194c565b73ffffffffffffffffffffffffffffffffffffffff1661115d610a95565b73ffffffffffffffffffffffffffffffffffffffff16146111b3576040517f08c379a00000000000000000000000000000000000000000000000000000000081526004016111aa90612471565b60405180910390fd5b600073ffffffffffffffffffffffffffffffffffffffff168173ffffffffffffffffffffffffffffffffffffffff161415611223576040517f08c379a000000000000000000000000000000000000000000000000000000000815260040161121a906123d1565b60405180910390fd5b8073ffffffffffffffffffffffffffffffffffffffff1660008054906101000a900473ffffffffffffffffffffffffffffffffffffffff1673ffffffffffffffffffffffffffffffffffffffff167f8be0079c531659141344cd1fd0a4f28419497f9722a3daafe3b4186f6b6457e060405160405180910390a3806000806101000a81548173ffffffffffffffffffffffffffffffffffffffff021916908373ffffffffffffffffffffffffffffffffffffffff16021790555050565b60008273ffffffffffffffffffffffffffffffffffffffff166002600084815260200190815260200160002060009054906101000a900473ffffffffffffffffffffffffffffffffffffffff1673ffffffffffffffffffffffffffffffffffffffff1614905092915050565b816004600083815260200190815260200160002060006101000a81548173ffffffffffffffffffffffffffffffffffffffff021916908373ffffffffffffffffffffffffffffffffffffffff160217905550808273ffffffffffffffffffffffffffffffffffffffff168473ffffffffffffffffffffffffffffffffffffffff167f8c5be1e5ebec7d5bd14f71427d1e84f3dd0314c0f7b2291e5b200ac8c7c3b92560405160405180910390a4505050565b60008073ffffffffffffffffffffffffffffffffffffffff166002600084815260200190815260200160002060009054906101000a900473ffffffffffffffffffffffffffffffffffffffff1673ffffffffffffffffffffffffffffffffffffffff1614156114a2576040517f08c379a000000000000000000000000000000000000000000000000000000000815260040161149990612451565b60405180910390fd5b600073ffffffffffffffffffffffffffffffffffffffff168373ffffffffffffffffffffffffffffffffffffffff161415611512576040517f08c379a0000000000000000000000000000000000000000000000000000000008152600401611509906124d1565b60405180910390fd5b61151c84836112e0565b61155b576040517f08c379a000000000000000000000000000000000000000000000000000000000815260040161155290612491565b60405180910390fd5b8373ffffffffffffffffffffffffffffffffffffffff168573ffffffffffffffffffffffffffffffffffffffff16148061159b575061159a848661108f565b5b806115ac57506115ab8583611b31565b5b6115eb576040517f08c379a00000000000000000000000000000000000000000000000000000000081526004016115e2906124b1565b60405180910390fd5b60019050949350505050565b600073ffffffffffffffffffffffffffffffffffffffff168373ffffffffffffffffffffffffffffffffffffffff161461180e5760006001611638856107ca565b6116429190612783565b9050600360008573ffffffffffffffffffffffffffffffffffffffff1673ffffffffffffffffffffffffffffffffffffffff16815260200190815260200160002081815481106116bb577f4e487b7100000000000000000000000000000000000000000000000000000000600052603260045260246000fd5b9060005260206000200154600360008673ffffffffffffffffffffffffffffffffffffffff1673ffffffffffffffffffffffffffffffffffffffff168152602001908152602001600020838154811061173d577f4e487b7100000000000000000000000000000000000000000000000000000000600052603260045260246000fd5b9060005260206000200181905550600360008573ffffffffffffffffffffffffffffffffffffffff1673ffffffffffffffffffffffffffffffffffffffff1681526020019081526020016000208054806117c0577f4e487b7100000000000000000000000000000000000000000000000000000000600052603160045260246000fd5b600190038181906000526020600020016000905590556004600083815260200190815260200160002060006101000a81549073ffffffffffffffffffffffffffffffffffffffff0219169055505b600360008373ffffffffffffffffffffffffffffffffffffffff1673ffffffffffffffffffffffffffffffffffffffff168152602001908152602001600020819080600181540180825580915050600190039060005260206000200160009091909190915055816002600083815260200190815260200160002060006101000a81548173ffffffffffffffffffffffffffffffffffffffff021916908373ffffffffffffffffffffffffffffffffffffffff160217905550808273ffffffffffffffffffffffffffffffffffffffff168473ffffffffffffffffffffffffffffffffffffffff167fddf252ad1be2c89b69c2b068fc378daa952ba7f163c4a11628f55a4df523b3ef60405160405180910390a4505050565b6119318484846115f7565b61193d84848484611b9d565b61194657600080fd5b50505050565b600033905090565b6000806040518060a001604052808581526020014267ffffffffffffffff1681526020018863ffffffff1681526020018763ffffffff1681526020018661ffff16815250905060018190806001815401808255809150506001900390600052602060002090600202016000909190919091506000820151816000015560208201518160010160006101000a81548167ffffffffffffffff021916908367ffffffffffffffff16021790555060408201518160010160086101000a81548163ffffffff021916908363ffffffff160217905550606082015181600101600c6101000a81548163ffffffff021916908363ffffffff16021790555060808201518160010160106101000a81548161ffff021916908361ffff1602179055505050600060018080549050611a859190612783565b90507f0a5311bd2a6608f08a180df2ee7c5946819a649b204b554bb8e39825b2c50ad584828a8a89604051611abe95949392919061231f565b60405180910390a1611ad2600085836115f7565b809250505095945050505050565b6000806298968084611af291906126f8565b905060006298968084611b0591906128bb565b90506000816298968084611b199190612729565b611b239190612671565b905080935050505092915050565b60008273ffffffffffffffffffffffffffffffffffffffff166004600084815260200190815260200160002060009054906101000a900473ffffffffffffffffffffffffffffffffffffffff1673ffffffffffffffffffffffffffffffffffffffff1614905092915050565b6000611ba884611cb7565b611bb55760019050611caf565b60008473ffffffffffffffffffffffffffffffffffffffff1663150b7a02338887876040518563ffffffff1660e01b8152600401611bf694939291906122d3565b602060405180830381600087803b158015611c1057600080fd5b505af1158015611c24573d6000803e3d6000fd5b505050506040513d601f19601f82011682018060405250810190611c489190611f58565b90507f150b7a023d4804d13e8c85fb27262cb750cf6ba9f9dd3bb30d90f482ceeb4b1f7bffffffffffffffffffffffffffffffffffffffffffffffffffffffff1916817bffffffffffffffffffffffffffffffffffffffffffffffffffffffff1916149150505b949350505050565b600080823b905060008163ffffffff1611915050919050565b600081359050611cdf81612c28565b92915050565b600081359050611cf481612c3f565b92915050565b600081359050611d0981612c56565b92915050565b600081519050611d1e81612c56565b92915050565b60008083601f840112611d3657600080fd5b8235905067ffffffffffffffff811115611d4f57600080fd5b602083019150836001820283011115611d6757600080fd5b9250929050565b600081359050611d7d81612c6d565b92915050565b600060208284031215611d9557600080fd5b6000611da384828501611cd0565b91505092915050565b60008060408385031215611dbf57600080fd5b6000611dcd85828601611cd0565b9250506020611dde85828601611cd0565b9150509250929050565b600080600060608486031215611dfd57600080fd5b6000611e0b86828701611cd0565b9350506020611e1c86828701611cd0565b9250506040611e2d86828701611d6e565b9150509250925092565b600080600080600060808688031215611e4f57600080fd5b6000611e5d88828901611cd0565b9550506020611e6e88828901611cd0565b9450506040611e7f88828901611d6e565b935050606086013567ffffffffffffffff811115611e9c57600080fd5b611ea888828901611d24565b92509250509295509295909350565b60008060408385031215611eca57600080fd5b6000611ed885828601611cd0565b9250506020611ee985828601611ce5565b9150509250929050565b60008060408385031215611f0657600080fd5b6000611f1485828601611cd0565b9250506020611f2585828601611d6e565b9150509250929050565b600060208284031215611f4157600080fd5b6000611f4f84828501611cfa565b91505092915050565b600060208284031215611f6a57600080fd5b6000611f7884828501611d0f565b91505092915050565b600060208284031215611f9357600080fd5b6000611fa184828501611d6e565b91505092915050565b60008060408385031215611fbd57600080fd5b6000611fcb85828601611d6e565b9250506020611fdc85828601611d6e565b9150509250929050565b6000611ff2838361227c565b60208301905092915050565b612007816127b7565b82525050565b6000612018826125d8565b6120228185612606565b935061202d836125c8565b8060005b8381101561205e5781516120458882611fe6565b9750612050836125f9565b925050600181019050612031565b5085935050505092915050565b612074816127c9565b82525050565b6000612085826125e3565b61208f8185612617565b935061209f81856020860161285d565b6120a88161294a565b840191505092915050565b60006120be826125ee565b6120c88185612628565b93506120d881856020860161285d565b6120e18161294a565b840191505092915050565b60006120f9602683612628565b91506121048261295b565b604082019050919050565b600061211c601983612628565b9150612127826129aa565b602082019050919050565b600061213f602b83612628565b915061214a826129d3565b604082019050919050565b6000612162602983612628565b915061216d82612a22565b604082019050919050565b6000612185601883612628565b915061219082612a71565b602082019050919050565b60006121a8602083612628565b91506121b382612a9a565b602082019050919050565b60006121cb602a83612628565b91506121d682612ac3565b604082019050919050565b60006121ee603783612628565b91506121f982612b12565b604082019050919050565b6000612211601783612628565b915061221c82612b61565b602082019050919050565b6000612234602183612628565b915061223f82612b8a565b604082019050919050565b6000612257602383612628565b915061226282612bd9565b604082019050919050565b61227681612801565b82525050565b6122858161282f565b82525050565b6122948161282f565b82525050565b6122a381612839565b82525050565b6122b281612849565b82525050565b60006020820190506122cd6000830184611ffe565b92915050565b60006080820190506122e86000830187611ffe565b6122f56020830186611ffe565b612302604083018561228b565b8181036060830152612314818461207a565b905095945050505050565b600060a0820190506123346000830188611ffe565b612341602083018761228b565b61234e604083018661228b565b61235b606083018561228b565b612368608083018461228b565b9695505050505050565b6000602082019050818103600083015261238c818461200d565b905092915050565b60006020820190506123a9600083018461206b565b92915050565b600060208201905081810360008301526123c981846120b3565b905092915050565b600060208201905081810360008301526123ea816120ec565b9050919050565b6000602082019050818103600083015261240a8161210f565b9050919050565b6000602082019050818103600083015261242a81612132565b9050919050565b6000602082019050818103600083015261244a81612155565b9050919050565b6000602082019050818103600083015261246a81612178565b9050919050565b6000602082019050818103600083015261248a8161219b565b9050919050565b600060208201905081810360008301526124aa816121be565b9050919050565b600060208201905081810360008301526124ca816121e1565b9050919050565b600060208201905081810360008301526124ea81612204565b9050919050565b6000602082019050818103600083015261250a81612227565b9050919050565b6000602082019050818103600083015261252a8161224a565b9050919050565b6000602082019050612546600083018461226d565b92915050565b6000602082019050612561600083018461228b565b92915050565b600060c08201905061257c600083018961228b565b61258960208301886122a9565b612596604083018761229a565b6125a3606083018661229a565b6125b0608083018561226d565b6125bd60a0830184611ffe565b979650505050505050565b6000819050602082019050919050565b600081519050919050565b600081519050919050565b600081519050919050565b6000602082019050919050565b600082825260208201905092915050565b600082825260208201905092915050565b600082825260208201905092915050565b600061264482612801565b915061264f83612801565b92508261ffff03821115612666576126656128ec565b5b828201905092915050565b600061267c8261282f565b91506126878361282f565b9250827fffffffffffffffffffffffffffffffffffffffffffffffffffffffffffffffff038211156126bc576126bb6128ec565b5b828201905092915050565b60006126d282612801565b91506126dd83612801565b9250826126ed576126ec61291b565b5b828204905092915050565b60006127038261282f565b915061270e8361282f565b92508261271e5761271d61291b565b5b828204905092915050565b60006127348261282f565b915061273f8361282f565b9250817fffffffffffffffffffffffffffffffffffffffffffffffffffffffffffffffff0483118215151615612778576127776128ec565b5b828202905092915050565b600061278e8261282f565b91506127998361282f565b9250828210156127ac576127ab6128ec565b5b828203905092915050565b60006127c28261280f565b9050919050565b60008115159050919050565b60007fffffffff0000000000000000000000000000000000000000000000000000000082169050919050565b600061ffff82169050919050565b600073ffffffffffffffffffffffffffffffffffffffff82169050919050565b6000819050919050565b600063ffffffff82169050919050565b600067ffffffffffffffff82169050919050565b60005b8381101561287b578082015181840152602081019050612860565b8381111561288a576000848401525b50505050565b600061289b82612801565b915061ffff8214156128b0576128af6128ec565b5b600182019050919050565b60006128c68261282f565b91506128d18361282f565b9250826128e1576128e061291b565b5b828206905092915050565b7f4e487b7100000000000000000000000000000000000000000000000000000000600052601160045260246000fd5b7f4e487b7100000000000000000000000000000000000000000000000000000000600052601260045260246000fd5b6000601f19601f8301169050919050565b7f4f776e61626c653a206e6577206f776e657220697320746865207a65726f206160008201527f6464726573730000000000000000000000000000000000000000000000000000602082015250565b7f4552433732313a20596f752061726520746865206f776e657200000000000000600082015250565b7f4552433732313a20596f7520617265206e6f7420746865206f776e6572206f6660008201527f207468697320746f6b656e000000000000000000000000000000000000000000602082015250565b7f4552433732313a206f776e657220717565727920666f72206e6f6e657869737460008201527f656e7420746f6b656e0000000000000000000000000000000000000000000000602082015250565b7f4552433732313a20496e76616c696420746f6b656e2049440000000000000000600082015250565b7f4f776e61626c653a2063616c6c6572206973206e6f7420746865206f776e6572600082015250565b7f4552433732313a205468652073656e64657220646f6573206e6f74206f776e2060008201527f7468697320746f6b656e00000000000000000000000000000000000000000000602082015250565b7f4552433732313a20596f7520646f6e2774206861766520746865207065726d6960008201527f7373696f6e20746f207472616e7366657220746f6b656e000000000000000000602082015250565b7f4552433732313a20496e76616c69642061646472657373000000000000000000600082015250565b7f43616e6e6f7420637265617465206d6f72652067656e203020646f7261656d6f60008201527f6e00000000000000000000000000000000000000000000000000000000000000602082015250565b7f596f7520617265206e6f7420746865206f776e6572206f66207468697320746f60008201527f6b656e0000000000000000000000000000000000000000000000000000000000602082015250565b612c31816127b7565b8114612c3c57600080fd5b50565b612c48816127c9565b8114612c5357600080fd5b50565b612c5f816127d5565b8114612c6a57600080fd5b50565b612c768161282f565b8114612c8157600080fd5b5056fea2646970667358221220f2224224d8fd0929b26a874d6e27dfa44920014f8cd2d4be9ba19be4d0cf3e5e64736f6c63430008040033",
  "immutableReferences": {},
  "source": "// SPDX-License-Identifier: MIT\npragma solidity ^0.8.0;\n\n// import \"../node_modules/@openzeppelin/contracts/token/ERC721/IERC721.sol\";\n// import \"../node_modules/@openzeppelin/contracts/token/ERC721/extensions/IERC721Metadata.sol\";\n// import \"../node_modules/@openzeppelin/contracts/token/ERC721/extensions/IERC721Enumerable.sol\";\n\nimport \"./IERC721.sol\";\nimport \"./IERC721Receiver.sol\";\nimport \"../node_modules/@openzeppelin/contracts/access/Ownable.sol\";\n\ncontract Doracontract is IERC721, Ownable {\n  string constant _name = \"CryptoDoraemon\";\n  string constant _symbol = \"DORA\";\n  uint16 public constant CREATION_LIMIT_GEN0 = 10;\n\n  bytes4 internal constant MAGIC_ERC721_RECEIVED = bytes4(keccak256(\"onERC721Received(address,address,uint256,bytes)\"));\n  bytes4 private constant _INTERFACE_ID_ERC721 = 0x80ac58cd;\n  bytes4 private constant _INTERFACE_ID_ERC165 = 0x01ffc9a7;\n\n  event Birth(\n    address owner, \n    uint256 doraemonId, \n    uint256 mumId, \n    uint256 dadId, \n    uint256 genes\n  );\n\n  struct Doraemon {\n    uint256 genes;\n    uint64 birthTime;\n    uint32 mumId;\n    uint32 dadId;\n    uint16 generation;\n  }\n\n  //Array of all tokens (index => token) (index, token ID: position of allTokens array)\n  Doraemon[] private allTokens;\n  //Token ID to owner address\n  mapping (uint256 => address) private tokenOwner;\n  //Owner to list of owned token IDs (addr => index)\n  mapping(address => uint256[]) private ownedTokens;\n  //Give right to transfer (token ID => approved address)\n  mapping (uint256 => address) public tokenIndexToApproved;\n  //Give operator (myAddr => operatorAddr => true/false)\n  mapping (address => mapping(address => bool)) private operatorApprovals;\n\n  //Counts created gen 0 doraemons\n  uint16 public gen0Counter; \n\n  constructor(){\n    _createDoraemon(0, 0, 0, 0, address(0)); //to fill index 0 spot\n  }\n\n  function supportsInterface(bytes4 _interfaceId) external pure returns (bool) {\n    return (_interfaceId == _INTERFACE_ID_ERC165 || _interfaceId == _INTERFACE_ID_ERC721);\n  }\n\n  function createDoraemonGen0(uint256 _genes) public returns(uint256){\n    require(gen0Counter < CREATION_LIMIT_GEN0, \"Cannot create more gen 0 doraemon\");\n    gen0Counter++;\n\n    return _createDoraemon(0, 0, 0, _genes, msg.sender);\n  }\n\n  function _createDoraemon(\n    uint256 _mumId, \n    uint256 _dadId, \n    uint256 _generation, \n    uint256 _genes, \n    address _owner\n  ) private returns(uint256) {\n    Doraemon memory _doraemon = Doraemon({\n      genes: _genes,\n      birthTime: uint64(block.timestamp),\n      mumId: uint32(_mumId),\n      dadId: uint32(_dadId),\n      generation: uint16(_generation)\n    });\n    allTokens.push(_doraemon);\n    uint256 newDoraemonId = allTokens.length - 1; \n\n    emit Birth(_owner, newDoraemonId, _mumId, _dadId, _genes);\n    _transfer(address(0), _owner, newDoraemonId);\n\n    return newDoraemonId;\n  } \n\n  function getDoraemon(uint256 _tokenId) external view returns(\n    uint256 genes,\n    uint64 birthTime,\n    uint32 mumId,\n    uint32 dadId,\n    uint16 generation,\n    address owner\n  ){\n    genes = allTokens[_tokenId].genes;\n    birthTime = allTokens[_tokenId].birthTime;\n    mumId = allTokens[_tokenId].mumId;\n    dadId = allTokens[_tokenId].dadId;\n    generation = allTokens[_tokenId].generation;\n    owner = tokenOwner[_tokenId];\n  }\n\n  function tokensOfOwner(address _owner) external view returns(uint256[] memory){\n    return ownedTokens[_owner];\n  }\n\n  function breed(uint256 _dadId, uint256 _mumId) public returns (uint256){\n    require(_owns(msg.sender, _dadId) && _owns(msg.sender, _mumId), \"You are not the owner of this token\");\n    Doraemon storage dad = allTokens[_dadId];\n    Doraemon storage mum = allTokens[_mumId];\n    uint256 newDna = _mixDna(dad.genes, mum.genes);\n    uint256 newGen = (dad.generation + mum.generation) / 2 + 1;\n    return _createDoraemon(_dadId, _mumId, newGen, newDna, msg.sender);\n  }\n\n  function balanceOf(address _owner) public view override returns(uint256){\n    return ownedTokens[_owner].length;\n  }\n\n  function totalSupply() external view override returns(uint256){\n    return allTokens.length;\n  }\n\n  function name() external pure override returns (string memory){\n    return _name;\n  } \n\n  function symbol() external pure override returns (string memory){\n    return _symbol;\n  } \n\n  function ownerOf(uint256 _tokenId) public view override returns(address){\n    address owner = tokenOwner[_tokenId];\n    require(owner != address(0), \"ERC721: owner query for nonexistent token\");\n    return owner;\n  }\n\n  function approve(address _approved, uint256 _tokenId) external override{\n    require(_owns(msg.sender, _tokenId), \"ERC721: You are not the owner of this token\");\n    _approve(msg.sender, _approved, _tokenId);\n  }\n\n  function setApprovalForAll(address _operator, bool _approved) external override {\n    require(_operator != msg.sender, \"ERC721: You are the owner\");\n    operatorApprovals[msg.sender][_operator] = _approved;\n    emit ApprovalForAll(msg.sender, _operator, _approved);\n  }\n\n  function getApproved(uint256 _tokenId) external view override returns(address){\n    require(tokenOwner[_tokenId] != address(0), \"ERC721: Invalid token ID\");\n    return tokenIndexToApproved[_tokenId];\n  }\n\n  function isApprovedForAll(address _owner, address _operator) public view override returns(bool){\n    return operatorApprovals[_owner][_operator];\n  }\n\n  function safeTransferFrom(address _from, address _to, uint256 _tokenId) external override {\n    require(_isApprovedOrOwner(msg.sender, _from, _to, _tokenId));\n    _safeTransfer(_from, _to, _tokenId, \"\");\n  }\n\n  function safeTransferFrom(address _from, address _to, uint256 _tokenId, bytes calldata data) external override {\n    require(_isApprovedOrOwner(msg.sender, _from, _to, _tokenId));\n    _safeTransfer(_from, _to, _tokenId, data);\n  }\n\n  function _safeTransfer(address _from, address _to, uint256 _tokenId, bytes memory _data) internal {\n    _transfer(_from, _to, _tokenId);\n    require(_checkERC721Support(_from, _to, _tokenId, _data));\n  }\n\n  function transferFrom(address _from, address _to, uint256 _tokenId) external override {\n    require(_isApprovedOrOwner(msg.sender, _from, _to, _tokenId));\n    _transfer(_from, _to, _tokenId);\n  }\n\n  function _transfer(address _from, address _to, uint256 _tokenId) internal{\n    if(_from != address(0)){\n      uint256 lastTokenIndex = balanceOf(_from) - 1;\n      ownedTokens[_from][_tokenId] = ownedTokens[_from][lastTokenIndex];\n      ownedTokens[_from].pop();\n      delete tokenIndexToApproved[_tokenId];\n    }\n    ownedTokens[_to].push(_tokenId);\n    tokenOwner[_tokenId] = _to;\n    emit Transfer(_from, _to, _tokenId);\n  }\n\n  function _owns(address _claimant, uint256 _tokenId) internal view returns(bool){\n    return tokenOwner[_tokenId] == _claimant;\n  }\n\n  function _approve(address _owner, address _approved, uint256 _tokenId) internal {\n    tokenIndexToApproved[_tokenId] = _approved;\n    emit Approval(_owner, _approved, _tokenId);\n  }\n\n  function _approvedFor(address _claimant, uint256 _tokenId) internal view returns (bool) {\n    return tokenIndexToApproved[_tokenId] == _claimant;\n  }\n\n  function _checkERC721Support(address _from, address _to, uint256 _tokenId, bytes memory _data) internal returns (bool) {\n    if(!_isContract(_to)){\n      return true;\n    }\n\n    bytes4 returnData = IERC721Receiver(_to).onERC721Received(msg.sender, _from, _tokenId, _data);\n    return returnData == MAGIC_ERC721_RECEIVED;\n  }\n\n  function _isContract(address _to) view internal returns(bool){\n    uint32 size; //code size\n    assembly{\n      size := extcodesize(_to)\n    }\n    return size > 0;\n  }\n\n  function _isApprovedOrOwner(address _spender, address _from, address _to, uint256 _tokenId) internal view returns(bool){\n    require(tokenOwner[_tokenId] != address(0), \"ERC721: Invalid token ID\");\n    require(_to != address(0), \"ERC721: Invalid address\");\n    require(_owns(_from, _tokenId), \"ERC721: The sender does not own this token\");\n    require(\n      _spender == _from || isApprovedForAll(_from, _spender) || _approvedFor(_spender, _tokenId), \n      \"ERC721: You don't have the permission to transfer token\"\n    );\n    return true;\n  }\n\n  function _mixDna(uint256 _dadDna, uint256 _mumDna) internal pure returns(uint256){\n    uint256 firstHalf = _dadDna / 10000000;\n    uint256 secondHalf = _mumDna % 10000000;\n\n    uint256 newDna = firstHalf * 10000000 + secondHalf;\n    return newDna;\n  }\n}",
  "sourcePath": "/Users/riomain/code/blockchain/academy/nftgame/doraemon/contracts/Doracontract.sol",
  "compiler": {
    "name": "solc",
    "version": "0.8.4+commit.c7e474f2.Emscripten.clang"
  },
  "schemaVersion": "3.3.4",
  "updatedAt": "2021-05-21T02:07:17.236Z",
  "networkType": "ethereum",
  "devdoc": {
    "kind": "dev",
    "methods": {
      "owner()": {
        "details": "Returns the address of the current owner."
      },
      "renounceOwnership()": {
        "details": "Leaves the contract without owner. It will not be possible to call `onlyOwner` functions anymore. Can only be called by the current owner. NOTE: Renouncing ownership will leave the contract without an owner, thereby removing any functionality that is only available to the owner."
      },
      "transferOwnership(address)": {
        "details": "Transfers ownership of the contract to a new account (`newOwner`). Can only be called by the current owner."
      }
    },
    "version": 1
  },
  "userdoc": {
    "kind": "user",
    "methods": {},
    "version": 1
  }
}